{
	"Task3/wrap and unwrap token.sol": {
		"WrappedEMP": {
			"abi": [
				{
					"inputs": [
						{
							"internalType": "address",
							"name": "_empTokenAddress",
							"type": "address"
						}
					],
					"stateMutability": "nonpayable",
					"type": "constructor"
				},
				{
					"inputs": [
						{
							"internalType": "address",
							"name": "spender",
							"type": "address"
						},
						{
							"internalType": "uint256",
							"name": "allowance",
							"type": "uint256"
						},
						{
							"internalType": "uint256",
							"name": "needed",
							"type": "uint256"
						}
					],
					"name": "ERC20InsufficientAllowance",
					"type": "error"
				},
				{
					"inputs": [
						{
							"internalType": "address",
							"name": "sender",
							"type": "address"
						},
						{
							"internalType": "uint256",
							"name": "balance",
							"type": "uint256"
						},
						{
							"internalType": "uint256",
							"name": "needed",
							"type": "uint256"
						}
					],
					"name": "ERC20InsufficientBalance",
					"type": "error"
				},
				{
					"inputs": [
						{
							"internalType": "address",
							"name": "approver",
							"type": "address"
						}
					],
					"name": "ERC20InvalidApprover",
					"type": "error"
				},
				{
					"inputs": [
						{
							"internalType": "address",
							"name": "receiver",
							"type": "address"
						}
					],
					"name": "ERC20InvalidReceiver",
					"type": "error"
				},
				{
					"inputs": [
						{
							"internalType": "address",
							"name": "sender",
							"type": "address"
						}
					],
					"name": "ERC20InvalidSender",
					"type": "error"
				},
				{
					"inputs": [
						{
							"internalType": "address",
							"name": "spender",
							"type": "address"
						}
					],
					"name": "ERC20InvalidSpender",
					"type": "error"
				},
				{
					"anonymous": false,
					"inputs": [
						{
							"indexed": true,
							"internalType": "address",
							"name": "owner",
							"type": "address"
						},
						{
							"indexed": true,
							"internalType": "address",
							"name": "spender",
							"type": "address"
						},
						{
							"indexed": false,
							"internalType": "uint256",
							"name": "value",
							"type": "uint256"
						}
					],
					"name": "Approval",
					"type": "event"
				},
				{
					"anonymous": false,
					"inputs": [
						{
							"indexed": true,
							"internalType": "address",
							"name": "from",
							"type": "address"
						},
						{
							"indexed": true,
							"internalType": "address",
							"name": "to",
							"type": "address"
						},
						{
							"indexed": false,
							"internalType": "uint256",
							"name": "value",
							"type": "uint256"
						}
					],
					"name": "Transfer",
					"type": "event"
				},
				{
					"inputs": [
						{
							"internalType": "address",
							"name": "owner",
							"type": "address"
						},
						{
							"internalType": "address",
							"name": "spender",
							"type": "address"
						}
					],
					"name": "allowance",
					"outputs": [
						{
							"internalType": "uint256",
							"name": "",
							"type": "uint256"
						}
					],
					"stateMutability": "view",
					"type": "function"
				},
				{
					"inputs": [
						{
							"internalType": "address",
							"name": "spender",
							"type": "address"
						},
						{
							"internalType": "uint256",
							"name": "value",
							"type": "uint256"
						}
					],
					"name": "approve",
					"outputs": [
						{
							"internalType": "bool",
							"name": "",
							"type": "bool"
						}
					],
					"stateMutability": "nonpayable",
					"type": "function"
				},
				{
					"inputs": [
						{
							"internalType": "address",
							"name": "account",
							"type": "address"
						}
					],
					"name": "balanceOf",
					"outputs": [
						{
							"internalType": "uint256",
							"name": "",
							"type": "uint256"
						}
					],
					"stateMutability": "view",
					"type": "function"
				},
				{
					"inputs": [],
					"name": "decimals",
					"outputs": [
						{
							"internalType": "uint8",
							"name": "",
							"type": "uint8"
						}
					],
					"stateMutability": "view",
					"type": "function"
				},
				{
					"inputs": [],
					"name": "empToken",
					"outputs": [
						{
							"internalType": "contract ERC20",
							"name": "",
							"type": "address"
						}
					],
					"stateMutability": "view",
					"type": "function"
				},
				{
					"inputs": [],
					"name": "name",
					"outputs": [
						{
							"internalType": "string",
							"name": "",
							"type": "string"
						}
					],
					"stateMutability": "view",
					"type": "function"
				},
				{
					"inputs": [],
					"name": "symbol",
					"outputs": [
						{
							"internalType": "string",
							"name": "",
							"type": "string"
						}
					],
					"stateMutability": "view",
					"type": "function"
				},
				{
					"inputs": [],
					"name": "totalSupply",
					"outputs": [
						{
							"internalType": "uint256",
							"name": "",
							"type": "uint256"
						}
					],
					"stateMutability": "view",
					"type": "function"
				},
				{
					"inputs": [
						{
							"internalType": "address",
							"name": "to",
							"type": "address"
						},
						{
							"internalType": "uint256",
							"name": "value",
							"type": "uint256"
						}
					],
					"name": "transfer",
					"outputs": [
						{
							"internalType": "bool",
							"name": "",
							"type": "bool"
						}
					],
					"stateMutability": "nonpayable",
					"type": "function"
				},
				{
					"inputs": [
						{
							"internalType": "address",
							"name": "from",
							"type": "address"
						},
						{
							"internalType": "address",
							"name": "to",
							"type": "address"
						},
						{
							"internalType": "uint256",
							"name": "value",
							"type": "uint256"
						}
					],
					"name": "transferFrom",
					"outputs": [
						{
							"internalType": "bool",
							"name": "",
							"type": "bool"
						}
					],
					"stateMutability": "nonpayable",
					"type": "function"
				},
				{
					"inputs": [
						{
							"internalType": "uint256",
							"name": "amount",
							"type": "uint256"
						}
					],
					"name": "unwrap",
					"outputs": [],
					"stateMutability": "nonpayable",
					"type": "function"
				},
				{
					"inputs": [
						{
							"internalType": "uint256",
							"name": "amount",
							"type": "uint256"
						}
					],
					"name": "wrap",
					"outputs": [],
					"stateMutability": "nonpayable",
					"type": "function"
				}
			],
			"devdoc": {
				"errors": {
					"ERC20InsufficientAllowance(address,uint256,uint256)": [
						{
							"details": "Indicates a failure with the `spender`’s `allowance`. Used in transfers.",
							"params": {
								"allowance": "Amount of tokens a `spender` is allowed to operate with.",
								"needed": "Minimum amount required to perform a transfer.",
								"spender": "Address that may be allowed to operate on tokens without being their owner."
							}
						}
					],
					"ERC20InsufficientBalance(address,uint256,uint256)": [
						{
							"details": "Indicates an error related to the current `balance` of a `sender`. Used in transfers.",
							"params": {
								"balance": "Current balance for the interacting account.",
								"needed": "Minimum amount required to perform a transfer.",
								"sender": "Address whose tokens are being transferred."
							}
						}
					],
					"ERC20InvalidApprover(address)": [
						{
							"details": "Indicates a failure with the `approver` of a token to be approved. Used in approvals.",
							"params": {
								"approver": "Address initiating an approval operation."
							}
						}
					],
					"ERC20InvalidReceiver(address)": [
						{
							"details": "Indicates a failure with the token `receiver`. Used in transfers.",
							"params": {
								"receiver": "Address to which tokens are being transferred."
							}
						}
					],
					"ERC20InvalidSender(address)": [
						{
							"details": "Indicates a failure with the token `sender`. Used in transfers.",
							"params": {
								"sender": "Address whose tokens are being transferred."
							}
						}
					],
					"ERC20InvalidSpender(address)": [
						{
							"details": "Indicates a failure with the `spender` to be approved. Used in approvals.",
							"params": {
								"spender": "Address that may be allowed to operate on tokens without being their owner."
							}
						}
					]
				},
				"events": {
					"Approval(address,address,uint256)": {
						"details": "Emitted when the allowance of a `spender` for an `owner` is set by a call to {approve}. `value` is the new allowance."
					},
					"Transfer(address,address,uint256)": {
						"details": "Emitted when `value` tokens are moved from one account (`from`) to another (`to`). Note that `value` may be zero."
					}
				},
				"kind": "dev",
				"methods": {
					"allowance(address,address)": {
						"details": "See {IERC20-allowance}."
					},
					"approve(address,uint256)": {
						"details": "See {IERC20-approve}. NOTE: If `value` is the maximum `uint256`, the allowance is not updated on `transferFrom`. This is semantically equivalent to an infinite approval. Requirements: - `spender` cannot be the zero address."
					},
					"balanceOf(address)": {
						"details": "See {IERC20-balanceOf}."
					},
					"decimals()": {
						"details": "Returns the number of decimals used to get its user representation. For example, if `decimals` equals `2`, a balance of `505` tokens should be displayed to a user as `5.05` (`505 / 10 ** 2`). Tokens usually opt for a value of 18, imitating the relationship between Ether and Wei. This is the default value returned by this function, unless it's overridden. NOTE: This information is only used for _display_ purposes: it in no way affects any of the arithmetic of the contract, including {IERC20-balanceOf} and {IERC20-transfer}."
					},
					"name()": {
						"details": "Returns the name of the token."
					},
					"symbol()": {
						"details": "Returns the symbol of the token, usually a shorter version of the name."
					},
					"totalSupply()": {
						"details": "See {IERC20-totalSupply}."
					},
					"transfer(address,uint256)": {
						"details": "See {IERC20-transfer}. Requirements: - `to` cannot be the zero address. - the caller must have a balance of at least `value`."
					},
					"transferFrom(address,address,uint256)": {
						"details": "See {IERC20-transferFrom}. Emits an {Approval} event indicating the updated allowance. This is not required by the EIP. See the note at the beginning of {ERC20}. NOTE: Does not update the allowance if the current allowance is the maximum `uint256`. Requirements: - `from` and `to` cannot be the zero address. - `from` must have a balance of at least `value`. - the caller must have allowance for ``from``'s tokens of at least `value`."
					}
				},
				"version": 1
			},
			"evm": {
				"assembly": "    /* \"Task3/wrap and unwrap token.sol\":119:607  contract WrappedEMP is ERC20 {... */\n  mstore(0x40, 0x80)\n    /* \"Task3/wrap and unwrap token.sol\":185:305  constructor(address _empTokenAddress) ERC20(\"Wrapped EMP\", \"WEMP\") {... */\n  callvalue\n  dup1\n  iszero\n  tag_1\n  jumpi\n  0x00\n  dup1\n  revert\ntag_1:\n  pop\n  mload(0x40)\n  sub(codesize, bytecodeSize)\n  dup1\n  bytecodeSize\n  dup4\n  codecopy\n  dup2\n  dup2\n  add\n  0x40\n  mstore\n  dup2\n  add\n  swap1\n  tag_2\n  swap2\n  swap1\n  tag_3\n  jump\t// in\ntag_2:\n    /* \"@openzeppelin/contracts/token/ERC20/ERC20.sol\":1896:2009  constructor(string memory name_, string memory symbol_) {... */\n  mload(0x40)\n  dup1\n  0x40\n  add\n  0x40\n  mstore\n  dup1\n  0x0b\n  dup2\n  mstore\n  0x20\n  add\n  0x5772617070656420454d50000000000000000000000000000000000000000000\n  dup2\n  mstore\n  pop\n  mload(0x40)\n  dup1\n  0x40\n  add\n  0x40\n  mstore\n  dup1\n  0x04\n  dup2\n  mstore\n  0x20\n  add\n  0x57454d5000000000000000000000000000000000000000000000000000000000\n  dup2\n  mstore\n  pop\n    /* \"@openzeppelin/contracts/token/ERC20/ERC20.sol\":1970:1975  name_ */\n  dup2\n    /* \"@openzeppelin/contracts/token/ERC20/ERC20.sol\":1962:1967  _name */\n  0x03\n    /* \"@openzeppelin/contracts/token/ERC20/ERC20.sol\":1962:1975  _name = name_ */\n  swap1\n  dup2\n  tag_7\n  swap2\n  swap1\n  tag_8\n  jump\t// in\ntag_7:\n  pop\n    /* \"@openzeppelin/contracts/token/ERC20/ERC20.sol\":1995:2002  symbol_ */\n  dup1\n    /* \"@openzeppelin/contracts/token/ERC20/ERC20.sol\":1985:1992  _symbol */\n  0x04\n    /* \"@openzeppelin/contracts/token/ERC20/ERC20.sol\":1985:2002  _symbol = symbol_ */\n  swap1\n  dup2\n  tag_9\n  swap2\n  swap1\n  tag_8\n  jump\t// in\ntag_9:\n  pop\n    /* \"@openzeppelin/contracts/token/ERC20/ERC20.sol\":1896:2009  constructor(string memory name_, string memory symbol_) {... */\n  pop\n  pop\n    /* \"Task3/wrap and unwrap token.sol\":280:296  _empTokenAddress */\n  dup1\n    /* \"Task3/wrap and unwrap token.sol\":263:271  empToken */\n  0x05\n  0x00\n    /* \"Task3/wrap and unwrap token.sol\":263:297  empToken = ERC20(_empTokenAddress) */\n  0x0100\n  exp\n  dup2\n  sload\n  dup2\n  0xffffffffffffffffffffffffffffffffffffffff\n  mul\n  not\n  and\n  swap1\n  dup4\n  0xffffffffffffffffffffffffffffffffffffffff\n  and\n  mul\n  or\n  swap1\n  sstore\n  pop\n    /* \"Task3/wrap and unwrap token.sol\":185:305  constructor(address _empTokenAddress) ERC20(\"Wrapped EMP\", \"WEMP\") {... */\n  pop\n    /* \"Task3/wrap and unwrap token.sol\":119:607  contract WrappedEMP is ERC20 {... */\n  jump(tag_11)\n    /* \"#utility.yul\":88:205   */\ntag_13:\n    /* \"#utility.yul\":197:198   */\n  0x00\n    /* \"#utility.yul\":194:195   */\n  dup1\n    /* \"#utility.yul\":187:199   */\n  revert\n    /* \"#utility.yul\":334:460   */\ntag_15:\n    /* \"#utility.yul\":371:378   */\n  0x00\n    /* \"#utility.yul\":411:453   */\n  0xffffffffffffffffffffffffffffffffffffffff\n    /* \"#utility.yul\":404:409   */\n  dup3\n    /* \"#utility.yul\":400:454   */\n  and\n    /* \"#utility.yul\":389:454   */\n  swap1\n  pop\n    /* \"#utility.yul\":334:460   */\n  swap2\n  swap1\n  pop\n  jump\t// out\n    /* \"#utility.yul\":466:562   */\ntag_16:\n    /* \"#utility.yul\":503:510   */\n  0x00\n    /* \"#utility.yul\":532:556   */\n  tag_45\n    /* \"#utility.yul\":550:555   */\n  dup3\n    /* \"#utility.yul\":532:556   */\n  tag_15\n  jump\t// in\ntag_45:\n    /* \"#utility.yul\":521:556   */\n  swap1\n  pop\n    /* \"#utility.yul\":466:562   */\n  swap2\n  swap1\n  pop\n  jump\t// out\n    /* \"#utility.yul\":568:690   */\ntag_17:\n    /* \"#utility.yul\":641:665   */\n  tag_47\n    /* \"#utility.yul\":659:664   */\n  dup2\n    /* \"#utility.yul\":641:665   */\n  tag_16\n  jump\t// in\ntag_47:\n    /* \"#utility.yul\":634:639   */\n  dup2\n    /* \"#utility.yul\":631:666   */\n  eq\n    /* \"#utility.yul\":621:684   */\n  tag_48\n  jumpi\n    /* \"#utility.yul\":680:681   */\n  0x00\n    /* \"#utility.yul\":677:678   */\n  dup1\n    /* \"#utility.yul\":670:682   */\n  revert\n    /* \"#utility.yul\":621:684   */\ntag_48:\n    /* \"#utility.yul\":568:690   */\n  pop\n  jump\t// out\n    /* \"#utility.yul\":696:839   */\ntag_18:\n    /* \"#utility.yul\":753:758   */\n  0x00\n    /* \"#utility.yul\":784:790   */\n  dup2\n    /* \"#utility.yul\":778:791   */\n  mload\n    /* \"#utility.yul\":769:791   */\n  swap1\n  pop\n    /* \"#utility.yul\":800:833   */\n  tag_50\n    /* \"#utility.yul\":827:832   */\n  dup2\n    /* \"#utility.yul\":800:833   */\n  tag_17\n  jump\t// in\ntag_50:\n    /* \"#utility.yul\":696:839   */\n  swap3\n  swap2\n  pop\n  pop\n  jump\t// out\n    /* \"#utility.yul\":845:1196   */\ntag_3:\n    /* \"#utility.yul\":915:921   */\n  0x00\n    /* \"#utility.yul\":964:966   */\n  0x20\n    /* \"#utility.yul\":952:961   */\n  dup3\n    /* \"#utility.yul\":943:950   */\n  dup5\n    /* \"#utility.yul\":939:962   */\n  sub\n    /* \"#utility.yul\":935:967   */\n  slt\n    /* \"#utility.yul\":932:1051   */\n  iszero\n  tag_52\n  jumpi\n    /* \"#utility.yul\":970:1049   */\n  tag_53\n  tag_13\n  jump\t// in\ntag_53:\n    /* \"#utility.yul\":932:1051   */\ntag_52:\n    /* \"#utility.yul\":1090:1091   */\n  0x00\n    /* \"#utility.yul\":1115:1179   */\n  tag_54\n    /* \"#utility.yul\":1171:1178   */\n  dup5\n    /* \"#utility.yul\":1162:1168   */\n  dup3\n    /* \"#utility.yul\":1151:1160   */\n  dup6\n    /* \"#utility.yul\":1147:1169   */\n  add\n    /* \"#utility.yul\":1115:1179   */\n  tag_18\n  jump\t// in\ntag_54:\n    /* \"#utility.yul\":1105:1179   */\n  swap2\n  pop\n    /* \"#utility.yul\":1061:1189   */\n  pop\n    /* \"#utility.yul\":845:1196   */\n  swap3\n  swap2\n  pop\n  pop\n  jump\t// out\n    /* \"#utility.yul\":1202:1301   */\ntag_19:\n    /* \"#utility.yul\":1254:1260   */\n  0x00\n    /* \"#utility.yul\":1288:1293   */\n  dup2\n    /* \"#utility.yul\":1282:1294   */\n  mload\n    /* \"#utility.yul\":1272:1294   */\n  swap1\n  pop\n    /* \"#utility.yul\":1202:1301   */\n  swap2\n  swap1\n  pop\n  jump\t// out\n    /* \"#utility.yul\":1307:1487   */\ntag_20:\n    /* \"#utility.yul\":1355:1432   */\n  0x4e487b7100000000000000000000000000000000000000000000000000000000\n    /* \"#utility.yul\":1352:1353   */\n  0x00\n    /* \"#utility.yul\":1345:1433   */\n  mstore\n    /* \"#utility.yul\":1452:1456   */\n  0x41\n    /* \"#utility.yul\":1449:1450   */\n  0x04\n    /* \"#utility.yul\":1442:1457   */\n  mstore\n    /* \"#utility.yul\":1476:1480   */\n  0x24\n    /* \"#utility.yul\":1473:1474   */\n  0x00\n    /* \"#utility.yul\":1466:1481   */\n  revert\n    /* \"#utility.yul\":1493:1673   */\ntag_21:\n    /* \"#utility.yul\":1541:1618   */\n  0x4e487b7100000000000000000000000000000000000000000000000000000000\n    /* \"#utility.yul\":1538:1539   */\n  0x00\n    /* \"#utility.yul\":1531:1619   */\n  mstore\n    /* \"#utility.yul\":1638:1642   */\n  0x22\n    /* \"#utility.yul\":1635:1636   */\n  0x04\n    /* \"#utility.yul\":1628:1643   */\n  mstore\n    /* \"#utility.yul\":1662:1666   */\n  0x24\n    /* \"#utility.yul\":1659:1660   */\n  0x00\n    /* \"#utility.yul\":1652:1667   */\n  revert\n    /* \"#utility.yul\":1679:1999   */\ntag_22:\n    /* \"#utility.yul\":1723:1729   */\n  0x00\n    /* \"#utility.yul\":1760:1761   */\n  0x02\n    /* \"#utility.yul\":1754:1758   */\n  dup3\n    /* \"#utility.yul\":1750:1762   */\n  div\n    /* \"#utility.yul\":1740:1762   */\n  swap1\n  pop\n    /* \"#utility.yul\":1807:1808   */\n  0x01\n    /* \"#utility.yul\":1801:1805   */\n  dup3\n    /* \"#utility.yul\":1797:1809   */\n  and\n    /* \"#utility.yul\":1828:1846   */\n  dup1\n    /* \"#utility.yul\":1818:1899   */\n  tag_59\n  jumpi\n    /* \"#utility.yul\":1884:1888   */\n  0x7f\n    /* \"#utility.yul\":1876:1882   */\n  dup3\n    /* \"#utility.yul\":1872:1889   */\n  and\n    /* \"#utility.yul\":1862:1889   */\n  swap2\n  pop\n    /* \"#utility.yul\":1818:1899   */\ntag_59:\n    /* \"#utility.yul\":1946:1948   */\n  0x20\n    /* \"#utility.yul\":1938:1944   */\n  dup3\n    /* \"#utility.yul\":1935:1949   */\n  lt\n    /* \"#utility.yul\":1915:1933   */\n  dup2\n    /* \"#utility.yul\":1912:1950   */\n  sub\n    /* \"#utility.yul\":1909:1993   */\n  tag_60\n  jumpi\n    /* \"#utility.yul\":1965:1983   */\n  tag_61\n  tag_21\n  jump\t// in\ntag_61:\n    /* \"#utility.yul\":1909:1993   */\ntag_60:\n    /* \"#utility.yul\":1730:1999   */\n  pop\n    /* \"#utility.yul\":1679:1999   */\n  swap2\n  swap1\n  pop\n  jump\t// out\n    /* \"#utility.yul\":2005:2146   */\ntag_23:\n    /* \"#utility.yul\":2054:2058   */\n  0x00\n    /* \"#utility.yul\":2077:2080   */\n  dup2\n    /* \"#utility.yul\":2069:2080   */\n  swap1\n  pop\n    /* \"#utility.yul\":2100:2103   */\n  dup2\n    /* \"#utility.yul\":2097:2098   */\n  0x00\n    /* \"#utility.yul\":2090:2104   */\n  mstore\n    /* \"#utility.yul\":2134:2138   */\n  0x20\n    /* \"#utility.yul\":2131:2132   */\n  0x00\n    /* \"#utility.yul\":2121:2139   */\n  keccak256\n    /* \"#utility.yul\":2113:2139   */\n  swap1\n  pop\n    /* \"#utility.yul\":2005:2146   */\n  swap2\n  swap1\n  pop\n  jump\t// out\n    /* \"#utility.yul\":2152:2245   */\ntag_24:\n    /* \"#utility.yul\":2189:2195   */\n  0x00\n    /* \"#utility.yul\":2236:2238   */\n  0x20\n    /* \"#utility.yul\":2231:2233   */\n  0x1f\n    /* \"#utility.yul\":2224:2229   */\n  dup4\n    /* \"#utility.yul\":2220:2234   */\n  add\n    /* \"#utility.yul\":2216:2239   */\n  div\n    /* \"#utility.yul\":2206:2239   */\n  swap1\n  pop\n    /* \"#utility.yul\":2152:2245   */\n  swap2\n  swap1\n  pop\n  jump\t// out\n    /* \"#utility.yul\":2251:2358   */\ntag_25:\n    /* \"#utility.yul\":2295:2303   */\n  0x00\n    /* \"#utility.yul\":2345:2350   */\n  dup3\n    /* \"#utility.yul\":2339:2343   */\n  dup3\n    /* \"#utility.yul\":2335:2351   */\n  shl\n    /* \"#utility.yul\":2314:2351   */\n  swap1\n  pop\n    /* \"#utility.yul\":2251:2358   */\n  swap3\n  swap2\n  pop\n  pop\n  jump\t// out\n    /* \"#utility.yul\":2364:2757   */\ntag_26:\n    /* \"#utility.yul\":2433:2439   */\n  0x00\n    /* \"#utility.yul\":2483:2484   */\n  0x08\n    /* \"#utility.yul\":2471:2481   */\n  dup4\n    /* \"#utility.yul\":2467:2485   */\n  mul\n    /* \"#utility.yul\":2506:2603   */\n  tag_66\n    /* \"#utility.yul\":2536:2602   */\n  0xffffffffffffffffffffffffffffffffffffffffffffffffffffffffffffffff\n    /* \"#utility.yul\":2525:2534   */\n  dup3\n    /* \"#utility.yul\":2506:2603   */\n  tag_25\n  jump\t// in\ntag_66:\n    /* \"#utility.yul\":2624:2663   */\n  tag_67\n    /* \"#utility.yul\":2654:2662   */\n  dup7\n    /* \"#utility.yul\":2643:2652   */\n  dup4\n    /* \"#utility.yul\":2624:2663   */\n  tag_25\n  jump\t// in\ntag_67:\n    /* \"#utility.yul\":2612:2663   */\n  swap6\n  pop\n    /* \"#utility.yul\":2696:2700   */\n  dup1\n    /* \"#utility.yul\":2692:2701   */\n  not\n    /* \"#utility.yul\":2685:2690   */\n  dup5\n    /* \"#utility.yul\":2681:2702   */\n  and\n    /* \"#utility.yul\":2672:2702   */\n  swap4\n  pop\n    /* \"#utility.yul\":2745:2749   */\n  dup1\n    /* \"#utility.yul\":2735:2743   */\n  dup7\n    /* \"#utility.yul\":2731:2750   */\n  and\n    /* \"#utility.yul\":2724:2729   */\n  dup5\n    /* \"#utility.yul\":2721:2751   */\n  or\n    /* \"#utility.yul\":2711:2751   */\n  swap3\n  pop\n    /* \"#utility.yul\":2440:2757   */\n  pop\n  pop\n    /* \"#utility.yul\":2364:2757   */\n  swap4\n  swap3\n  pop\n  pop\n  pop\n  jump\t// out\n    /* \"#utility.yul\":2763:2840   */\ntag_27:\n    /* \"#utility.yul\":2800:2807   */\n  0x00\n    /* \"#utility.yul\":2829:2834   */\n  dup2\n    /* \"#utility.yul\":2818:2834   */\n  swap1\n  pop\n    /* \"#utility.yul\":2763:2840   */\n  swap2\n  swap1\n  pop\n  jump\t// out\n    /* \"#utility.yul\":2846:2906   */\ntag_28:\n    /* \"#utility.yul\":2874:2877   */\n  0x00\n    /* \"#utility.yul\":2895:2900   */\n  dup2\n    /* \"#utility.yul\":2888:2900   */\n  swap1\n  pop\n    /* \"#utility.yul\":2846:2906   */\n  swap2\n  swap1\n  pop\n  jump\t// out\n    /* \"#utility.yul\":2912:3054   */\ntag_29:\n    /* \"#utility.yul\":2962:2971   */\n  0x00\n    /* \"#utility.yul\":2995:3048   */\n  tag_71\n    /* \"#utility.yul\":3013:3047   */\n  tag_72\n    /* \"#utility.yul\":3022:3046   */\n  tag_73\n    /* \"#utility.yul\":3040:3045   */\n  dup5\n    /* \"#utility.yul\":3022:3046   */\n  tag_27\n  jump\t// in\ntag_73:\n    /* \"#utility.yul\":3013:3047   */\n  tag_28\n  jump\t// in\ntag_72:\n    /* \"#utility.yul\":2995:3048   */\n  tag_27\n  jump\t// in\ntag_71:\n    /* \"#utility.yul\":2982:3048   */\n  swap1\n  pop\n    /* \"#utility.yul\":2912:3054   */\n  swap2\n  swap1\n  pop\n  jump\t// out\n    /* \"#utility.yul\":3060:3135   */\ntag_30:\n    /* \"#utility.yul\":3103:3106   */\n  0x00\n    /* \"#utility.yul\":3124:3129   */\n  dup2\n    /* \"#utility.yul\":3117:3129   */\n  swap1\n  pop\n    /* \"#utility.yul\":3060:3135   */\n  swap2\n  swap1\n  pop\n  jump\t// out\n    /* \"#utility.yul\":3141:3410   */\ntag_31:\n    /* \"#utility.yul\":3251:3290   */\n  tag_76\n    /* \"#utility.yul\":3282:3289   */\n  dup4\n    /* \"#utility.yul\":3251:3290   */\n  tag_29\n  jump\t// in\ntag_76:\n    /* \"#utility.yul\":3312:3403   */\n  tag_77\n    /* \"#utility.yul\":3361:3402   */\n  tag_78\n    /* \"#utility.yul\":3385:3401   */\n  dup3\n    /* \"#utility.yul\":3361:3402   */\n  tag_30\n  jump\t// in\ntag_78:\n    /* \"#utility.yul\":3353:3359   */\n  dup5\n    /* \"#utility.yul\":3346:3350   */\n  dup5\n    /* \"#utility.yul\":3340:3351   */\n  sload\n    /* \"#utility.yul\":3312:3403   */\n  tag_26\n  jump\t// in\ntag_77:\n    /* \"#utility.yul\":3306:3310   */\n  dup3\n    /* \"#utility.yul\":3299:3404   */\n  sstore\n    /* \"#utility.yul\":3217:3410   */\n  pop\n    /* \"#utility.yul\":3141:3410   */\n  pop\n  pop\n  pop\n  jump\t// out\n    /* \"#utility.yul\":3416:3489   */\ntag_32:\n    /* \"#utility.yul\":3461:3464   */\n  0x00\n    /* \"#utility.yul\":3416:3489   */\n  swap1\n  jump\t// out\n    /* \"#utility.yul\":3495:3684   */\ntag_33:\n    /* \"#utility.yul\":3572:3604   */\n  tag_81\n  tag_32\n  jump\t// in\ntag_81:\n    /* \"#utility.yul\":3613:3678   */\n  tag_82\n    /* \"#utility.yul\":3671:3677   */\n  dup2\n    /* \"#utility.yul\":3663:3669   */\n  dup5\n    /* \"#utility.yul\":3657:3661   */\n  dup5\n    /* \"#utility.yul\":3613:3678   */\n  tag_31\n  jump\t// in\ntag_82:\n    /* \"#utility.yul\":3548:3684   */\n  pop\n    /* \"#utility.yul\":3495:3684   */\n  pop\n  pop\n  jump\t// out\n    /* \"#utility.yul\":3690:3876   */\ntag_34:\n    /* \"#utility.yul\":3750:3870   */\ntag_84:\n    /* \"#utility.yul\":3767:3770   */\n  dup2\n    /* \"#utility.yul\":3760:3765   */\n  dup2\n    /* \"#utility.yul\":3757:3771   */\n  lt\n    /* \"#utility.yul\":3750:3870   */\n  iszero\n  tag_86\n  jumpi\n    /* \"#utility.yul\":3821:3860   */\n  tag_87\n    /* \"#utility.yul\":3858:3859   */\n  0x00\n    /* \"#utility.yul\":3851:3856   */\n  dup3\n    /* \"#utility.yul\":3821:3860   */\n  tag_33\n  jump\t// in\ntag_87:\n    /* \"#utility.yul\":3794:3795   */\n  0x01\n    /* \"#utility.yul\":3787:3792   */\n  dup2\n    /* \"#utility.yul\":3783:3796   */\n  add\n    /* \"#utility.yul\":3774:3796   */\n  swap1\n  pop\n    /* \"#utility.yul\":3750:3870   */\n  jump(tag_84)\ntag_86:\n    /* \"#utility.yul\":3690:3876   */\n  pop\n  pop\n  jump\t// out\n    /* \"#utility.yul\":3882:4425   */\ntag_35:\n    /* \"#utility.yul\":3983:3985   */\n  0x1f\n    /* \"#utility.yul\":3978:3981   */\n  dup3\n    /* \"#utility.yul\":3975:3986   */\n  gt\n    /* \"#utility.yul\":3972:4418   */\n  iszero\n  tag_89\n  jumpi\n    /* \"#utility.yul\":4017:4055   */\n  tag_90\n    /* \"#utility.yul\":4049:4054   */\n  dup2\n    /* \"#utility.yul\":4017:4055   */\n  tag_23\n  jump\t// in\ntag_90:\n    /* \"#utility.yul\":4101:4130   */\n  tag_91\n    /* \"#utility.yul\":4119:4129   */\n  dup5\n    /* \"#utility.yul\":4101:4130   */\n  tag_24\n  jump\t// in\ntag_91:\n    /* \"#utility.yul\":4091:4099   */\n  dup2\n    /* \"#utility.yul\":4087:4131   */\n  add\n    /* \"#utility.yul\":4284:4286   */\n  0x20\n    /* \"#utility.yul\":4272:4282   */\n  dup6\n    /* \"#utility.yul\":4269:4287   */\n  lt\n    /* \"#utility.yul\":4266:4315   */\n  iszero\n  tag_92\n  jumpi\n    /* \"#utility.yul\":4305:4313   */\n  dup2\n    /* \"#utility.yul\":4290:4313   */\n  swap1\n  pop\n    /* \"#utility.yul\":4266:4315   */\ntag_92:\n    /* \"#utility.yul\":4328:4408   */\n  tag_93\n    /* \"#utility.yul\":4384:4406   */\n  tag_94\n    /* \"#utility.yul\":4402:4405   */\n  dup6\n    /* \"#utility.yul\":4384:4406   */\n  tag_24\n  jump\t// in\ntag_94:\n    /* \"#utility.yul\":4374:4382   */\n  dup4\n    /* \"#utility.yul\":4370:4407   */\n  add\n    /* \"#utility.yul\":4357:4368   */\n  dup3\n    /* \"#utility.yul\":4328:4408   */\n  tag_34\n  jump\t// in\ntag_93:\n    /* \"#utility.yul\":3987:4418   */\n  pop\n  pop\n    /* \"#utility.yul\":3972:4418   */\ntag_89:\n    /* \"#utility.yul\":3882:4425   */\n  pop\n  pop\n  pop\n  jump\t// out\n    /* \"#utility.yul\":4431:4548   */\ntag_36:\n    /* \"#utility.yul\":4485:4493   */\n  0x00\n    /* \"#utility.yul\":4535:4540   */\n  dup3\n    /* \"#utility.yul\":4529:4533   */\n  dup3\n    /* \"#utility.yul\":4525:4541   */\n  shr\n    /* \"#utility.yul\":4504:4541   */\n  swap1\n  pop\n    /* \"#utility.yul\":4431:4548   */\n  swap3\n  swap2\n  pop\n  pop\n  jump\t// out\n    /* \"#utility.yul\":4554:4723   */\ntag_37:\n    /* \"#utility.yul\":4598:4604   */\n  0x00\n    /* \"#utility.yul\":4631:4682   */\n  tag_97\n    /* \"#utility.yul\":4679:4680   */\n  0x00\n    /* \"#utility.yul\":4675:4681   */\n  not\n    /* \"#utility.yul\":4667:4672   */\n  dup5\n    /* \"#utility.yul\":4664:4665   */\n  0x08\n    /* \"#utility.yul\":4660:4673   */\n  mul\n    /* \"#utility.yul\":4631:4682   */\n  tag_36\n  jump\t// in\ntag_97:\n    /* \"#utility.yul\":4627:4683   */\n  not\n    /* \"#utility.yul\":4712:4716   */\n  dup1\n    /* \"#utility.yul\":4706:4710   */\n  dup4\n    /* \"#utility.yul\":4702:4717   */\n  and\n    /* \"#utility.yul\":4692:4717   */\n  swap2\n  pop\n    /* \"#utility.yul\":4605:4723   */\n  pop\n    /* \"#utility.yul\":4554:4723   */\n  swap3\n  swap2\n  pop\n  pop\n  jump\t// out\n    /* \"#utility.yul\":4728:5023   */\ntag_38:\n    /* \"#utility.yul\":4804:4808   */\n  0x00\n    /* \"#utility.yul\":4950:4979   */\n  tag_99\n    /* \"#utility.yul\":4975:4978   */\n  dup4\n    /* \"#utility.yul\":4969:4973   */\n  dup4\n    /* \"#utility.yul\":4950:4979   */\n  tag_37\n  jump\t// in\ntag_99:\n    /* \"#utility.yul\":4942:4979   */\n  swap2\n  pop\n    /* \"#utility.yul\":5012:5015   */\n  dup3\n    /* \"#utility.yul\":5009:5010   */\n  0x02\n    /* \"#utility.yul\":5005:5016   */\n  mul\n    /* \"#utility.yul\":4999:5003   */\n  dup3\n    /* \"#utility.yul\":4996:5017   */\n  or\n    /* \"#utility.yul\":4988:5017   */\n  swap1\n  pop\n    /* \"#utility.yul\":4728:5023   */\n  swap3\n  swap2\n  pop\n  pop\n  jump\t// out\n    /* \"#utility.yul\":5028:6423   */\ntag_8:\n    /* \"#utility.yul\":5145:5182   */\n  tag_101\n    /* \"#utility.yul\":5178:5181   */\n  dup3\n    /* \"#utility.yul\":5145:5182   */\n  tag_19\n  jump\t// in\ntag_101:\n    /* \"#utility.yul\":5247:5265   */\n  0xffffffffffffffff\n    /* \"#utility.yul\":5239:5245   */\n  dup2\n    /* \"#utility.yul\":5236:5266   */\n  gt\n    /* \"#utility.yul\":5233:5289   */\n  iszero\n  tag_102\n  jumpi\n    /* \"#utility.yul\":5269:5287   */\n  tag_103\n  tag_20\n  jump\t// in\ntag_103:\n    /* \"#utility.yul\":5233:5289   */\ntag_102:\n    /* \"#utility.yul\":5313:5351   */\n  tag_104\n    /* \"#utility.yul\":5345:5349   */\n  dup3\n    /* \"#utility.yul\":5339:5350   */\n  sload\n    /* \"#utility.yul\":5313:5351   */\n  tag_22\n  jump\t// in\ntag_104:\n    /* \"#utility.yul\":5398:5465   */\n  tag_105\n    /* \"#utility.yul\":5458:5464   */\n  dup3\n    /* \"#utility.yul\":5450:5456   */\n  dup3\n    /* \"#utility.yul\":5444:5448   */\n  dup6\n    /* \"#utility.yul\":5398:5465   */\n  tag_35\n  jump\t// in\ntag_105:\n    /* \"#utility.yul\":5492:5493   */\n  0x00\n    /* \"#utility.yul\":5516:5520   */\n  0x20\n    /* \"#utility.yul\":5503:5520   */\n  swap1\n  pop\n    /* \"#utility.yul\":5548:5550   */\n  0x1f\n    /* \"#utility.yul\":5540:5546   */\n  dup4\n    /* \"#utility.yul\":5537:5551   */\n  gt\n    /* \"#utility.yul\":5565:5566   */\n  0x01\n    /* \"#utility.yul\":5560:6178   */\n  dup2\n  eq\n  tag_107\n  jumpi\n    /* \"#utility.yul\":6222:6223   */\n  0x00\n    /* \"#utility.yul\":6239:6245   */\n  dup5\n    /* \"#utility.yul\":6236:6313   */\n  iszero\n  tag_108\n  jumpi\n    /* \"#utility.yul\":6288:6297   */\n  dup3\n    /* \"#utility.yul\":6283:6286   */\n  dup8\n    /* \"#utility.yul\":6279:6298   */\n  add\n    /* \"#utility.yul\":6273:6299   */\n  mload\n    /* \"#utility.yul\":6264:6299   */\n  swap1\n  pop\n    /* \"#utility.yul\":6236:6313   */\ntag_108:\n    /* \"#utility.yul\":6339:6406   */\n  tag_109\n    /* \"#utility.yul\":6399:6405   */\n  dup6\n    /* \"#utility.yul\":6392:6397   */\n  dup3\n    /* \"#utility.yul\":6339:6406   */\n  tag_38\n  jump\t// in\ntag_109:\n    /* \"#utility.yul\":6333:6337   */\n  dup7\n    /* \"#utility.yul\":6326:6407   */\n  sstore\n    /* \"#utility.yul\":6195:6417   */\n  pop\n    /* \"#utility.yul\":5530:6417   */\n  jump(tag_106)\n    /* \"#utility.yul\":5560:6178   */\ntag_107:\n    /* \"#utility.yul\":5612:5616   */\n  0x1f\n    /* \"#utility.yul\":5608:5617   */\n  not\n    /* \"#utility.yul\":5600:5606   */\n  dup5\n    /* \"#utility.yul\":5596:5618   */\n  and\n    /* \"#utility.yul\":5646:5683   */\n  tag_110\n    /* \"#utility.yul\":5678:5682   */\n  dup7\n    /* \"#utility.yul\":5646:5683   */\n  tag_23\n  jump\t// in\ntag_110:\n    /* \"#utility.yul\":5705:5706   */\n  0x00\n    /* \"#utility.yul\":5719:5927   */\ntag_111:\n    /* \"#utility.yul\":5733:5740   */\n  dup3\n    /* \"#utility.yul\":5730:5731   */\n  dup2\n    /* \"#utility.yul\":5727:5741   */\n  lt\n    /* \"#utility.yul\":5719:5927   */\n  iszero\n  tag_113\n  jumpi\n    /* \"#utility.yul\":5812:5821   */\n  dup5\n    /* \"#utility.yul\":5807:5810   */\n  dup10\n    /* \"#utility.yul\":5803:5822   */\n  add\n    /* \"#utility.yul\":5797:5823   */\n  mload\n    /* \"#utility.yul\":5789:5795   */\n  dup3\n    /* \"#utility.yul\":5782:5824   */\n  sstore\n    /* \"#utility.yul\":5863:5864   */\n  0x01\n    /* \"#utility.yul\":5855:5861   */\n  dup3\n    /* \"#utility.yul\":5851:5865   */\n  add\n    /* \"#utility.yul\":5841:5865   */\n  swap2\n  pop\n    /* \"#utility.yul\":5910:5912   */\n  0x20\n    /* \"#utility.yul\":5899:5908   */\n  dup6\n    /* \"#utility.yul\":5895:5913   */\n  add\n    /* \"#utility.yul\":5882:5913   */\n  swap5\n  pop\n    /* \"#utility.yul\":5756:5760   */\n  0x20\n    /* \"#utility.yul\":5753:5754   */\n  dup2\n    /* \"#utility.yul\":5749:5761   */\n  add\n    /* \"#utility.yul\":5744:5761   */\n  swap1\n  pop\n    /* \"#utility.yul\":5719:5927   */\n  jump(tag_111)\ntag_113:\n    /* \"#utility.yul\":5955:5961   */\n  dup7\n    /* \"#utility.yul\":5946:5953   */\n  dup4\n    /* \"#utility.yul\":5943:5962   */\n  lt\n    /* \"#utility.yul\":5940:6119   */\n  iszero\n  tag_114\n  jumpi\n    /* \"#utility.yul\":6013:6022   */\n  dup5\n    /* \"#utility.yul\":6008:6011   */\n  dup10\n    /* \"#utility.yul\":6004:6023   */\n  add\n    /* \"#utility.yul\":5998:6024   */\n  mload\n    /* \"#utility.yul\":6056:6104   */\n  tag_115\n    /* \"#utility.yul\":6098:6102   */\n  0x1f\n    /* \"#utility.yul\":6090:6096   */\n  dup10\n    /* \"#utility.yul\":6086:6103   */\n  and\n    /* \"#utility.yul\":6075:6084   */\n  dup3\n    /* \"#utility.yul\":6056:6104   */\n  tag_37\n  jump\t// in\ntag_115:\n    /* \"#utility.yul\":6048:6054   */\n  dup4\n    /* \"#utility.yul\":6041:6105   */\n  sstore\n    /* \"#utility.yul\":5963:6119   */\n  pop\n    /* \"#utility.yul\":5940:6119   */\ntag_114:\n    /* \"#utility.yul\":6165:6166   */\n  0x01\n    /* \"#utility.yul\":6161:6162   */\n  0x02\n    /* \"#utility.yul\":6153:6159   */\n  dup9\n    /* \"#utility.yul\":6149:6163   */\n  mul\n    /* \"#utility.yul\":6145:6167   */\n  add\n    /* \"#utility.yul\":6139:6143   */\n  dup9\n    /* \"#utility.yul\":6132:6168   */\n  sstore\n    /* \"#utility.yul\":5567:6178   */\n  pop\n  pop\n  pop\n    /* \"#utility.yul\":5530:6417   */\ntag_106:\n  pop\n    /* \"#utility.yul\":5120:6423   */\n  pop\n  pop\n  pop\n    /* \"#utility.yul\":5028:6423   */\n  pop\n  pop\n  jump\t// out\n    /* \"Task3/wrap and unwrap token.sol\":119:607  contract WrappedEMP is ERC20 {... */\ntag_11:\n  dataSize(sub_0)\n  dup1\n  dataOffset(sub_0)\n  0x00\n  codecopy\n  0x00\n  return\nstop\n\nsub_0: assembly {\n        /* \"Task3/wrap and unwrap token.sol\":119:607  contract WrappedEMP is ERC20 {... */\n      mstore(0x40, 0x80)\n      callvalue\n      dup1\n      iszero\n      tag_1\n      jumpi\n      0x00\n      dup1\n      revert\n    tag_1:\n      pop\n      jumpi(tag_2, lt(calldatasize, 0x04))\n      shr(0xe0, calldataload(0x00))\n      dup1\n      0x70a08231\n      gt\n      tag_15\n      jumpi\n      dup1\n      0x70a08231\n      eq\n      tag_9\n      jumpi\n      dup1\n      0x95d89b41\n      eq\n      tag_10\n      jumpi\n      dup1\n      0xa9059cbb\n      eq\n      tag_11\n      jumpi\n      dup1\n      0xdd62ed3e\n      eq\n      tag_12\n      jumpi\n      dup1\n      0xde0e9a3e\n      eq\n      tag_13\n      jumpi\n      dup1\n      0xea598cb0\n      eq\n      tag_14\n      jumpi\n      jump(tag_2)\n    tag_15:\n      dup1\n      0x06fdde03\n      eq\n      tag_3\n      jumpi\n      dup1\n      0x07eb1899\n      eq\n      tag_4\n      jumpi\n      dup1\n      0x095ea7b3\n      eq\n      tag_5\n      jumpi\n      dup1\n      0x18160ddd\n      eq\n      tag_6\n      jumpi\n      dup1\n      0x23b872dd\n      eq\n      tag_7\n      jumpi\n      dup1\n      0x313ce567\n      eq\n      tag_8\n      jumpi\n    tag_2:\n      0x00\n      dup1\n      revert\n        /* \"@openzeppelin/contracts/token/ERC20/ERC20.sol\":2074:2163  function name() public view virtual returns (string memory) {... */\n    tag_3:\n      tag_16\n      tag_17\n      jump\t// in\n    tag_16:\n      mload(0x40)\n      tag_18\n      swap2\n      swap1\n      tag_19\n      jump\t// in\n    tag_18:\n      mload(0x40)\n      dup1\n      swap2\n      sub\n      swap1\n      return\n        /* \"Task3/wrap and unwrap token.sol\":155:176  ERC20 public empToken */\n    tag_4:\n      tag_20\n      tag_21\n      jump\t// in\n    tag_20:\n      mload(0x40)\n      tag_22\n      swap2\n      swap1\n      tag_23\n      jump\t// in\n    tag_22:\n      mload(0x40)\n      dup1\n      swap2\n      sub\n      swap1\n      return\n        /* \"@openzeppelin/contracts/token/ERC20/ERC20.sol\":4293:4479  function approve(address spender, uint256 value) public virtual returns (bool) {... */\n    tag_5:\n      tag_24\n      0x04\n      dup1\n      calldatasize\n      sub\n      dup2\n      add\n      swap1\n      tag_25\n      swap2\n      swap1\n      tag_26\n      jump\t// in\n    tag_25:\n      tag_27\n      jump\t// in\n    tag_24:\n      mload(0x40)\n      tag_28\n      swap2\n      swap1\n      tag_29\n      jump\t// in\n    tag_28:\n      mload(0x40)\n      dup1\n      swap2\n      sub\n      swap1\n      return\n        /* \"@openzeppelin/contracts/token/ERC20/ERC20.sol\":3144:3241  function totalSupply() public view virtual returns (uint256) {... */\n    tag_6:\n      tag_30\n      tag_31\n      jump\t// in\n    tag_30:\n      mload(0x40)\n      tag_32\n      swap2\n      swap1\n      tag_33\n      jump\t// in\n    tag_32:\n      mload(0x40)\n      dup1\n      swap2\n      sub\n      swap1\n      return\n        /* \"@openzeppelin/contracts/token/ERC20/ERC20.sol\":5039:5283  function transferFrom(address from, address to, uint256 value) public virtual returns (bool) {... */\n    tag_7:\n      tag_34\n      0x04\n      dup1\n      calldatasize\n      sub\n      dup2\n      add\n      swap1\n      tag_35\n      swap2\n      swap1\n      tag_36\n      jump\t// in\n    tag_35:\n      tag_37\n      jump\t// in\n    tag_34:\n      mload(0x40)\n      tag_38\n      swap2\n      swap1\n      tag_29\n      jump\t// in\n    tag_38:\n      mload(0x40)\n      dup1\n      swap2\n      sub\n      swap1\n      return\n        /* \"@openzeppelin/contracts/token/ERC20/ERC20.sol\":3002:3084  function decimals() public view virtual returns (uint8) {... */\n    tag_8:\n      tag_39\n      tag_40\n      jump\t// in\n    tag_39:\n      mload(0x40)\n      tag_41\n      swap2\n      swap1\n      tag_42\n      jump\t// in\n    tag_41:\n      mload(0x40)\n      dup1\n      swap2\n      sub\n      swap1\n      return\n        /* \"@openzeppelin/contracts/token/ERC20/ERC20.sol\":3299:3415  function balanceOf(address account) public view virtual returns (uint256) {... */\n    tag_9:\n      tag_43\n      0x04\n      dup1\n      calldatasize\n      sub\n      dup2\n      add\n      swap1\n      tag_44\n      swap2\n      swap1\n      tag_45\n      jump\t// in\n    tag_44:\n      tag_46\n      jump\t// in\n    tag_43:\n      mload(0x40)\n      tag_47\n      swap2\n      swap1\n      tag_33\n      jump\t// in\n    tag_47:\n      mload(0x40)\n      dup1\n      swap2\n      sub\n      swap1\n      return\n        /* \"@openzeppelin/contracts/token/ERC20/ERC20.sol\":2276:2369  function symbol() public view virtual returns (string memory) {... */\n    tag_10:\n      tag_48\n      tag_49\n      jump\t// in\n    tag_48:\n      mload(0x40)\n      tag_50\n      swap2\n      swap1\n      tag_19\n      jump\t// in\n    tag_50:\n      mload(0x40)\n      dup1\n      swap2\n      sub\n      swap1\n      return\n        /* \"@openzeppelin/contracts/token/ERC20/ERC20.sol\":3610:3788  function transfer(address to, uint256 value) public virtual returns (bool) {... */\n    tag_11:\n      tag_51\n      0x04\n      dup1\n      calldatasize\n      sub\n      dup2\n      add\n      swap1\n      tag_52\n      swap2\n      swap1\n      tag_26\n      jump\t// in\n    tag_52:\n      tag_53\n      jump\t// in\n    tag_51:\n      mload(0x40)\n      tag_54\n      swap2\n      swap1\n      tag_29\n      jump\t// in\n    tag_54:\n      mload(0x40)\n      dup1\n      swap2\n      sub\n      swap1\n      return\n        /* \"@openzeppelin/contracts/token/ERC20/ERC20.sol\":3846:3986  function allowance(address owner, address spender) public view virtual returns (uint256) {... */\n    tag_12:\n      tag_55\n      0x04\n      dup1\n      calldatasize\n      sub\n      dup2\n      add\n      swap1\n      tag_56\n      swap2\n      swap1\n      tag_57\n      jump\t// in\n    tag_56:\n      tag_58\n      jump\t// in\n    tag_55:\n      mload(0x40)\n      tag_59\n      swap2\n      swap1\n      tag_33\n      jump\t// in\n    tag_59:\n      mload(0x40)\n      dup1\n      swap2\n      sub\n      swap1\n      return\n        /* \"Task3/wrap and unwrap token.sol\":471:604  function unwrap(uint256 amount) external {... */\n    tag_13:\n      tag_60\n      0x04\n      dup1\n      calldatasize\n      sub\n      dup2\n      add\n      swap1\n      tag_61\n      swap2\n      swap1\n      tag_62\n      jump\t// in\n    tag_61:\n      tag_63\n      jump\t// in\n    tag_60:\n      stop\n        /* \"Task3/wrap and unwrap token.sol\":313:463  function wrap(uint256 amount) external {... */\n    tag_14:\n      tag_64\n      0x04\n      dup1\n      calldatasize\n      sub\n      dup2\n      add\n      swap1\n      tag_65\n      swap2\n      swap1\n      tag_62\n      jump\t// in\n    tag_65:\n      tag_66\n      jump\t// in\n    tag_64:\n      stop\n        /* \"@openzeppelin/contracts/token/ERC20/ERC20.sol\":2074:2163  function name() public view virtual returns (string memory) {... */\n    tag_17:\n        /* \"@openzeppelin/contracts/token/ERC20/ERC20.sol\":2119:2132  string memory */\n      0x60\n        /* \"@openzeppelin/contracts/token/ERC20/ERC20.sol\":2151:2156  _name */\n      0x03\n        /* \"@openzeppelin/contracts/token/ERC20/ERC20.sol\":2144:2156  return _name */\n      dup1\n      sload\n      tag_68\n      swap1\n      tag_69\n      jump\t// in\n    tag_68:\n      dup1\n      0x1f\n      add\n      0x20\n      dup1\n      swap2\n      div\n      mul\n      0x20\n      add\n      mload(0x40)\n      swap1\n      dup2\n      add\n      0x40\n      mstore\n      dup1\n      swap3\n      swap2\n      swap1\n      dup2\n      dup2\n      mstore\n      0x20\n      add\n      dup3\n      dup1\n      sload\n      tag_70\n      swap1\n      tag_69\n      jump\t// in\n    tag_70:\n      dup1\n      iszero\n      tag_71\n      jumpi\n      dup1\n      0x1f\n      lt\n      tag_72\n      jumpi\n      0x0100\n      dup1\n      dup4\n      sload\n      div\n      mul\n      dup4\n      mstore\n      swap2\n      0x20\n      add\n      swap2\n      jump(tag_71)\n    tag_72:\n      dup3\n      add\n      swap2\n      swap1\n      0x00\n      mstore\n      keccak256(0x00, 0x20)\n      swap1\n    tag_73:\n      dup2\n      sload\n      dup2\n      mstore\n      swap1\n      0x01\n      add\n      swap1\n      0x20\n      add\n      dup1\n      dup4\n      gt\n      tag_73\n      jumpi\n      dup3\n      swap1\n      sub\n      0x1f\n      and\n      dup3\n      add\n      swap2\n    tag_71:\n      pop\n      pop\n      pop\n      pop\n      pop\n      swap1\n      pop\n        /* \"@openzeppelin/contracts/token/ERC20/ERC20.sol\":2074:2163  function name() public view virtual returns (string memory) {... */\n      swap1\n      jump\t// out\n        /* \"Task3/wrap and unwrap token.sol\":155:176  ERC20 public empToken */\n    tag_21:\n      0x05\n      0x00\n      swap1\n      sload\n      swap1\n      0x0100\n      exp\n      swap1\n      div\n      0xffffffffffffffffffffffffffffffffffffffff\n      and\n      dup2\n      jump\t// out\n        /* \"@openzeppelin/contracts/token/ERC20/ERC20.sol\":4293:4479  function approve(address spender, uint256 value) public virtual returns (bool) {... */\n    tag_27:\n        /* \"@openzeppelin/contracts/token/ERC20/ERC20.sol\":4366:4370  bool */\n      0x00\n        /* \"@openzeppelin/contracts/token/ERC20/ERC20.sol\":4382:4395  address owner */\n      dup1\n        /* \"@openzeppelin/contracts/token/ERC20/ERC20.sol\":4398:4410  _msgSender() */\n      tag_75\n        /* \"@openzeppelin/contracts/token/ERC20/ERC20.sol\":4398:4408  _msgSender */\n      tag_76\n        /* \"@openzeppelin/contracts/token/ERC20/ERC20.sol\":4398:4410  _msgSender() */\n      jump\t// in\n    tag_75:\n        /* \"@openzeppelin/contracts/token/ERC20/ERC20.sol\":4382:4410  address owner = _msgSender() */\n      swap1\n      pop\n        /* \"@openzeppelin/contracts/token/ERC20/ERC20.sol\":4420:4451  _approve(owner, spender, value) */\n      tag_77\n        /* \"@openzeppelin/contracts/token/ERC20/ERC20.sol\":4429:4434  owner */\n      dup2\n        /* \"@openzeppelin/contracts/token/ERC20/ERC20.sol\":4436:4443  spender */\n      dup6\n        /* \"@openzeppelin/contracts/token/ERC20/ERC20.sol\":4445:4450  value */\n      dup6\n        /* \"@openzeppelin/contracts/token/ERC20/ERC20.sol\":4420:4428  _approve */\n      tag_78\n        /* \"@openzeppelin/contracts/token/ERC20/ERC20.sol\":4420:4451  _approve(owner, spender, value) */\n      jump\t// in\n    tag_77:\n        /* \"@openzeppelin/contracts/token/ERC20/ERC20.sol\":4468:4472  true */\n      0x01\n        /* \"@openzeppelin/contracts/token/ERC20/ERC20.sol\":4461:4472  return true */\n      swap2\n      pop\n      pop\n        /* \"@openzeppelin/contracts/token/ERC20/ERC20.sol\":4293:4479  function approve(address spender, uint256 value) public virtual returns (bool) {... */\n      swap3\n      swap2\n      pop\n      pop\n      jump\t// out\n        /* \"@openzeppelin/contracts/token/ERC20/ERC20.sol\":3144:3241  function totalSupply() public view virtual returns (uint256) {... */\n    tag_31:\n        /* \"@openzeppelin/contracts/token/ERC20/ERC20.sol\":3196:3203  uint256 */\n      0x00\n        /* \"@openzeppelin/contracts/token/ERC20/ERC20.sol\":3222:3234  _totalSupply */\n      sload(0x02)\n        /* \"@openzeppelin/contracts/token/ERC20/ERC20.sol\":3215:3234  return _totalSupply */\n      swap1\n      pop\n        /* \"@openzeppelin/contracts/token/ERC20/ERC20.sol\":3144:3241  function totalSupply() public view virtual returns (uint256) {... */\n      swap1\n      jump\t// out\n        /* \"@openzeppelin/contracts/token/ERC20/ERC20.sol\":5039:5283  function transferFrom(address from, address to, uint256 value) public virtual returns (bool) {... */\n    tag_37:\n        /* \"@openzeppelin/contracts/token/ERC20/ERC20.sol\":5126:5130  bool */\n      0x00\n        /* \"@openzeppelin/contracts/token/ERC20/ERC20.sol\":5142:5157  address spender */\n      dup1\n        /* \"@openzeppelin/contracts/token/ERC20/ERC20.sol\":5160:5172  _msgSender() */\n      tag_81\n        /* \"@openzeppelin/contracts/token/ERC20/ERC20.sol\":5160:5170  _msgSender */\n      tag_76\n        /* \"@openzeppelin/contracts/token/ERC20/ERC20.sol\":5160:5172  _msgSender() */\n      jump\t// in\n    tag_81:\n        /* \"@openzeppelin/contracts/token/ERC20/ERC20.sol\":5142:5172  address spender = _msgSender() */\n      swap1\n      pop\n        /* \"@openzeppelin/contracts/token/ERC20/ERC20.sol\":5182:5219  _spendAllowance(from, spender, value) */\n      tag_82\n        /* \"@openzeppelin/contracts/token/ERC20/ERC20.sol\":5198:5202  from */\n      dup6\n        /* \"@openzeppelin/contracts/token/ERC20/ERC20.sol\":5204:5211  spender */\n      dup3\n        /* \"@openzeppelin/contracts/token/ERC20/ERC20.sol\":5213:5218  value */\n      dup6\n        /* \"@openzeppelin/contracts/token/ERC20/ERC20.sol\":5182:5197  _spendAllowance */\n      tag_83\n        /* \"@openzeppelin/contracts/token/ERC20/ERC20.sol\":5182:5219  _spendAllowance(from, spender, value) */\n      jump\t// in\n    tag_82:\n        /* \"@openzeppelin/contracts/token/ERC20/ERC20.sol\":5229:5255  _transfer(from, to, value) */\n      tag_84\n        /* \"@openzeppelin/contracts/token/ERC20/ERC20.sol\":5239:5243  from */\n      dup6\n        /* \"@openzeppelin/contracts/token/ERC20/ERC20.sol\":5245:5247  to */\n      dup6\n        /* \"@openzeppelin/contracts/token/ERC20/ERC20.sol\":5249:5254  value */\n      dup6\n        /* \"@openzeppelin/contracts/token/ERC20/ERC20.sol\":5229:5238  _transfer */\n      tag_85\n        /* \"@openzeppelin/contracts/token/ERC20/ERC20.sol\":5229:5255  _transfer(from, to, value) */\n      jump\t// in\n    tag_84:\n        /* \"@openzeppelin/contracts/token/ERC20/ERC20.sol\":5272:5276  true */\n      0x01\n        /* \"@openzeppelin/contracts/token/ERC20/ERC20.sol\":5265:5276  return true */\n      swap2\n      pop\n      pop\n        /* \"@openzeppelin/contracts/token/ERC20/ERC20.sol\":5039:5283  function transferFrom(address from, address to, uint256 value) public virtual returns (bool) {... */\n      swap4\n      swap3\n      pop\n      pop\n      pop\n      jump\t// out\n        /* \"@openzeppelin/contracts/token/ERC20/ERC20.sol\":3002:3084  function decimals() public view virtual returns (uint8) {... */\n    tag_40:\n        /* \"@openzeppelin/contracts/token/ERC20/ERC20.sol\":3051:3056  uint8 */\n      0x00\n        /* \"@openzeppelin/contracts/token/ERC20/ERC20.sol\":3075:3077  18 */\n      0x12\n        /* \"@openzeppelin/contracts/token/ERC20/ERC20.sol\":3068:3077  return 18 */\n      swap1\n      pop\n        /* \"@openzeppelin/contracts/token/ERC20/ERC20.sol\":3002:3084  function decimals() public view virtual returns (uint8) {... */\n      swap1\n      jump\t// out\n        /* \"@openzeppelin/contracts/token/ERC20/ERC20.sol\":3299:3415  function balanceOf(address account) public view virtual returns (uint256) {... */\n    tag_46:\n        /* \"@openzeppelin/contracts/token/ERC20/ERC20.sol\":3364:3371  uint256 */\n      0x00\n        /* \"@openzeppelin/contracts/token/ERC20/ERC20.sol\":3390:3399  _balances */\n      dup1\n        /* \"@openzeppelin/contracts/token/ERC20/ERC20.sol\":3390:3408  _balances[account] */\n      0x00\n        /* \"@openzeppelin/contracts/token/ERC20/ERC20.sol\":3400:3407  account */\n      dup4\n        /* \"@openzeppelin/contracts/token/ERC20/ERC20.sol\":3390:3408  _balances[account] */\n      0xffffffffffffffffffffffffffffffffffffffff\n      and\n      0xffffffffffffffffffffffffffffffffffffffff\n      and\n      dup2\n      mstore\n      0x20\n      add\n      swap1\n      dup2\n      mstore\n      0x20\n      add\n      0x00\n      keccak256\n      sload\n        /* \"@openzeppelin/contracts/token/ERC20/ERC20.sol\":3383:3408  return _balances[account] */\n      swap1\n      pop\n        /* \"@openzeppelin/contracts/token/ERC20/ERC20.sol\":3299:3415  function balanceOf(address account) public view virtual returns (uint256) {... */\n      swap2\n      swap1\n      pop\n      jump\t// out\n        /* \"@openzeppelin/contracts/token/ERC20/ERC20.sol\":2276:2369  function symbol() public view virtual returns (string memory) {... */\n    tag_49:\n        /* \"@openzeppelin/contracts/token/ERC20/ERC20.sol\":2323:2336  string memory */\n      0x60\n        /* \"@openzeppelin/contracts/token/ERC20/ERC20.sol\":2355:2362  _symbol */\n      0x04\n        /* \"@openzeppelin/contracts/token/ERC20/ERC20.sol\":2348:2362  return _symbol */\n      dup1\n      sload\n      tag_89\n      swap1\n      tag_69\n      jump\t// in\n    tag_89:\n      dup1\n      0x1f\n      add\n      0x20\n      dup1\n      swap2\n      div\n      mul\n      0x20\n      add\n      mload(0x40)\n      swap1\n      dup2\n      add\n      0x40\n      mstore\n      dup1\n      swap3\n      swap2\n      swap1\n      dup2\n      dup2\n      mstore\n      0x20\n      add\n      dup3\n      dup1\n      sload\n      tag_90\n      swap1\n      tag_69\n      jump\t// in\n    tag_90:\n      dup1\n      iszero\n      tag_91\n      jumpi\n      dup1\n      0x1f\n      lt\n      tag_92\n      jumpi\n      0x0100\n      dup1\n      dup4\n      sload\n      div\n      mul\n      dup4\n      mstore\n      swap2\n      0x20\n      add\n      swap2\n      jump(tag_91)\n    tag_92:\n      dup3\n      add\n      swap2\n      swap1\n      0x00\n      mstore\n      keccak256(0x00, 0x20)\n      swap1\n    tag_93:\n      dup2\n      sload\n      dup2\n      mstore\n      swap1\n      0x01\n      add\n      swap1\n      0x20\n      add\n      dup1\n      dup4\n      gt\n      tag_93\n      jumpi\n      dup3\n      swap1\n      sub\n      0x1f\n      and\n      dup3\n      add\n      swap2\n    tag_91:\n      pop\n      pop\n      pop\n      pop\n      pop\n      swap1\n      pop\n        /* \"@openzeppelin/contracts/token/ERC20/ERC20.sol\":2276:2369  function symbol() public view virtual returns (string memory) {... */\n      swap1\n      jump\t// out\n        /* \"@openzeppelin/contracts/token/ERC20/ERC20.sol\":3610:3788  function transfer(address to, uint256 value) public virtual returns (bool) {... */\n    tag_53:\n        /* \"@openzeppelin/contracts/token/ERC20/ERC20.sol\":3679:3683  bool */\n      0x00\n        /* \"@openzeppelin/contracts/token/ERC20/ERC20.sol\":3695:3708  address owner */\n      dup1\n        /* \"@openzeppelin/contracts/token/ERC20/ERC20.sol\":3711:3723  _msgSender() */\n      tag_95\n        /* \"@openzeppelin/contracts/token/ERC20/ERC20.sol\":3711:3721  _msgSender */\n      tag_76\n        /* \"@openzeppelin/contracts/token/ERC20/ERC20.sol\":3711:3723  _msgSender() */\n      jump\t// in\n    tag_95:\n        /* \"@openzeppelin/contracts/token/ERC20/ERC20.sol\":3695:3723  address owner = _msgSender() */\n      swap1\n      pop\n        /* \"@openzeppelin/contracts/token/ERC20/ERC20.sol\":3733:3760  _transfer(owner, to, value) */\n      tag_96\n        /* \"@openzeppelin/contracts/token/ERC20/ERC20.sol\":3743:3748  owner */\n      dup2\n        /* \"@openzeppelin/contracts/token/ERC20/ERC20.sol\":3750:3752  to */\n      dup6\n        /* \"@openzeppelin/contracts/token/ERC20/ERC20.sol\":3754:3759  value */\n      dup6\n        /* \"@openzeppelin/contracts/token/ERC20/ERC20.sol\":3733:3742  _transfer */\n      tag_85\n        /* \"@openzeppelin/contracts/token/ERC20/ERC20.sol\":3733:3760  _transfer(owner, to, value) */\n      jump\t// in\n    tag_96:\n        /* \"@openzeppelin/contracts/token/ERC20/ERC20.sol\":3777:3781  true */\n      0x01\n        /* \"@openzeppelin/contracts/token/ERC20/ERC20.sol\":3770:3781  return true */\n      swap2\n      pop\n      pop\n        /* \"@openzeppelin/contracts/token/ERC20/ERC20.sol\":3610:3788  function transfer(address to, uint256 value) public virtual returns (bool) {... */\n      swap3\n      swap2\n      pop\n      pop\n      jump\t// out\n        /* \"@openzeppelin/contracts/token/ERC20/ERC20.sol\":3846:3986  function allowance(address owner, address spender) public view virtual returns (uint256) {... */\n    tag_58:\n        /* \"@openzeppelin/contracts/token/ERC20/ERC20.sol\":3926:3933  uint256 */\n      0x00\n        /* \"@openzeppelin/contracts/token/ERC20/ERC20.sol\":3952:3963  _allowances */\n      0x01\n        /* \"@openzeppelin/contracts/token/ERC20/ERC20.sol\":3952:3970  _allowances[owner] */\n      0x00\n        /* \"@openzeppelin/contracts/token/ERC20/ERC20.sol\":3964:3969  owner */\n      dup5\n        /* \"@openzeppelin/contracts/token/ERC20/ERC20.sol\":3952:3970  _allowances[owner] */\n      0xffffffffffffffffffffffffffffffffffffffff\n      and\n      0xffffffffffffffffffffffffffffffffffffffff\n      and\n      dup2\n      mstore\n      0x20\n      add\n      swap1\n      dup2\n      mstore\n      0x20\n      add\n      0x00\n      keccak256\n        /* \"@openzeppelin/contracts/token/ERC20/ERC20.sol\":3952:3979  _allowances[owner][spender] */\n      0x00\n        /* \"@openzeppelin/contracts/token/ERC20/ERC20.sol\":3971:3978  spender */\n      dup4\n        /* \"@openzeppelin/contracts/token/ERC20/ERC20.sol\":3952:3979  _allowances[owner][spender] */\n      0xffffffffffffffffffffffffffffffffffffffff\n      and\n      0xffffffffffffffffffffffffffffffffffffffff\n      and\n      dup2\n      mstore\n      0x20\n      add\n      swap1\n      dup2\n      mstore\n      0x20\n      add\n      0x00\n      keccak256\n      sload\n        /* \"@openzeppelin/contracts/token/ERC20/ERC20.sol\":3945:3979  return _allowances[owner][spender] */\n      swap1\n      pop\n        /* \"@openzeppelin/contracts/token/ERC20/ERC20.sol\":3846:3986  function allowance(address owner, address spender) public view virtual returns (uint256) {... */\n      swap3\n      swap2\n      pop\n      pop\n      jump\t// out\n        /* \"Task3/wrap and unwrap token.sol\":471:604  function unwrap(uint256 amount) external {... */\n    tag_63:\n        /* \"Task3/wrap and unwrap token.sol\":523:548  _burn(msg.sender, amount) */\n      tag_99\n        /* \"Task3/wrap and unwrap token.sol\":529:539  msg.sender */\n      caller\n        /* \"Task3/wrap and unwrap token.sol\":541:547  amount */\n      dup3\n        /* \"Task3/wrap and unwrap token.sol\":523:528  _burn */\n      tag_100\n        /* \"Task3/wrap and unwrap token.sol\":523:548  _burn(msg.sender, amount) */\n      jump\t// in\n    tag_99:\n        /* \"Task3/wrap and unwrap token.sol\":559:567  empToken */\n      0x05\n      0x00\n      swap1\n      sload\n      swap1\n      0x0100\n      exp\n      swap1\n      div\n      0xffffffffffffffffffffffffffffffffffffffff\n      and\n        /* \"Task3/wrap and unwrap token.sol\":559:576  empToken.transfer */\n      0xffffffffffffffffffffffffffffffffffffffff\n      and\n      0xa9059cbb\n        /* \"Task3/wrap and unwrap token.sol\":577:587  msg.sender */\n      caller\n        /* \"Task3/wrap and unwrap token.sol\":589:595  amount */\n      dup4\n        /* \"Task3/wrap and unwrap token.sol\":559:596  empToken.transfer(msg.sender, amount) */\n      mload(0x40)\n      dup4\n      0xffffffff\n      and\n      0xe0\n      shl\n      dup2\n      mstore\n      0x04\n      add\n      tag_101\n      swap3\n      swap2\n      swap1\n      tag_102\n      jump\t// in\n    tag_101:\n      0x20\n      mload(0x40)\n      dup1\n      dup4\n      sub\n      dup2\n      0x00\n      dup8\n      gas\n      call\n      iszero\n      dup1\n      iszero\n      tag_104\n      jumpi\n      returndatasize\n      0x00\n      dup1\n      returndatacopy\n      revert(0x00, returndatasize)\n    tag_104:\n      pop\n      pop\n      pop\n      pop\n      mload(0x40)\n      returndatasize\n      not(0x1f)\n      0x1f\n      dup3\n      add\n      and\n      dup3\n      add\n      dup1\n      0x40\n      mstore\n      pop\n      dup2\n      add\n      swap1\n      tag_105\n      swap2\n      swap1\n      tag_106\n      jump\t// in\n    tag_105:\n      pop\n        /* \"Task3/wrap and unwrap token.sol\":471:604  function unwrap(uint256 amount) external {... */\n      pop\n      jump\t// out\n        /* \"Task3/wrap and unwrap token.sol\":313:463  function wrap(uint256 amount) external {... */\n    tag_66:\n        /* \"Task3/wrap and unwrap token.sol\":363:371  empToken */\n      0x05\n      0x00\n      swap1\n      sload\n      swap1\n      0x0100\n      exp\n      swap1\n      div\n      0xffffffffffffffffffffffffffffffffffffffff\n      and\n        /* \"Task3/wrap and unwrap token.sol\":363:384  empToken.transferFrom */\n      0xffffffffffffffffffffffffffffffffffffffff\n      and\n      0x23b872dd\n        /* \"Task3/wrap and unwrap token.sol\":385:395  msg.sender */\n      caller\n        /* \"Task3/wrap and unwrap token.sol\":405:409  this */\n      address\n        /* \"Task3/wrap and unwrap token.sol\":412:418  amount */\n      dup5\n        /* \"Task3/wrap and unwrap token.sol\":363:419  empToken.transferFrom(msg.sender, address(this), amount) */\n      mload(0x40)\n      dup5\n      0xffffffff\n      and\n      0xe0\n      shl\n      dup2\n      mstore\n      0x04\n      add\n      tag_108\n      swap4\n      swap3\n      swap2\n      swap1\n      tag_109\n      jump\t// in\n    tag_108:\n      0x20\n      mload(0x40)\n      dup1\n      dup4\n      sub\n      dup2\n      0x00\n      dup8\n      gas\n      call\n      iszero\n      dup1\n      iszero\n      tag_111\n      jumpi\n      returndatasize\n      0x00\n      dup1\n      returndatacopy\n      revert(0x00, returndatasize)\n    tag_111:\n      pop\n      pop\n      pop\n      pop\n      mload(0x40)\n      returndatasize\n      not(0x1f)\n      0x1f\n      dup3\n      add\n      and\n      dup3\n      add\n      dup1\n      0x40\n      mstore\n      pop\n      dup2\n      add\n      swap1\n      tag_112\n      swap2\n      swap1\n      tag_106\n      jump\t// in\n    tag_112:\n      pop\n        /* \"Task3/wrap and unwrap token.sol\":430:455  _mint(msg.sender, amount) */\n      tag_113\n        /* \"Task3/wrap and unwrap token.sol\":436:446  msg.sender */\n      caller\n        /* \"Task3/wrap and unwrap token.sol\":448:454  amount */\n      dup3\n        /* \"Task3/wrap and unwrap token.sol\":430:435  _mint */\n      tag_114\n        /* \"Task3/wrap and unwrap token.sol\":430:455  _mint(msg.sender, amount) */\n      jump\t// in\n    tag_113:\n        /* \"Task3/wrap and unwrap token.sol\":313:463  function wrap(uint256 amount) external {... */\n      pop\n      jump\t// out\n        /* \"@openzeppelin/contracts/utils/Context.sol\":656:752  function _msgSender() internal view virtual returns (address) {... */\n    tag_76:\n        /* \"@openzeppelin/contracts/utils/Context.sol\":709:716  address */\n      0x00\n        /* \"@openzeppelin/contracts/utils/Context.sol\":735:745  msg.sender */\n      caller\n        /* \"@openzeppelin/contracts/utils/Context.sol\":728:745  return msg.sender */\n      swap1\n      pop\n        /* \"@openzeppelin/contracts/utils/Context.sol\":656:752  function _msgSender() internal view virtual returns (address) {... */\n      swap1\n      jump\t// out\n        /* \"@openzeppelin/contracts/token/ERC20/ERC20.sol\":8989:9117  function _approve(address owner, address spender, uint256 value) internal {... */\n    tag_78:\n        /* \"@openzeppelin/contracts/token/ERC20/ERC20.sol\":9073:9110  _approve(owner, spender, value, true) */\n      tag_117\n        /* \"@openzeppelin/contracts/token/ERC20/ERC20.sol\":9082:9087  owner */\n      dup4\n        /* \"@openzeppelin/contracts/token/ERC20/ERC20.sol\":9089:9096  spender */\n      dup4\n        /* \"@openzeppelin/contracts/token/ERC20/ERC20.sol\":9098:9103  value */\n      dup4\n        /* \"@openzeppelin/contracts/token/ERC20/ERC20.sol\":9105:9109  true */\n      0x01\n        /* \"@openzeppelin/contracts/token/ERC20/ERC20.sol\":9073:9081  _approve */\n      tag_118\n        /* \"@openzeppelin/contracts/token/ERC20/ERC20.sol\":9073:9110  _approve(owner, spender, value, true) */\n      jump\t// in\n    tag_117:\n        /* \"@openzeppelin/contracts/token/ERC20/ERC20.sol\":8989:9117  function _approve(address owner, address spender, uint256 value) internal {... */\n      pop\n      pop\n      pop\n      jump\t// out\n        /* \"@openzeppelin/contracts/token/ERC20/ERC20.sol\":10663:11140  function _spendAllowance(address owner, address spender, uint256 value) internal virtual {... */\n    tag_83:\n        /* \"@openzeppelin/contracts/token/ERC20/ERC20.sol\":10762:10786  uint256 currentAllowance */\n      0x00\n        /* \"@openzeppelin/contracts/token/ERC20/ERC20.sol\":10789:10814  allowance(owner, spender) */\n      tag_120\n        /* \"@openzeppelin/contracts/token/ERC20/ERC20.sol\":10799:10804  owner */\n      dup5\n        /* \"@openzeppelin/contracts/token/ERC20/ERC20.sol\":10806:10813  spender */\n      dup5\n        /* \"@openzeppelin/contracts/token/ERC20/ERC20.sol\":10789:10798  allowance */\n      tag_58\n        /* \"@openzeppelin/contracts/token/ERC20/ERC20.sol\":10789:10814  allowance(owner, spender) */\n      jump\t// in\n    tag_120:\n        /* \"@openzeppelin/contracts/token/ERC20/ERC20.sol\":10762:10814  uint256 currentAllowance = allowance(owner, spender) */\n      swap1\n      pop\n        /* \"@openzeppelin/contracts/token/ERC20/ERC20.sol\":10848:10865  type(uint256).max */\n      0xffffffffffffffffffffffffffffffffffffffffffffffffffffffffffffffff\n        /* \"@openzeppelin/contracts/token/ERC20/ERC20.sol\":10828:10844  currentAllowance */\n      dup2\n        /* \"@openzeppelin/contracts/token/ERC20/ERC20.sol\":10828:10865  currentAllowance != type(uint256).max */\n      eq\n        /* \"@openzeppelin/contracts/token/ERC20/ERC20.sol\":10824:11134  if (currentAllowance != type(uint256).max) {... */\n      tag_121\n      jumpi\n        /* \"@openzeppelin/contracts/token/ERC20/ERC20.sol\":10904:10909  value */\n      dup2\n        /* \"@openzeppelin/contracts/token/ERC20/ERC20.sol\":10885:10901  currentAllowance */\n      dup2\n        /* \"@openzeppelin/contracts/token/ERC20/ERC20.sol\":10885:10909  currentAllowance < value */\n      lt\n        /* \"@openzeppelin/contracts/token/ERC20/ERC20.sol\":10881:11011  if (currentAllowance < value) {... */\n      iszero\n      tag_122\n      jumpi\n        /* \"@openzeppelin/contracts/token/ERC20/ERC20.sol\":10963:10970  spender */\n      dup3\n        /* \"@openzeppelin/contracts/token/ERC20/ERC20.sol\":10972:10988  currentAllowance */\n      dup2\n        /* \"@openzeppelin/contracts/token/ERC20/ERC20.sol\":10990:10995  value */\n      dup4\n        /* \"@openzeppelin/contracts/token/ERC20/ERC20.sol\":10936:10996  ERC20InsufficientAllowance(spender, currentAllowance, value) */\n      mload(0x40)\n      0xfb8f41b200000000000000000000000000000000000000000000000000000000\n      dup2\n      mstore\n      0x04\n      add\n      tag_123\n      swap4\n      swap3\n      swap2\n      swap1\n      tag_124\n      jump\t// in\n    tag_123:\n      mload(0x40)\n      dup1\n      swap2\n      sub\n      swap1\n      revert\n        /* \"@openzeppelin/contracts/token/ERC20/ERC20.sol\":10881:11011  if (currentAllowance < value) {... */\n    tag_122:\n        /* \"@openzeppelin/contracts/token/ERC20/ERC20.sol\":11052:11109  _approve(owner, spender, currentAllowance - value, false) */\n      tag_125\n        /* \"@openzeppelin/contracts/token/ERC20/ERC20.sol\":11061:11066  owner */\n      dup5\n        /* \"@openzeppelin/contracts/token/ERC20/ERC20.sol\":11068:11075  spender */\n      dup5\n        /* \"@openzeppelin/contracts/token/ERC20/ERC20.sol\":11096:11101  value */\n      dup5\n        /* \"@openzeppelin/contracts/token/ERC20/ERC20.sol\":11077:11093  currentAllowance */\n      dup5\n        /* \"@openzeppelin/contracts/token/ERC20/ERC20.sol\":11077:11101  currentAllowance - value */\n      sub\n        /* \"@openzeppelin/contracts/token/ERC20/ERC20.sol\":11103:11108  false */\n      0x00\n        /* \"@openzeppelin/contracts/token/ERC20/ERC20.sol\":11052:11060  _approve */\n      tag_118\n        /* \"@openzeppelin/contracts/token/ERC20/ERC20.sol\":11052:11109  _approve(owner, spender, currentAllowance - value, false) */\n      jump\t// in\n    tag_125:\n        /* \"@openzeppelin/contracts/token/ERC20/ERC20.sol\":10824:11134  if (currentAllowance != type(uint256).max) {... */\n    tag_121:\n        /* \"@openzeppelin/contracts/token/ERC20/ERC20.sol\":10752:11140  {... */\n      pop\n        /* \"@openzeppelin/contracts/token/ERC20/ERC20.sol\":10663:11140  function _spendAllowance(address owner, address spender, uint256 value) internal virtual {... */\n      pop\n      pop\n      pop\n      jump\t// out\n        /* \"@openzeppelin/contracts/token/ERC20/ERC20.sol\":5656:5956  function _transfer(address from, address to, uint256 value) internal {... */\n    tag_85:\n        /* \"@openzeppelin/contracts/token/ERC20/ERC20.sol\":5755:5756  0 */\n      0x00\n        /* \"@openzeppelin/contracts/token/ERC20/ERC20.sol\":5739:5757  from == address(0) */\n      0xffffffffffffffffffffffffffffffffffffffff\n      and\n        /* \"@openzeppelin/contracts/token/ERC20/ERC20.sol\":5739:5743  from */\n      dup4\n        /* \"@openzeppelin/contracts/token/ERC20/ERC20.sol\":5739:5757  from == address(0) */\n      0xffffffffffffffffffffffffffffffffffffffff\n      and\n      sub\n        /* \"@openzeppelin/contracts/token/ERC20/ERC20.sol\":5735:5821  if (from == address(0)) {... */\n      tag_127\n      jumpi\n        /* \"@openzeppelin/contracts/token/ERC20/ERC20.sol\":5807:5808  0 */\n      0x00\n        /* \"@openzeppelin/contracts/token/ERC20/ERC20.sol\":5780:5810  ERC20InvalidSender(address(0)) */\n      mload(0x40)\n      0x96c6fd1e00000000000000000000000000000000000000000000000000000000\n      dup2\n      mstore\n      0x04\n      add\n      tag_128\n      swap2\n      swap1\n      tag_129\n      jump\t// in\n    tag_128:\n      mload(0x40)\n      dup1\n      swap2\n      sub\n      swap1\n      revert\n        /* \"@openzeppelin/contracts/token/ERC20/ERC20.sol\":5735:5821  if (from == address(0)) {... */\n    tag_127:\n        /* \"@openzeppelin/contracts/token/ERC20/ERC20.sol\":5848:5849  0 */\n      0x00\n        /* \"@openzeppelin/contracts/token/ERC20/ERC20.sol\":5834:5850  to == address(0) */\n      0xffffffffffffffffffffffffffffffffffffffff\n      and\n        /* \"@openzeppelin/contracts/token/ERC20/ERC20.sol\":5834:5836  to */\n      dup3\n        /* \"@openzeppelin/contracts/token/ERC20/ERC20.sol\":5834:5850  to == address(0) */\n      0xffffffffffffffffffffffffffffffffffffffff\n      and\n      sub\n        /* \"@openzeppelin/contracts/token/ERC20/ERC20.sol\":5830:5916  if (to == address(0)) {... */\n      tag_130\n      jumpi\n        /* \"@openzeppelin/contracts/token/ERC20/ERC20.sol\":5902:5903  0 */\n      0x00\n        /* \"@openzeppelin/contracts/token/ERC20/ERC20.sol\":5873:5905  ERC20InvalidReceiver(address(0)) */\n      mload(0x40)\n      0xec442f0500000000000000000000000000000000000000000000000000000000\n      dup2\n      mstore\n      0x04\n      add\n      tag_131\n      swap2\n      swap1\n      tag_129\n      jump\t// in\n    tag_131:\n      mload(0x40)\n      dup1\n      swap2\n      sub\n      swap1\n      revert\n        /* \"@openzeppelin/contracts/token/ERC20/ERC20.sol\":5830:5916  if (to == address(0)) {... */\n    tag_130:\n        /* \"@openzeppelin/contracts/token/ERC20/ERC20.sol\":5925:5949  _update(from, to, value) */\n      tag_132\n        /* \"@openzeppelin/contracts/token/ERC20/ERC20.sol\":5933:5937  from */\n      dup4\n        /* \"@openzeppelin/contracts/token/ERC20/ERC20.sol\":5939:5941  to */\n      dup4\n        /* \"@openzeppelin/contracts/token/ERC20/ERC20.sol\":5943:5948  value */\n      dup4\n        /* \"@openzeppelin/contracts/token/ERC20/ERC20.sol\":5925:5932  _update */\n      tag_133\n        /* \"@openzeppelin/contracts/token/ERC20/ERC20.sol\":5925:5949  _update(from, to, value) */\n      jump\t// in\n    tag_132:\n        /* \"@openzeppelin/contracts/token/ERC20/ERC20.sol\":5656:5956  function _transfer(address from, address to, uint256 value) internal {... */\n      pop\n      pop\n      pop\n      jump\t// out\n        /* \"@openzeppelin/contracts/token/ERC20/ERC20.sol\":8247:8453  function _burn(address account, uint256 value) internal {... */\n    tag_100:\n        /* \"@openzeppelin/contracts/token/ERC20/ERC20.sol\":8336:8337  0 */\n      0x00\n        /* \"@openzeppelin/contracts/token/ERC20/ERC20.sol\":8317:8338  account == address(0) */\n      0xffffffffffffffffffffffffffffffffffffffff\n      and\n        /* \"@openzeppelin/contracts/token/ERC20/ERC20.sol\":8317:8324  account */\n      dup3\n        /* \"@openzeppelin/contracts/token/ERC20/ERC20.sol\":8317:8338  account == address(0) */\n      0xffffffffffffffffffffffffffffffffffffffff\n      and\n      sub\n        /* \"@openzeppelin/contracts/token/ERC20/ERC20.sol\":8313:8402  if (account == address(0)) {... */\n      tag_135\n      jumpi\n        /* \"@openzeppelin/contracts/token/ERC20/ERC20.sol\":8388:8389  0 */\n      0x00\n        /* \"@openzeppelin/contracts/token/ERC20/ERC20.sol\":8361:8391  ERC20InvalidSender(address(0)) */\n      mload(0x40)\n      0x96c6fd1e00000000000000000000000000000000000000000000000000000000\n      dup2\n      mstore\n      0x04\n      add\n      tag_136\n      swap2\n      swap1\n      tag_129\n      jump\t// in\n    tag_136:\n      mload(0x40)\n      dup1\n      swap2\n      sub\n      swap1\n      revert\n        /* \"@openzeppelin/contracts/token/ERC20/ERC20.sol\":8313:8402  if (account == address(0)) {... */\n    tag_135:\n        /* \"@openzeppelin/contracts/token/ERC20/ERC20.sol\":8411:8446  _update(account, address(0), value) */\n      tag_137\n        /* \"@openzeppelin/contracts/token/ERC20/ERC20.sol\":8419:8426  account */\n      dup3\n        /* \"@openzeppelin/contracts/token/ERC20/ERC20.sol\":8436:8437  0 */\n      0x00\n        /* \"@openzeppelin/contracts/token/ERC20/ERC20.sol\":8440:8445  value */\n      dup4\n        /* \"@openzeppelin/contracts/token/ERC20/ERC20.sol\":8411:8418  _update */\n      tag_133\n        /* \"@openzeppelin/contracts/token/ERC20/ERC20.sol\":8411:8446  _update(account, address(0), value) */\n      jump\t// in\n    tag_137:\n        /* \"@openzeppelin/contracts/token/ERC20/ERC20.sol\":8247:8453  function _burn(address account, uint256 value) internal {... */\n      pop\n      pop\n      jump\t// out\n        /* \"@openzeppelin/contracts/token/ERC20/ERC20.sol\":7721:7929  function _mint(address account, uint256 value) internal {... */\n    tag_114:\n        /* \"@openzeppelin/contracts/token/ERC20/ERC20.sol\":7810:7811  0 */\n      0x00\n        /* \"@openzeppelin/contracts/token/ERC20/ERC20.sol\":7791:7812  account == address(0) */\n      0xffffffffffffffffffffffffffffffffffffffff\n      and\n        /* \"@openzeppelin/contracts/token/ERC20/ERC20.sol\":7791:7798  account */\n      dup3\n        /* \"@openzeppelin/contracts/token/ERC20/ERC20.sol\":7791:7812  account == address(0) */\n      0xffffffffffffffffffffffffffffffffffffffff\n      and\n      sub\n        /* \"@openzeppelin/contracts/token/ERC20/ERC20.sol\":7787:7878  if (account == address(0)) {... */\n      tag_139\n      jumpi\n        /* \"@openzeppelin/contracts/token/ERC20/ERC20.sol\":7864:7865  0 */\n      0x00\n        /* \"@openzeppelin/contracts/token/ERC20/ERC20.sol\":7835:7867  ERC20InvalidReceiver(address(0)) */\n      mload(0x40)\n      0xec442f0500000000000000000000000000000000000000000000000000000000\n      dup2\n      mstore\n      0x04\n      add\n      tag_140\n      swap2\n      swap1\n      tag_129\n      jump\t// in\n    tag_140:\n      mload(0x40)\n      dup1\n      swap2\n      sub\n      swap1\n      revert\n        /* \"@openzeppelin/contracts/token/ERC20/ERC20.sol\":7787:7878  if (account == address(0)) {... */\n    tag_139:\n        /* \"@openzeppelin/contracts/token/ERC20/ERC20.sol\":7887:7922  _update(address(0), account, value) */\n      tag_141\n        /* \"@openzeppelin/contracts/token/ERC20/ERC20.sol\":7903:7904  0 */\n      0x00\n        /* \"@openzeppelin/contracts/token/ERC20/ERC20.sol\":7907:7914  account */\n      dup4\n        /* \"@openzeppelin/contracts/token/ERC20/ERC20.sol\":7916:7921  value */\n      dup4\n        /* \"@openzeppelin/contracts/token/ERC20/ERC20.sol\":7887:7894  _update */\n      tag_133\n        /* \"@openzeppelin/contracts/token/ERC20/ERC20.sol\":7887:7922  _update(address(0), account, value) */\n      jump\t// in\n    tag_141:\n        /* \"@openzeppelin/contracts/token/ERC20/ERC20.sol\":7721:7929  function _mint(address account, uint256 value) internal {... */\n      pop\n      pop\n      jump\t// out\n        /* \"@openzeppelin/contracts/token/ERC20/ERC20.sol\":9949:10381  function _approve(address owner, address spender, uint256 value, bool emitEvent) internal virtual {... */\n    tag_118:\n        /* \"@openzeppelin/contracts/token/ERC20/ERC20.sol\":10078:10079  0 */\n      0x00\n        /* \"@openzeppelin/contracts/token/ERC20/ERC20.sol\":10061:10080  owner == address(0) */\n      0xffffffffffffffffffffffffffffffffffffffff\n      and\n        /* \"@openzeppelin/contracts/token/ERC20/ERC20.sol\":10061:10066  owner */\n      dup5\n        /* \"@openzeppelin/contracts/token/ERC20/ERC20.sol\":10061:10080  owner == address(0) */\n      0xffffffffffffffffffffffffffffffffffffffff\n      and\n      sub\n        /* \"@openzeppelin/contracts/token/ERC20/ERC20.sol\":10057:10146  if (owner == address(0)) {... */\n      tag_143\n      jumpi\n        /* \"@openzeppelin/contracts/token/ERC20/ERC20.sol\":10132:10133  0 */\n      0x00\n        /* \"@openzeppelin/contracts/token/ERC20/ERC20.sol\":10103:10135  ERC20InvalidApprover(address(0)) */\n      mload(0x40)\n      0xe602df0500000000000000000000000000000000000000000000000000000000\n      dup2\n      mstore\n      0x04\n      add\n      tag_144\n      swap2\n      swap1\n      tag_129\n      jump\t// in\n    tag_144:\n      mload(0x40)\n      dup1\n      swap2\n      sub\n      swap1\n      revert\n        /* \"@openzeppelin/contracts/token/ERC20/ERC20.sol\":10057:10146  if (owner == address(0)) {... */\n    tag_143:\n        /* \"@openzeppelin/contracts/token/ERC20/ERC20.sol\":10178:10179  0 */\n      0x00\n        /* \"@openzeppelin/contracts/token/ERC20/ERC20.sol\":10159:10180  spender == address(0) */\n      0xffffffffffffffffffffffffffffffffffffffff\n      and\n        /* \"@openzeppelin/contracts/token/ERC20/ERC20.sol\":10159:10166  spender */\n      dup4\n        /* \"@openzeppelin/contracts/token/ERC20/ERC20.sol\":10159:10180  spender == address(0) */\n      0xffffffffffffffffffffffffffffffffffffffff\n      and\n      sub\n        /* \"@openzeppelin/contracts/token/ERC20/ERC20.sol\":10155:10245  if (spender == address(0)) {... */\n      tag_145\n      jumpi\n        /* \"@openzeppelin/contracts/token/ERC20/ERC20.sol\":10231:10232  0 */\n      0x00\n        /* \"@openzeppelin/contracts/token/ERC20/ERC20.sol\":10203:10234  ERC20InvalidSpender(address(0)) */\n      mload(0x40)\n      0x94280d6200000000000000000000000000000000000000000000000000000000\n      dup2\n      mstore\n      0x04\n      add\n      tag_146\n      swap2\n      swap1\n      tag_129\n      jump\t// in\n    tag_146:\n      mload(0x40)\n      dup1\n      swap2\n      sub\n      swap1\n      revert\n        /* \"@openzeppelin/contracts/token/ERC20/ERC20.sol\":10155:10245  if (spender == address(0)) {... */\n    tag_145:\n        /* \"@openzeppelin/contracts/token/ERC20/ERC20.sol\":10284:10289  value */\n      dup2\n        /* \"@openzeppelin/contracts/token/ERC20/ERC20.sol\":10254:10265  _allowances */\n      0x01\n        /* \"@openzeppelin/contracts/token/ERC20/ERC20.sol\":10254:10272  _allowances[owner] */\n      0x00\n        /* \"@openzeppelin/contracts/token/ERC20/ERC20.sol\":10266:10271  owner */\n      dup7\n        /* \"@openzeppelin/contracts/token/ERC20/ERC20.sol\":10254:10272  _allowances[owner] */\n      0xffffffffffffffffffffffffffffffffffffffff\n      and\n      0xffffffffffffffffffffffffffffffffffffffff\n      and\n      dup2\n      mstore\n      0x20\n      add\n      swap1\n      dup2\n      mstore\n      0x20\n      add\n      0x00\n      keccak256\n        /* \"@openzeppelin/contracts/token/ERC20/ERC20.sol\":10254:10281  _allowances[owner][spender] */\n      0x00\n        /* \"@openzeppelin/contracts/token/ERC20/ERC20.sol\":10273:10280  spender */\n      dup6\n        /* \"@openzeppelin/contracts/token/ERC20/ERC20.sol\":10254:10281  _allowances[owner][spender] */\n      0xffffffffffffffffffffffffffffffffffffffff\n      and\n      0xffffffffffffffffffffffffffffffffffffffff\n      and\n      dup2\n      mstore\n      0x20\n      add\n      swap1\n      dup2\n      mstore\n      0x20\n      add\n      0x00\n      keccak256\n        /* \"@openzeppelin/contracts/token/ERC20/ERC20.sol\":10254:10289  _allowances[owner][spender] = value */\n      dup2\n      swap1\n      sstore\n      pop\n        /* \"@openzeppelin/contracts/token/ERC20/ERC20.sol\":10303:10312  emitEvent */\n      dup1\n        /* \"@openzeppelin/contracts/token/ERC20/ERC20.sol\":10299:10375  if (emitEvent) {... */\n      iszero\n      tag_147\n      jumpi\n        /* \"@openzeppelin/contracts/token/ERC20/ERC20.sol\":10349:10356  spender */\n      dup3\n        /* \"@openzeppelin/contracts/token/ERC20/ERC20.sol\":10333:10364  Approval(owner, spender, value) */\n      0xffffffffffffffffffffffffffffffffffffffff\n      and\n        /* \"@openzeppelin/contracts/token/ERC20/ERC20.sol\":10342:10347  owner */\n      dup5\n        /* \"@openzeppelin/contracts/token/ERC20/ERC20.sol\":10333:10364  Approval(owner, spender, value) */\n      0xffffffffffffffffffffffffffffffffffffffff\n      and\n      0x8c5be1e5ebec7d5bd14f71427d1e84f3dd0314c0f7b2291e5b200ac8c7c3b925\n        /* \"@openzeppelin/contracts/token/ERC20/ERC20.sol\":10358:10363  value */\n      dup5\n        /* \"@openzeppelin/contracts/token/ERC20/ERC20.sol\":10333:10364  Approval(owner, spender, value) */\n      mload(0x40)\n      tag_148\n      swap2\n      swap1\n      tag_33\n      jump\t// in\n    tag_148:\n      mload(0x40)\n      dup1\n      swap2\n      sub\n      swap1\n      log3\n        /* \"@openzeppelin/contracts/token/ERC20/ERC20.sol\":10299:10375  if (emitEvent) {... */\n    tag_147:\n        /* \"@openzeppelin/contracts/token/ERC20/ERC20.sol\":9949:10381  function _approve(address owner, address spender, uint256 value, bool emitEvent) internal virtual {... */\n      pop\n      pop\n      pop\n      pop\n      jump\t// out\n        /* \"@openzeppelin/contracts/token/ERC20/ERC20.sol\":6271:7378  function _update(address from, address to, uint256 value) internal virtual {... */\n    tag_133:\n        /* \"@openzeppelin/contracts/token/ERC20/ERC20.sol\":6376:6377  0 */\n      0x00\n        /* \"@openzeppelin/contracts/token/ERC20/ERC20.sol\":6360:6378  from == address(0) */\n      0xffffffffffffffffffffffffffffffffffffffff\n      and\n        /* \"@openzeppelin/contracts/token/ERC20/ERC20.sol\":6360:6364  from */\n      dup4\n        /* \"@openzeppelin/contracts/token/ERC20/ERC20.sol\":6360:6378  from == address(0) */\n      0xffffffffffffffffffffffffffffffffffffffff\n      and\n      sub\n        /* \"@openzeppelin/contracts/token/ERC20/ERC20.sol\":6356:6896  if (from == address(0)) {... */\n      tag_150\n      jumpi\n        /* \"@openzeppelin/contracts/token/ERC20/ERC20.sol\":6512:6517  value */\n      dup1\n        /* \"@openzeppelin/contracts/token/ERC20/ERC20.sol\":6496:6508  _totalSupply */\n      0x02\n      0x00\n        /* \"@openzeppelin/contracts/token/ERC20/ERC20.sol\":6496:6517  _totalSupply += value */\n      dup3\n      dup3\n      sload\n      tag_151\n      swap2\n      swap1\n      tag_152\n      jump\t// in\n    tag_151:\n      swap3\n      pop\n      pop\n      dup2\n      swap1\n      sstore\n      pop\n        /* \"@openzeppelin/contracts/token/ERC20/ERC20.sol\":6356:6896  if (from == address(0)) {... */\n      jump(tag_153)\n    tag_150:\n        /* \"@openzeppelin/contracts/token/ERC20/ERC20.sol\":6548:6567  uint256 fromBalance */\n      0x00\n        /* \"@openzeppelin/contracts/token/ERC20/ERC20.sol\":6570:6579  _balances */\n      dup1\n        /* \"@openzeppelin/contracts/token/ERC20/ERC20.sol\":6570:6585  _balances[from] */\n      0x00\n        /* \"@openzeppelin/contracts/token/ERC20/ERC20.sol\":6580:6584  from */\n      dup6\n        /* \"@openzeppelin/contracts/token/ERC20/ERC20.sol\":6570:6585  _balances[from] */\n      0xffffffffffffffffffffffffffffffffffffffff\n      and\n      0xffffffffffffffffffffffffffffffffffffffff\n      and\n      dup2\n      mstore\n      0x20\n      add\n      swap1\n      dup2\n      mstore\n      0x20\n      add\n      0x00\n      keccak256\n      sload\n        /* \"@openzeppelin/contracts/token/ERC20/ERC20.sol\":6548:6585  uint256 fromBalance = _balances[from] */\n      swap1\n      pop\n        /* \"@openzeppelin/contracts/token/ERC20/ERC20.sol\":6617:6622  value */\n      dup2\n        /* \"@openzeppelin/contracts/token/ERC20/ERC20.sol\":6603:6614  fromBalance */\n      dup2\n        /* \"@openzeppelin/contracts/token/ERC20/ERC20.sol\":6603:6622  fromBalance < value */\n      lt\n        /* \"@openzeppelin/contracts/token/ERC20/ERC20.sol\":6599:6714  if (fromBalance < value) {... */\n      iszero\n      tag_154\n      jumpi\n        /* \"@openzeppelin/contracts/token/ERC20/ERC20.sol\":6674:6678  from */\n      dup4\n        /* \"@openzeppelin/contracts/token/ERC20/ERC20.sol\":6680:6691  fromBalance */\n      dup2\n        /* \"@openzeppelin/contracts/token/ERC20/ERC20.sol\":6693:6698  value */\n      dup4\n        /* \"@openzeppelin/contracts/token/ERC20/ERC20.sol\":6649:6699  ERC20InsufficientBalance(from, fromBalance, value) */\n      mload(0x40)\n      0xe450d38c00000000000000000000000000000000000000000000000000000000\n      dup2\n      mstore\n      0x04\n      add\n      tag_155\n      swap4\n      swap3\n      swap2\n      swap1\n      tag_124\n      jump\t// in\n    tag_155:\n      mload(0x40)\n      dup1\n      swap2\n      sub\n      swap1\n      revert\n        /* \"@openzeppelin/contracts/token/ERC20/ERC20.sol\":6599:6714  if (fromBalance < value) {... */\n    tag_154:\n        /* \"@openzeppelin/contracts/token/ERC20/ERC20.sol\":6866:6871  value */\n      dup2\n        /* \"@openzeppelin/contracts/token/ERC20/ERC20.sol\":6852:6863  fromBalance */\n      dup2\n        /* \"@openzeppelin/contracts/token/ERC20/ERC20.sol\":6852:6871  fromBalance - value */\n      sub\n        /* \"@openzeppelin/contracts/token/ERC20/ERC20.sol\":6834:6843  _balances */\n      0x00\n        /* \"@openzeppelin/contracts/token/ERC20/ERC20.sol\":6834:6849  _balances[from] */\n      dup1\n        /* \"@openzeppelin/contracts/token/ERC20/ERC20.sol\":6844:6848  from */\n      dup7\n        /* \"@openzeppelin/contracts/token/ERC20/ERC20.sol\":6834:6849  _balances[from] */\n      0xffffffffffffffffffffffffffffffffffffffff\n      and\n      0xffffffffffffffffffffffffffffffffffffffff\n      and\n      dup2\n      mstore\n      0x20\n      add\n      swap1\n      dup2\n      mstore\n      0x20\n      add\n      0x00\n      keccak256\n        /* \"@openzeppelin/contracts/token/ERC20/ERC20.sol\":6834:6871  _balances[from] = fromBalance - value */\n      dup2\n      swap1\n      sstore\n      pop\n        /* \"@openzeppelin/contracts/token/ERC20/ERC20.sol\":6534:6896  {... */\n      pop\n        /* \"@openzeppelin/contracts/token/ERC20/ERC20.sol\":6356:6896  if (from == address(0)) {... */\n    tag_153:\n        /* \"@openzeppelin/contracts/token/ERC20/ERC20.sol\":6924:6925  0 */\n      0x00\n        /* \"@openzeppelin/contracts/token/ERC20/ERC20.sol\":6910:6926  to == address(0) */\n      0xffffffffffffffffffffffffffffffffffffffff\n      and\n        /* \"@openzeppelin/contracts/token/ERC20/ERC20.sol\":6910:6912  to */\n      dup3\n        /* \"@openzeppelin/contracts/token/ERC20/ERC20.sol\":6910:6926  to == address(0) */\n      0xffffffffffffffffffffffffffffffffffffffff\n      and\n      sub\n        /* \"@openzeppelin/contracts/token/ERC20/ERC20.sol\":6906:7331  if (to == address(0)) {... */\n      tag_156\n      jumpi\n        /* \"@openzeppelin/contracts/token/ERC20/ERC20.sol\":7089:7094  value */\n      dup1\n        /* \"@openzeppelin/contracts/token/ERC20/ERC20.sol\":7073:7085  _totalSupply */\n      0x02\n      0x00\n        /* \"@openzeppelin/contracts/token/ERC20/ERC20.sol\":7073:7094  _totalSupply -= value */\n      dup3\n      dup3\n      sload\n      sub\n      swap3\n      pop\n      pop\n      dup2\n      swap1\n      sstore\n      pop\n        /* \"@openzeppelin/contracts/token/ERC20/ERC20.sol\":6906:7331  if (to == address(0)) {... */\n      jump(tag_157)\n    tag_156:\n        /* \"@openzeppelin/contracts/token/ERC20/ERC20.sol\":7301:7306  value */\n      dup1\n        /* \"@openzeppelin/contracts/token/ERC20/ERC20.sol\":7284:7293  _balances */\n      0x00\n        /* \"@openzeppelin/contracts/token/ERC20/ERC20.sol\":7284:7297  _balances[to] */\n      dup1\n        /* \"@openzeppelin/contracts/token/ERC20/ERC20.sol\":7294:7296  to */\n      dup5\n        /* \"@openzeppelin/contracts/token/ERC20/ERC20.sol\":7284:7297  _balances[to] */\n      0xffffffffffffffffffffffffffffffffffffffff\n      and\n      0xffffffffffffffffffffffffffffffffffffffff\n      and\n      dup2\n      mstore\n      0x20\n      add\n      swap1\n      dup2\n      mstore\n      0x20\n      add\n      0x00\n      keccak256\n      0x00\n        /* \"@openzeppelin/contracts/token/ERC20/ERC20.sol\":7284:7306  _balances[to] += value */\n      dup3\n      dup3\n      sload\n      add\n      swap3\n      pop\n      pop\n      dup2\n      swap1\n      sstore\n      pop\n        /* \"@openzeppelin/contracts/token/ERC20/ERC20.sol\":6906:7331  if (to == address(0)) {... */\n    tag_157:\n        /* \"@openzeppelin/contracts/token/ERC20/ERC20.sol\":7361:7363  to */\n      dup2\n        /* \"@openzeppelin/contracts/token/ERC20/ERC20.sol\":7346:7371  Transfer(from, to, value) */\n      0xffffffffffffffffffffffffffffffffffffffff\n      and\n        /* \"@openzeppelin/contracts/token/ERC20/ERC20.sol\":7355:7359  from */\n      dup4\n        /* \"@openzeppelin/contracts/token/ERC20/ERC20.sol\":7346:7371  Transfer(from, to, value) */\n      0xffffffffffffffffffffffffffffffffffffffff\n      and\n      0xddf252ad1be2c89b69c2b068fc378daa952ba7f163c4a11628f55a4df523b3ef\n        /* \"@openzeppelin/contracts/token/ERC20/ERC20.sol\":7365:7370  value */\n      dup4\n        /* \"@openzeppelin/contracts/token/ERC20/ERC20.sol\":7346:7371  Transfer(from, to, value) */\n      mload(0x40)\n      tag_158\n      swap2\n      swap1\n      tag_33\n      jump\t// in\n    tag_158:\n      mload(0x40)\n      dup1\n      swap2\n      sub\n      swap1\n      log3\n        /* \"@openzeppelin/contracts/token/ERC20/ERC20.sol\":6271:7378  function _update(address from, address to, uint256 value) internal virtual {... */\n      pop\n      pop\n      pop\n      jump\t// out\n        /* \"#utility.yul\":7:106   */\n    tag_159:\n        /* \"#utility.yul\":59:65   */\n      0x00\n        /* \"#utility.yul\":93:98   */\n      dup2\n        /* \"#utility.yul\":87:99   */\n      mload\n        /* \"#utility.yul\":77:99   */\n      swap1\n      pop\n        /* \"#utility.yul\":7:106   */\n      swap2\n      swap1\n      pop\n      jump\t// out\n        /* \"#utility.yul\":112:281   */\n    tag_160:\n        /* \"#utility.yul\":196:207   */\n      0x00\n        /* \"#utility.yul\":230:236   */\n      dup3\n        /* \"#utility.yul\":225:228   */\n      dup3\n        /* \"#utility.yul\":218:237   */\n      mstore\n        /* \"#utility.yul\":270:274   */\n      0x20\n        /* \"#utility.yul\":265:268   */\n      dup3\n        /* \"#utility.yul\":261:275   */\n      add\n        /* \"#utility.yul\":246:275   */\n      swap1\n      pop\n        /* \"#utility.yul\":112:281   */\n      swap3\n      swap2\n      pop\n      pop\n      jump\t// out\n        /* \"#utility.yul\":287:426   */\n    tag_161:\n        /* \"#utility.yul\":376:382   */\n      dup3\n        /* \"#utility.yul\":371:374   */\n      dup2\n        /* \"#utility.yul\":366:369   */\n      dup4\n        /* \"#utility.yul\":360:383   */\n      mcopy\n        /* \"#utility.yul\":417:418   */\n      0x00\n        /* \"#utility.yul\":408:414   */\n      dup4\n        /* \"#utility.yul\":403:406   */\n      dup4\n        /* \"#utility.yul\":399:415   */\n      add\n        /* \"#utility.yul\":392:419   */\n      mstore\n        /* \"#utility.yul\":287:426   */\n      pop\n      pop\n      pop\n      jump\t// out\n        /* \"#utility.yul\":432:534   */\n    tag_162:\n        /* \"#utility.yul\":473:479   */\n      0x00\n        /* \"#utility.yul\":524:526   */\n      0x1f\n        /* \"#utility.yul\":520:527   */\n      not\n        /* \"#utility.yul\":515:517   */\n      0x1f\n        /* \"#utility.yul\":508:513   */\n      dup4\n        /* \"#utility.yul\":504:518   */\n      add\n        /* \"#utility.yul\":500:528   */\n      and\n        /* \"#utility.yul\":490:528   */\n      swap1\n      pop\n        /* \"#utility.yul\":432:534   */\n      swap2\n      swap1\n      pop\n      jump\t// out\n        /* \"#utility.yul\":540:917   */\n    tag_163:\n        /* \"#utility.yul\":628:631   */\n      0x00\n        /* \"#utility.yul\":656:695   */\n      tag_195\n        /* \"#utility.yul\":689:694   */\n      dup3\n        /* \"#utility.yul\":656:695   */\n      tag_159\n      jump\t// in\n    tag_195:\n        /* \"#utility.yul\":711:782   */\n      tag_196\n        /* \"#utility.yul\":775:781   */\n      dup2\n        /* \"#utility.yul\":770:773   */\n      dup6\n        /* \"#utility.yul\":711:782   */\n      tag_160\n      jump\t// in\n    tag_196:\n        /* \"#utility.yul\":704:782   */\n      swap4\n      pop\n        /* \"#utility.yul\":791:856   */\n      tag_197\n        /* \"#utility.yul\":849:855   */\n      dup2\n        /* \"#utility.yul\":844:847   */\n      dup6\n        /* \"#utility.yul\":837:841   */\n      0x20\n        /* \"#utility.yul\":830:835   */\n      dup7\n        /* \"#utility.yul\":826:842   */\n      add\n        /* \"#utility.yul\":791:856   */\n      tag_161\n      jump\t// in\n    tag_197:\n        /* \"#utility.yul\":881:910   */\n      tag_198\n        /* \"#utility.yul\":903:909   */\n      dup2\n        /* \"#utility.yul\":881:910   */\n      tag_162\n      jump\t// in\n    tag_198:\n        /* \"#utility.yul\":876:879   */\n      dup5\n        /* \"#utility.yul\":872:911   */\n      add\n        /* \"#utility.yul\":865:911   */\n      swap2\n      pop\n        /* \"#utility.yul\":632:917   */\n      pop\n        /* \"#utility.yul\":540:917   */\n      swap3\n      swap2\n      pop\n      pop\n      jump\t// out\n        /* \"#utility.yul\":923:1236   */\n    tag_19:\n        /* \"#utility.yul\":1036:1040   */\n      0x00\n        /* \"#utility.yul\":1074:1076   */\n      0x20\n        /* \"#utility.yul\":1063:1072   */\n      dup3\n        /* \"#utility.yul\":1059:1077   */\n      add\n        /* \"#utility.yul\":1051:1077   */\n      swap1\n      pop\n        /* \"#utility.yul\":1123:1132   */\n      dup2\n        /* \"#utility.yul\":1117:1121   */\n      dup2\n        /* \"#utility.yul\":1113:1133   */\n      sub\n        /* \"#utility.yul\":1109:1110   */\n      0x00\n        /* \"#utility.yul\":1098:1107   */\n      dup4\n        /* \"#utility.yul\":1094:1111   */\n      add\n        /* \"#utility.yul\":1087:1134   */\n      mstore\n        /* \"#utility.yul\":1151:1229   */\n      tag_200\n        /* \"#utility.yul\":1224:1228   */\n      dup2\n        /* \"#utility.yul\":1215:1221   */\n      dup5\n        /* \"#utility.yul\":1151:1229   */\n      tag_163\n      jump\t// in\n    tag_200:\n        /* \"#utility.yul\":1143:1229   */\n      swap1\n      pop\n        /* \"#utility.yul\":923:1236   */\n      swap3\n      swap2\n      pop\n      pop\n      jump\t// out\n        /* \"#utility.yul\":1242:1368   */\n    tag_164:\n        /* \"#utility.yul\":1279:1286   */\n      0x00\n        /* \"#utility.yul\":1319:1361   */\n      0xffffffffffffffffffffffffffffffffffffffff\n        /* \"#utility.yul\":1312:1317   */\n      dup3\n        /* \"#utility.yul\":1308:1362   */\n      and\n        /* \"#utility.yul\":1297:1362   */\n      swap1\n      pop\n        /* \"#utility.yul\":1242:1368   */\n      swap2\n      swap1\n      pop\n      jump\t// out\n        /* \"#utility.yul\":1374:1434   */\n    tag_165:\n        /* \"#utility.yul\":1402:1405   */\n      0x00\n        /* \"#utility.yul\":1423:1428   */\n      dup2\n        /* \"#utility.yul\":1416:1428   */\n      swap1\n      pop\n        /* \"#utility.yul\":1374:1434   */\n      swap2\n      swap1\n      pop\n      jump\t// out\n        /* \"#utility.yul\":1440:1582   */\n    tag_166:\n        /* \"#utility.yul\":1490:1499   */\n      0x00\n        /* \"#utility.yul\":1523:1576   */\n      tag_204\n        /* \"#utility.yul\":1541:1575   */\n      tag_205\n        /* \"#utility.yul\":1550:1574   */\n      tag_206\n        /* \"#utility.yul\":1568:1573   */\n      dup5\n        /* \"#utility.yul\":1550:1574   */\n      tag_164\n      jump\t// in\n    tag_206:\n        /* \"#utility.yul\":1541:1575   */\n      tag_165\n      jump\t// in\n    tag_205:\n        /* \"#utility.yul\":1523:1576   */\n      tag_164\n      jump\t// in\n    tag_204:\n        /* \"#utility.yul\":1510:1576   */\n      swap1\n      pop\n        /* \"#utility.yul\":1440:1582   */\n      swap2\n      swap1\n      pop\n      jump\t// out\n        /* \"#utility.yul\":1588:1714   */\n    tag_167:\n        /* \"#utility.yul\":1638:1647   */\n      0x00\n        /* \"#utility.yul\":1671:1708   */\n      tag_208\n        /* \"#utility.yul\":1702:1707   */\n      dup3\n        /* \"#utility.yul\":1671:1708   */\n      tag_166\n      jump\t// in\n    tag_208:\n        /* \"#utility.yul\":1658:1708   */\n      swap1\n      pop\n        /* \"#utility.yul\":1588:1714   */\n      swap2\n      swap1\n      pop\n      jump\t// out\n        /* \"#utility.yul\":1720:1859   */\n    tag_168:\n        /* \"#utility.yul\":1783:1792   */\n      0x00\n        /* \"#utility.yul\":1816:1853   */\n      tag_210\n        /* \"#utility.yul\":1847:1852   */\n      dup3\n        /* \"#utility.yul\":1816:1853   */\n      tag_167\n      jump\t// in\n    tag_210:\n        /* \"#utility.yul\":1803:1853   */\n      swap1\n      pop\n        /* \"#utility.yul\":1720:1859   */\n      swap2\n      swap1\n      pop\n      jump\t// out\n        /* \"#utility.yul\":1865:2022   */\n    tag_169:\n        /* \"#utility.yul\":1965:2015   */\n      tag_212\n        /* \"#utility.yul\":2009:2014   */\n      dup2\n        /* \"#utility.yul\":1965:2015   */\n      tag_168\n      jump\t// in\n    tag_212:\n        /* \"#utility.yul\":1960:1963   */\n      dup3\n        /* \"#utility.yul\":1953:2016   */\n      mstore\n        /* \"#utility.yul\":1865:2022   */\n      pop\n      pop\n      jump\t// out\n        /* \"#utility.yul\":2028:2276   */\n    tag_23:\n        /* \"#utility.yul\":2134:2138   */\n      0x00\n        /* \"#utility.yul\":2172:2174   */\n      0x20\n        /* \"#utility.yul\":2161:2170   */\n      dup3\n        /* \"#utility.yul\":2157:2175   */\n      add\n        /* \"#utility.yul\":2149:2175   */\n      swap1\n      pop\n        /* \"#utility.yul\":2185:2269   */\n      tag_214\n        /* \"#utility.yul\":2266:2267   */\n      0x00\n        /* \"#utility.yul\":2255:2264   */\n      dup4\n        /* \"#utility.yul\":2251:2268   */\n      add\n        /* \"#utility.yul\":2242:2248   */\n      dup5\n        /* \"#utility.yul\":2185:2269   */\n      tag_169\n      jump\t// in\n    tag_214:\n        /* \"#utility.yul\":2028:2276   */\n      swap3\n      swap2\n      pop\n      pop\n      jump\t// out\n        /* \"#utility.yul\":2363:2480   */\n    tag_171:\n        /* \"#utility.yul\":2472:2473   */\n      0x00\n        /* \"#utility.yul\":2469:2470   */\n      dup1\n        /* \"#utility.yul\":2462:2474   */\n      revert\n        /* \"#utility.yul\":2609:2705   */\n    tag_173:\n        /* \"#utility.yul\":2646:2653   */\n      0x00\n        /* \"#utility.yul\":2675:2699   */\n      tag_219\n        /* \"#utility.yul\":2693:2698   */\n      dup3\n        /* \"#utility.yul\":2675:2699   */\n      tag_164\n      jump\t// in\n    tag_219:\n        /* \"#utility.yul\":2664:2699   */\n      swap1\n      pop\n        /* \"#utility.yul\":2609:2705   */\n      swap2\n      swap1\n      pop\n      jump\t// out\n        /* \"#utility.yul\":2711:2833   */\n    tag_174:\n        /* \"#utility.yul\":2784:2808   */\n      tag_221\n        /* \"#utility.yul\":2802:2807   */\n      dup2\n        /* \"#utility.yul\":2784:2808   */\n      tag_173\n      jump\t// in\n    tag_221:\n        /* \"#utility.yul\":2777:2782   */\n      dup2\n        /* \"#utility.yul\":2774:2809   */\n      eq\n        /* \"#utility.yul\":2764:2827   */\n      tag_222\n      jumpi\n        /* \"#utility.yul\":2823:2824   */\n      0x00\n        /* \"#utility.yul\":2820:2821   */\n      dup1\n        /* \"#utility.yul\":2813:2825   */\n      revert\n        /* \"#utility.yul\":2764:2827   */\n    tag_222:\n        /* \"#utility.yul\":2711:2833   */\n      pop\n      jump\t// out\n        /* \"#utility.yul\":2839:2978   */\n    tag_175:\n        /* \"#utility.yul\":2885:2890   */\n      0x00\n        /* \"#utility.yul\":2923:2929   */\n      dup2\n        /* \"#utility.yul\":2910:2930   */\n      calldataload\n        /* \"#utility.yul\":2901:2930   */\n      swap1\n      pop\n        /* \"#utility.yul\":2939:2972   */\n      tag_224\n        /* \"#utility.yul\":2966:2971   */\n      dup2\n        /* \"#utility.yul\":2939:2972   */\n      tag_174\n      jump\t// in\n    tag_224:\n        /* \"#utility.yul\":2839:2978   */\n      swap3\n      swap2\n      pop\n      pop\n      jump\t// out\n        /* \"#utility.yul\":2984:3061   */\n    tag_176:\n        /* \"#utility.yul\":3021:3028   */\n      0x00\n        /* \"#utility.yul\":3050:3055   */\n      dup2\n        /* \"#utility.yul\":3039:3055   */\n      swap1\n      pop\n        /* \"#utility.yul\":2984:3061   */\n      swap2\n      swap1\n      pop\n      jump\t// out\n        /* \"#utility.yul\":3067:3189   */\n    tag_177:\n        /* \"#utility.yul\":3140:3164   */\n      tag_227\n        /* \"#utility.yul\":3158:3163   */\n      dup2\n        /* \"#utility.yul\":3140:3164   */\n      tag_176\n      jump\t// in\n    tag_227:\n        /* \"#utility.yul\":3133:3138   */\n      dup2\n        /* \"#utility.yul\":3130:3165   */\n      eq\n        /* \"#utility.yul\":3120:3183   */\n      tag_228\n      jumpi\n        /* \"#utility.yul\":3179:3180   */\n      0x00\n        /* \"#utility.yul\":3176:3177   */\n      dup1\n        /* \"#utility.yul\":3169:3181   */\n      revert\n        /* \"#utility.yul\":3120:3183   */\n    tag_228:\n        /* \"#utility.yul\":3067:3189   */\n      pop\n      jump\t// out\n        /* \"#utility.yul\":3195:3334   */\n    tag_178:\n        /* \"#utility.yul\":3241:3246   */\n      0x00\n        /* \"#utility.yul\":3279:3285   */\n      dup2\n        /* \"#utility.yul\":3266:3286   */\n      calldataload\n        /* \"#utility.yul\":3257:3286   */\n      swap1\n      pop\n        /* \"#utility.yul\":3295:3328   */\n      tag_230\n        /* \"#utility.yul\":3322:3327   */\n      dup2\n        /* \"#utility.yul\":3295:3328   */\n      tag_177\n      jump\t// in\n    tag_230:\n        /* \"#utility.yul\":3195:3334   */\n      swap3\n      swap2\n      pop\n      pop\n      jump\t// out\n        /* \"#utility.yul\":3340:3814   */\n    tag_26:\n        /* \"#utility.yul\":3408:3414   */\n      0x00\n        /* \"#utility.yul\":3416:3422   */\n      dup1\n        /* \"#utility.yul\":3465:3467   */\n      0x40\n        /* \"#utility.yul\":3453:3462   */\n      dup4\n        /* \"#utility.yul\":3444:3451   */\n      dup6\n        /* \"#utility.yul\":3440:3463   */\n      sub\n        /* \"#utility.yul\":3436:3468   */\n      slt\n        /* \"#utility.yul\":3433:3552   */\n      iszero\n      tag_232\n      jumpi\n        /* \"#utility.yul\":3471:3550   */\n      tag_233\n      tag_171\n      jump\t// in\n    tag_233:\n        /* \"#utility.yul\":3433:3552   */\n    tag_232:\n        /* \"#utility.yul\":3591:3592   */\n      0x00\n        /* \"#utility.yul\":3616:3669   */\n      tag_234\n        /* \"#utility.yul\":3661:3668   */\n      dup6\n        /* \"#utility.yul\":3652:3658   */\n      dup3\n        /* \"#utility.yul\":3641:3650   */\n      dup7\n        /* \"#utility.yul\":3637:3659   */\n      add\n        /* \"#utility.yul\":3616:3669   */\n      tag_175\n      jump\t// in\n    tag_234:\n        /* \"#utility.yul\":3606:3669   */\n      swap3\n      pop\n        /* \"#utility.yul\":3562:3679   */\n      pop\n        /* \"#utility.yul\":3718:3720   */\n      0x20\n        /* \"#utility.yul\":3744:3797   */\n      tag_235\n        /* \"#utility.yul\":3789:3796   */\n      dup6\n        /* \"#utility.yul\":3780:3786   */\n      dup3\n        /* \"#utility.yul\":3769:3778   */\n      dup7\n        /* \"#utility.yul\":3765:3787   */\n      add\n        /* \"#utility.yul\":3744:3797   */\n      tag_178\n      jump\t// in\n    tag_235:\n        /* \"#utility.yul\":3734:3797   */\n      swap2\n      pop\n        /* \"#utility.yul\":3689:3807   */\n      pop\n        /* \"#utility.yul\":3340:3814   */\n      swap3\n      pop\n      swap3\n      swap1\n      pop\n      jump\t// out\n        /* \"#utility.yul\":3820:3910   */\n    tag_179:\n        /* \"#utility.yul\":3854:3861   */\n      0x00\n        /* \"#utility.yul\":3897:3902   */\n      dup2\n        /* \"#utility.yul\":3890:3903   */\n      iszero\n        /* \"#utility.yul\":3883:3904   */\n      iszero\n        /* \"#utility.yul\":3872:3904   */\n      swap1\n      pop\n        /* \"#utility.yul\":3820:3910   */\n      swap2\n      swap1\n      pop\n      jump\t// out\n        /* \"#utility.yul\":3916:4025   */\n    tag_180:\n        /* \"#utility.yul\":3997:4018   */\n      tag_238\n        /* \"#utility.yul\":4012:4017   */\n      dup2\n        /* \"#utility.yul\":3997:4018   */\n      tag_179\n      jump\t// in\n    tag_238:\n        /* \"#utility.yul\":3992:3995   */\n      dup3\n        /* \"#utility.yul\":3985:4019   */\n      mstore\n        /* \"#utility.yul\":3916:4025   */\n      pop\n      pop\n      jump\t// out\n        /* \"#utility.yul\":4031:4241   */\n    tag_29:\n        /* \"#utility.yul\":4118:4122   */\n      0x00\n        /* \"#utility.yul\":4156:4158   */\n      0x20\n        /* \"#utility.yul\":4145:4154   */\n      dup3\n        /* \"#utility.yul\":4141:4159   */\n      add\n        /* \"#utility.yul\":4133:4159   */\n      swap1\n      pop\n        /* \"#utility.yul\":4169:4234   */\n      tag_240\n        /* \"#utility.yul\":4231:4232   */\n      0x00\n        /* \"#utility.yul\":4220:4229   */\n      dup4\n        /* \"#utility.yul\":4216:4233   */\n      add\n        /* \"#utility.yul\":4207:4213   */\n      dup5\n        /* \"#utility.yul\":4169:4234   */\n      tag_180\n      jump\t// in\n    tag_240:\n        /* \"#utility.yul\":4031:4241   */\n      swap3\n      swap2\n      pop\n      pop\n      jump\t// out\n        /* \"#utility.yul\":4247:4365   */\n    tag_181:\n        /* \"#utility.yul\":4334:4358   */\n      tag_242\n        /* \"#utility.yul\":4352:4357   */\n      dup2\n        /* \"#utility.yul\":4334:4358   */\n      tag_176\n      jump\t// in\n    tag_242:\n        /* \"#utility.yul\":4329:4332   */\n      dup3\n        /* \"#utility.yul\":4322:4359   */\n      mstore\n        /* \"#utility.yul\":4247:4365   */\n      pop\n      pop\n      jump\t// out\n        /* \"#utility.yul\":4371:4593   */\n    tag_33:\n        /* \"#utility.yul\":4464:4468   */\n      0x00\n        /* \"#utility.yul\":4502:4504   */\n      0x20\n        /* \"#utility.yul\":4491:4500   */\n      dup3\n        /* \"#utility.yul\":4487:4505   */\n      add\n        /* \"#utility.yul\":4479:4505   */\n      swap1\n      pop\n        /* \"#utility.yul\":4515:4586   */\n      tag_244\n        /* \"#utility.yul\":4583:4584   */\n      0x00\n        /* \"#utility.yul\":4572:4581   */\n      dup4\n        /* \"#utility.yul\":4568:4585   */\n      add\n        /* \"#utility.yul\":4559:4565   */\n      dup5\n        /* \"#utility.yul\":4515:4586   */\n      tag_181\n      jump\t// in\n    tag_244:\n        /* \"#utility.yul\":4371:4593   */\n      swap3\n      swap2\n      pop\n      pop\n      jump\t// out\n        /* \"#utility.yul\":4599:5218   */\n    tag_36:\n        /* \"#utility.yul\":4676:4682   */\n      0x00\n        /* \"#utility.yul\":4684:4690   */\n      dup1\n        /* \"#utility.yul\":4692:4698   */\n      0x00\n        /* \"#utility.yul\":4741:4743   */\n      0x60\n        /* \"#utility.yul\":4729:4738   */\n      dup5\n        /* \"#utility.yul\":4720:4727   */\n      dup7\n        /* \"#utility.yul\":4716:4739   */\n      sub\n        /* \"#utility.yul\":4712:4744   */\n      slt\n        /* \"#utility.yul\":4709:4828   */\n      iszero\n      tag_246\n      jumpi\n        /* \"#utility.yul\":4747:4826   */\n      tag_247\n      tag_171\n      jump\t// in\n    tag_247:\n        /* \"#utility.yul\":4709:4828   */\n    tag_246:\n        /* \"#utility.yul\":4867:4868   */\n      0x00\n        /* \"#utility.yul\":4892:4945   */\n      tag_248\n        /* \"#utility.yul\":4937:4944   */\n      dup7\n        /* \"#utility.yul\":4928:4934   */\n      dup3\n        /* \"#utility.yul\":4917:4926   */\n      dup8\n        /* \"#utility.yul\":4913:4935   */\n      add\n        /* \"#utility.yul\":4892:4945   */\n      tag_175\n      jump\t// in\n    tag_248:\n        /* \"#utility.yul\":4882:4945   */\n      swap4\n      pop\n        /* \"#utility.yul\":4838:4955   */\n      pop\n        /* \"#utility.yul\":4994:4996   */\n      0x20\n        /* \"#utility.yul\":5020:5073   */\n      tag_249\n        /* \"#utility.yul\":5065:5072   */\n      dup7\n        /* \"#utility.yul\":5056:5062   */\n      dup3\n        /* \"#utility.yul\":5045:5054   */\n      dup8\n        /* \"#utility.yul\":5041:5063   */\n      add\n        /* \"#utility.yul\":5020:5073   */\n      tag_175\n      jump\t// in\n    tag_249:\n        /* \"#utility.yul\":5010:5073   */\n      swap3\n      pop\n        /* \"#utility.yul\":4965:5083   */\n      pop\n        /* \"#utility.yul\":5122:5124   */\n      0x40\n        /* \"#utility.yul\":5148:5201   */\n      tag_250\n        /* \"#utility.yul\":5193:5200   */\n      dup7\n        /* \"#utility.yul\":5184:5190   */\n      dup3\n        /* \"#utility.yul\":5173:5182   */\n      dup8\n        /* \"#utility.yul\":5169:5191   */\n      add\n        /* \"#utility.yul\":5148:5201   */\n      tag_178\n      jump\t// in\n    tag_250:\n        /* \"#utility.yul\":5138:5201   */\n      swap2\n      pop\n        /* \"#utility.yul\":5093:5211   */\n      pop\n        /* \"#utility.yul\":4599:5218   */\n      swap3\n      pop\n      swap3\n      pop\n      swap3\n      jump\t// out\n        /* \"#utility.yul\":5224:5310   */\n    tag_182:\n        /* \"#utility.yul\":5259:5266   */\n      0x00\n        /* \"#utility.yul\":5299:5303   */\n      0xff\n        /* \"#utility.yul\":5292:5297   */\n      dup3\n        /* \"#utility.yul\":5288:5304   */\n      and\n        /* \"#utility.yul\":5277:5304   */\n      swap1\n      pop\n        /* \"#utility.yul\":5224:5310   */\n      swap2\n      swap1\n      pop\n      jump\t// out\n        /* \"#utility.yul\":5316:5428   */\n    tag_183:\n        /* \"#utility.yul\":5399:5421   */\n      tag_253\n        /* \"#utility.yul\":5415:5420   */\n      dup2\n        /* \"#utility.yul\":5399:5421   */\n      tag_182\n      jump\t// in\n    tag_253:\n        /* \"#utility.yul\":5394:5397   */\n      dup3\n        /* \"#utility.yul\":5387:5422   */\n      mstore\n        /* \"#utility.yul\":5316:5428   */\n      pop\n      pop\n      jump\t// out\n        /* \"#utility.yul\":5434:5648   */\n    tag_42:\n        /* \"#utility.yul\":5523:5527   */\n      0x00\n        /* \"#utility.yul\":5561:5563   */\n      0x20\n        /* \"#utility.yul\":5550:5559   */\n      dup3\n        /* \"#utility.yul\":5546:5564   */\n      add\n        /* \"#utility.yul\":5538:5564   */\n      swap1\n      pop\n        /* \"#utility.yul\":5574:5641   */\n      tag_255\n        /* \"#utility.yul\":5638:5639   */\n      0x00\n        /* \"#utility.yul\":5627:5636   */\n      dup4\n        /* \"#utility.yul\":5623:5640   */\n      add\n        /* \"#utility.yul\":5614:5620   */\n      dup5\n        /* \"#utility.yul\":5574:5641   */\n      tag_183\n      jump\t// in\n    tag_255:\n        /* \"#utility.yul\":5434:5648   */\n      swap3\n      swap2\n      pop\n      pop\n      jump\t// out\n        /* \"#utility.yul\":5654:5983   */\n    tag_45:\n        /* \"#utility.yul\":5713:5719   */\n      0x00\n        /* \"#utility.yul\":5762:5764   */\n      0x20\n        /* \"#utility.yul\":5750:5759   */\n      dup3\n        /* \"#utility.yul\":5741:5748   */\n      dup5\n        /* \"#utility.yul\":5737:5760   */\n      sub\n        /* \"#utility.yul\":5733:5765   */\n      slt\n        /* \"#utility.yul\":5730:5849   */\n      iszero\n      tag_257\n      jumpi\n        /* \"#utility.yul\":5768:5847   */\n      tag_258\n      tag_171\n      jump\t// in\n    tag_258:\n        /* \"#utility.yul\":5730:5849   */\n    tag_257:\n        /* \"#utility.yul\":5888:5889   */\n      0x00\n        /* \"#utility.yul\":5913:5966   */\n      tag_259\n        /* \"#utility.yul\":5958:5965   */\n      dup5\n        /* \"#utility.yul\":5949:5955   */\n      dup3\n        /* \"#utility.yul\":5938:5947   */\n      dup6\n        /* \"#utility.yul\":5934:5956   */\n      add\n        /* \"#utility.yul\":5913:5966   */\n      tag_175\n      jump\t// in\n    tag_259:\n        /* \"#utility.yul\":5903:5966   */\n      swap2\n      pop\n        /* \"#utility.yul\":5859:5976   */\n      pop\n        /* \"#utility.yul\":5654:5983   */\n      swap3\n      swap2\n      pop\n      pop\n      jump\t// out\n        /* \"#utility.yul\":5989:6463   */\n    tag_57:\n        /* \"#utility.yul\":6057:6063   */\n      0x00\n        /* \"#utility.yul\":6065:6071   */\n      dup1\n        /* \"#utility.yul\":6114:6116   */\n      0x40\n        /* \"#utility.yul\":6102:6111   */\n      dup4\n        /* \"#utility.yul\":6093:6100   */\n      dup6\n        /* \"#utility.yul\":6089:6112   */\n      sub\n        /* \"#utility.yul\":6085:6117   */\n      slt\n        /* \"#utility.yul\":6082:6201   */\n      iszero\n      tag_261\n      jumpi\n        /* \"#utility.yul\":6120:6199   */\n      tag_262\n      tag_171\n      jump\t// in\n    tag_262:\n        /* \"#utility.yul\":6082:6201   */\n    tag_261:\n        /* \"#utility.yul\":6240:6241   */\n      0x00\n        /* \"#utility.yul\":6265:6318   */\n      tag_263\n        /* \"#utility.yul\":6310:6317   */\n      dup6\n        /* \"#utility.yul\":6301:6307   */\n      dup3\n        /* \"#utility.yul\":6290:6299   */\n      dup7\n        /* \"#utility.yul\":6286:6308   */\n      add\n        /* \"#utility.yul\":6265:6318   */\n      tag_175\n      jump\t// in\n    tag_263:\n        /* \"#utility.yul\":6255:6318   */\n      swap3\n      pop\n        /* \"#utility.yul\":6211:6328   */\n      pop\n        /* \"#utility.yul\":6367:6369   */\n      0x20\n        /* \"#utility.yul\":6393:6446   */\n      tag_264\n        /* \"#utility.yul\":6438:6445   */\n      dup6\n        /* \"#utility.yul\":6429:6435   */\n      dup3\n        /* \"#utility.yul\":6418:6427   */\n      dup7\n        /* \"#utility.yul\":6414:6436   */\n      add\n        /* \"#utility.yul\":6393:6446   */\n      tag_175\n      jump\t// in\n    tag_264:\n        /* \"#utility.yul\":6383:6446   */\n      swap2\n      pop\n        /* \"#utility.yul\":6338:6456   */\n      pop\n        /* \"#utility.yul\":5989:6463   */\n      swap3\n      pop\n      swap3\n      swap1\n      pop\n      jump\t// out\n        /* \"#utility.yul\":6469:6798   */\n    tag_62:\n        /* \"#utility.yul\":6528:6534   */\n      0x00\n        /* \"#utility.yul\":6577:6579   */\n      0x20\n        /* \"#utility.yul\":6565:6574   */\n      dup3\n        /* \"#utility.yul\":6556:6563   */\n      dup5\n        /* \"#utility.yul\":6552:6575   */\n      sub\n        /* \"#utility.yul\":6548:6580   */\n      slt\n        /* \"#utility.yul\":6545:6664   */\n      iszero\n      tag_266\n      jumpi\n        /* \"#utility.yul\":6583:6662   */\n      tag_267\n      tag_171\n      jump\t// in\n    tag_267:\n        /* \"#utility.yul\":6545:6664   */\n    tag_266:\n        /* \"#utility.yul\":6703:6704   */\n      0x00\n        /* \"#utility.yul\":6728:6781   */\n      tag_268\n        /* \"#utility.yul\":6773:6780   */\n      dup5\n        /* \"#utility.yul\":6764:6770   */\n      dup3\n        /* \"#utility.yul\":6753:6762   */\n      dup6\n        /* \"#utility.yul\":6749:6771   */\n      add\n        /* \"#utility.yul\":6728:6781   */\n      tag_178\n      jump\t// in\n    tag_268:\n        /* \"#utility.yul\":6718:6781   */\n      swap2\n      pop\n        /* \"#utility.yul\":6674:6791   */\n      pop\n        /* \"#utility.yul\":6469:6798   */\n      swap3\n      swap2\n      pop\n      pop\n      jump\t// out\n        /* \"#utility.yul\":6804:6984   */\n    tag_184:\n        /* \"#utility.yul\":6852:6929   */\n      0x4e487b7100000000000000000000000000000000000000000000000000000000\n        /* \"#utility.yul\":6849:6850   */\n      0x00\n        /* \"#utility.yul\":6842:6930   */\n      mstore\n        /* \"#utility.yul\":6949:6953   */\n      0x22\n        /* \"#utility.yul\":6946:6947   */\n      0x04\n        /* \"#utility.yul\":6939:6954   */\n      mstore\n        /* \"#utility.yul\":6973:6977   */\n      0x24\n        /* \"#utility.yul\":6970:6971   */\n      0x00\n        /* \"#utility.yul\":6963:6978   */\n      revert\n        /* \"#utility.yul\":6990:7310   */\n    tag_69:\n        /* \"#utility.yul\":7034:7040   */\n      0x00\n        /* \"#utility.yul\":7071:7072   */\n      0x02\n        /* \"#utility.yul\":7065:7069   */\n      dup3\n        /* \"#utility.yul\":7061:7073   */\n      div\n        /* \"#utility.yul\":7051:7073   */\n      swap1\n      pop\n        /* \"#utility.yul\":7118:7119   */\n      0x01\n        /* \"#utility.yul\":7112:7116   */\n      dup3\n        /* \"#utility.yul\":7108:7120   */\n      and\n        /* \"#utility.yul\":7139:7157   */\n      dup1\n        /* \"#utility.yul\":7129:7210   */\n      tag_271\n      jumpi\n        /* \"#utility.yul\":7195:7199   */\n      0x7f\n        /* \"#utility.yul\":7187:7193   */\n      dup3\n        /* \"#utility.yul\":7183:7200   */\n      and\n        /* \"#utility.yul\":7173:7200   */\n      swap2\n      pop\n        /* \"#utility.yul\":7129:7210   */\n    tag_271:\n        /* \"#utility.yul\":7257:7259   */\n      0x20\n        /* \"#utility.yul\":7249:7255   */\n      dup3\n        /* \"#utility.yul\":7246:7260   */\n      lt\n        /* \"#utility.yul\":7226:7244   */\n      dup2\n        /* \"#utility.yul\":7223:7261   */\n      sub\n        /* \"#utility.yul\":7220:7304   */\n      tag_272\n      jumpi\n        /* \"#utility.yul\":7276:7294   */\n      tag_273\n      tag_184\n      jump\t// in\n    tag_273:\n        /* \"#utility.yul\":7220:7304   */\n    tag_272:\n        /* \"#utility.yul\":7041:7310   */\n      pop\n        /* \"#utility.yul\":6990:7310   */\n      swap2\n      swap1\n      pop\n      jump\t// out\n        /* \"#utility.yul\":7316:7434   */\n    tag_185:\n        /* \"#utility.yul\":7403:7427   */\n      tag_275\n        /* \"#utility.yul\":7421:7426   */\n      dup2\n        /* \"#utility.yul\":7403:7427   */\n      tag_173\n      jump\t// in\n    tag_275:\n        /* \"#utility.yul\":7398:7401   */\n      dup3\n        /* \"#utility.yul\":7391:7428   */\n      mstore\n        /* \"#utility.yul\":7316:7434   */\n      pop\n      pop\n      jump\t// out\n        /* \"#utility.yul\":7440:7772   */\n    tag_102:\n        /* \"#utility.yul\":7561:7565   */\n      0x00\n        /* \"#utility.yul\":7599:7601   */\n      0x40\n        /* \"#utility.yul\":7588:7597   */\n      dup3\n        /* \"#utility.yul\":7584:7602   */\n      add\n        /* \"#utility.yul\":7576:7602   */\n      swap1\n      pop\n        /* \"#utility.yul\":7612:7683   */\n      tag_277\n        /* \"#utility.yul\":7680:7681   */\n      0x00\n        /* \"#utility.yul\":7669:7678   */\n      dup4\n        /* \"#utility.yul\":7665:7682   */\n      add\n        /* \"#utility.yul\":7656:7662   */\n      dup6\n        /* \"#utility.yul\":7612:7683   */\n      tag_185\n      jump\t// in\n    tag_277:\n        /* \"#utility.yul\":7693:7765   */\n      tag_278\n        /* \"#utility.yul\":7761:7763   */\n      0x20\n        /* \"#utility.yul\":7750:7759   */\n      dup4\n        /* \"#utility.yul\":7746:7764   */\n      add\n        /* \"#utility.yul\":7737:7743   */\n      dup5\n        /* \"#utility.yul\":7693:7765   */\n      tag_181\n      jump\t// in\n    tag_278:\n        /* \"#utility.yul\":7440:7772   */\n      swap4\n      swap3\n      pop\n      pop\n      pop\n      jump\t// out\n        /* \"#utility.yul\":7778:7894   */\n    tag_186:\n        /* \"#utility.yul\":7848:7869   */\n      tag_280\n        /* \"#utility.yul\":7863:7868   */\n      dup2\n        /* \"#utility.yul\":7848:7869   */\n      tag_179\n      jump\t// in\n    tag_280:\n        /* \"#utility.yul\":7841:7846   */\n      dup2\n        /* \"#utility.yul\":7838:7870   */\n      eq\n        /* \"#utility.yul\":7828:7888   */\n      tag_281\n      jumpi\n        /* \"#utility.yul\":7884:7885   */\n      0x00\n        /* \"#utility.yul\":7881:7882   */\n      dup1\n        /* \"#utility.yul\":7874:7886   */\n      revert\n        /* \"#utility.yul\":7828:7888   */\n    tag_281:\n        /* \"#utility.yul\":7778:7894   */\n      pop\n      jump\t// out\n        /* \"#utility.yul\":7900:8037   */\n    tag_187:\n        /* \"#utility.yul\":7954:7959   */\n      0x00\n        /* \"#utility.yul\":7985:7991   */\n      dup2\n        /* \"#utility.yul\":7979:7992   */\n      mload\n        /* \"#utility.yul\":7970:7992   */\n      swap1\n      pop\n        /* \"#utility.yul\":8001:8031   */\n      tag_283\n        /* \"#utility.yul\":8025:8030   */\n      dup2\n        /* \"#utility.yul\":8001:8031   */\n      tag_186\n      jump\t// in\n    tag_283:\n        /* \"#utility.yul\":7900:8037   */\n      swap3\n      swap2\n      pop\n      pop\n      jump\t// out\n        /* \"#utility.yul\":8043:8388   */\n    tag_106:\n        /* \"#utility.yul\":8110:8116   */\n      0x00\n        /* \"#utility.yul\":8159:8161   */\n      0x20\n        /* \"#utility.yul\":8147:8156   */\n      dup3\n        /* \"#utility.yul\":8138:8145   */\n      dup5\n        /* \"#utility.yul\":8134:8157   */\n      sub\n        /* \"#utility.yul\":8130:8162   */\n      slt\n        /* \"#utility.yul\":8127:8246   */\n      iszero\n      tag_285\n      jumpi\n        /* \"#utility.yul\":8165:8244   */\n      tag_286\n      tag_171\n      jump\t// in\n    tag_286:\n        /* \"#utility.yul\":8127:8246   */\n    tag_285:\n        /* \"#utility.yul\":8285:8286   */\n      0x00\n        /* \"#utility.yul\":8310:8371   */\n      tag_287\n        /* \"#utility.yul\":8363:8370   */\n      dup5\n        /* \"#utility.yul\":8354:8360   */\n      dup3\n        /* \"#utility.yul\":8343:8352   */\n      dup6\n        /* \"#utility.yul\":8339:8361   */\n      add\n        /* \"#utility.yul\":8310:8371   */\n      tag_187\n      jump\t// in\n    tag_287:\n        /* \"#utility.yul\":8300:8371   */\n      swap2\n      pop\n        /* \"#utility.yul\":8256:8381   */\n      pop\n        /* \"#utility.yul\":8043:8388   */\n      swap3\n      swap2\n      pop\n      pop\n      jump\t// out\n        /* \"#utility.yul\":8394:8836   */\n    tag_109:\n        /* \"#utility.yul\":8543:8547   */\n      0x00\n        /* \"#utility.yul\":8581:8583   */\n      0x60\n        /* \"#utility.yul\":8570:8579   */\n      dup3\n        /* \"#utility.yul\":8566:8584   */\n      add\n        /* \"#utility.yul\":8558:8584   */\n      swap1\n      pop\n        /* \"#utility.yul\":8594:8665   */\n      tag_289\n        /* \"#utility.yul\":8662:8663   */\n      0x00\n        /* \"#utility.yul\":8651:8660   */\n      dup4\n        /* \"#utility.yul\":8647:8664   */\n      add\n        /* \"#utility.yul\":8638:8644   */\n      dup7\n        /* \"#utility.yul\":8594:8665   */\n      tag_185\n      jump\t// in\n    tag_289:\n        /* \"#utility.yul\":8675:8747   */\n      tag_290\n        /* \"#utility.yul\":8743:8745   */\n      0x20\n        /* \"#utility.yul\":8732:8741   */\n      dup4\n        /* \"#utility.yul\":8728:8746   */\n      add\n        /* \"#utility.yul\":8719:8725   */\n      dup6\n        /* \"#utility.yul\":8675:8747   */\n      tag_185\n      jump\t// in\n    tag_290:\n        /* \"#utility.yul\":8757:8829   */\n      tag_291\n        /* \"#utility.yul\":8825:8827   */\n      0x40\n        /* \"#utility.yul\":8814:8823   */\n      dup4\n        /* \"#utility.yul\":8810:8828   */\n      add\n        /* \"#utility.yul\":8801:8807   */\n      dup5\n        /* \"#utility.yul\":8757:8829   */\n      tag_181\n      jump\t// in\n    tag_291:\n        /* \"#utility.yul\":8394:8836   */\n      swap5\n      swap4\n      pop\n      pop\n      pop\n      pop\n      jump\t// out\n        /* \"#utility.yul\":8842:9284   */\n    tag_124:\n        /* \"#utility.yul\":8991:8995   */\n      0x00\n        /* \"#utility.yul\":9029:9031   */\n      0x60\n        /* \"#utility.yul\":9018:9027   */\n      dup3\n        /* \"#utility.yul\":9014:9032   */\n      add\n        /* \"#utility.yul\":9006:9032   */\n      swap1\n      pop\n        /* \"#utility.yul\":9042:9113   */\n      tag_293\n        /* \"#utility.yul\":9110:9111   */\n      0x00\n        /* \"#utility.yul\":9099:9108   */\n      dup4\n        /* \"#utility.yul\":9095:9112   */\n      add\n        /* \"#utility.yul\":9086:9092   */\n      dup7\n        /* \"#utility.yul\":9042:9113   */\n      tag_185\n      jump\t// in\n    tag_293:\n        /* \"#utility.yul\":9123:9195   */\n      tag_294\n        /* \"#utility.yul\":9191:9193   */\n      0x20\n        /* \"#utility.yul\":9180:9189   */\n      dup4\n        /* \"#utility.yul\":9176:9194   */\n      add\n        /* \"#utility.yul\":9167:9173   */\n      dup6\n        /* \"#utility.yul\":9123:9195   */\n      tag_181\n      jump\t// in\n    tag_294:\n        /* \"#utility.yul\":9205:9277   */\n      tag_295\n        /* \"#utility.yul\":9273:9275   */\n      0x40\n        /* \"#utility.yul\":9262:9271   */\n      dup4\n        /* \"#utility.yul\":9258:9276   */\n      add\n        /* \"#utility.yul\":9249:9255   */\n      dup5\n        /* \"#utility.yul\":9205:9277   */\n      tag_181\n      jump\t// in\n    tag_295:\n        /* \"#utility.yul\":8842:9284   */\n      swap5\n      swap4\n      pop\n      pop\n      pop\n      pop\n      jump\t// out\n        /* \"#utility.yul\":9290:9512   */\n    tag_129:\n        /* \"#utility.yul\":9383:9387   */\n      0x00\n        /* \"#utility.yul\":9421:9423   */\n      0x20\n        /* \"#utility.yul\":9410:9419   */\n      dup3\n        /* \"#utility.yul\":9406:9424   */\n      add\n        /* \"#utility.yul\":9398:9424   */\n      swap1\n      pop\n        /* \"#utility.yul\":9434:9505   */\n      tag_297\n        /* \"#utility.yul\":9502:9503   */\n      0x00\n        /* \"#utility.yul\":9491:9500   */\n      dup4\n        /* \"#utility.yul\":9487:9504   */\n      add\n        /* \"#utility.yul\":9478:9484   */\n      dup5\n        /* \"#utility.yul\":9434:9505   */\n      tag_185\n      jump\t// in\n    tag_297:\n        /* \"#utility.yul\":9290:9512   */\n      swap3\n      swap2\n      pop\n      pop\n      jump\t// out\n        /* \"#utility.yul\":9518:9698   */\n    tag_188:\n        /* \"#utility.yul\":9566:9643   */\n      0x4e487b7100000000000000000000000000000000000000000000000000000000\n        /* \"#utility.yul\":9563:9564   */\n      0x00\n        /* \"#utility.yul\":9556:9644   */\n      mstore\n        /* \"#utility.yul\":9663:9667   */\n      0x11\n        /* \"#utility.yul\":9660:9661   */\n      0x04\n        /* \"#utility.yul\":9653:9668   */\n      mstore\n        /* \"#utility.yul\":9687:9691   */\n      0x24\n        /* \"#utility.yul\":9684:9685   */\n      0x00\n        /* \"#utility.yul\":9677:9692   */\n      revert\n        /* \"#utility.yul\":9704:9895   */\n    tag_152:\n        /* \"#utility.yul\":9744:9747   */\n      0x00\n        /* \"#utility.yul\":9763:9783   */\n      tag_300\n        /* \"#utility.yul\":9781:9782   */\n      dup3\n        /* \"#utility.yul\":9763:9783   */\n      tag_176\n      jump\t// in\n    tag_300:\n        /* \"#utility.yul\":9758:9783   */\n      swap2\n      pop\n        /* \"#utility.yul\":9797:9817   */\n      tag_301\n        /* \"#utility.yul\":9815:9816   */\n      dup4\n        /* \"#utility.yul\":9797:9817   */\n      tag_176\n      jump\t// in\n    tag_301:\n        /* \"#utility.yul\":9792:9817   */\n      swap3\n      pop\n        /* \"#utility.yul\":9840:9841   */\n      dup3\n        /* \"#utility.yul\":9837:9838   */\n      dup3\n        /* \"#utility.yul\":9833:9842   */\n      add\n        /* \"#utility.yul\":9826:9842   */\n      swap1\n      pop\n        /* \"#utility.yul\":9861:9864   */\n      dup1\n        /* \"#utility.yul\":9858:9859   */\n      dup3\n        /* \"#utility.yul\":9855:9865   */\n      gt\n        /* \"#utility.yul\":9852:9888   */\n      iszero\n      tag_302\n      jumpi\n        /* \"#utility.yul\":9868:9886   */\n      tag_303\n      tag_188\n      jump\t// in\n    tag_303:\n        /* \"#utility.yul\":9852:9888   */\n    tag_302:\n        /* \"#utility.yul\":9704:9895   */\n      swap3\n      swap2\n      pop\n      pop\n      jump\t// out\n\n    auxdata: 0xa26469706673582212202592c7a19a6dbdfae2aa5c396b084acc7bd436176b8778850a8912a5532c338564736f6c634300081a0033\n}\n",
				"bytecode": {
					"linkReferences": {},
					"object": "608060405234801561000f575f80fd5b506040516116c53803806116c583398181016040528101906100319190610163565b6040518060400160405280600b81526020017f5772617070656420454d500000000000000000000000000000000000000000008152506040518060400160405280600481526020017f57454d500000000000000000000000000000000000000000000000000000000081525081600390816100ac91906103c8565b5080600490816100bc91906103c8565b5050508060055f6101000a81548173ffffffffffffffffffffffffffffffffffffffff021916908373ffffffffffffffffffffffffffffffffffffffff16021790555050610497565b5f80fd5b5f73ffffffffffffffffffffffffffffffffffffffff82169050919050565b5f61013282610109565b9050919050565b61014281610128565b811461014c575f80fd5b50565b5f8151905061015d81610139565b92915050565b5f6020828403121561017857610177610105565b5b5f6101858482850161014f565b91505092915050565b5f81519050919050565b7f4e487b71000000000000000000000000000000000000000000000000000000005f52604160045260245ffd5b7f4e487b71000000000000000000000000000000000000000000000000000000005f52602260045260245ffd5b5f600282049050600182168061020957607f821691505b60208210810361021c5761021b6101c5565b5b50919050565b5f819050815f5260205f209050919050565b5f6020601f8301049050919050565b5f82821b905092915050565b5f6008830261027e7fffffffffffffffffffffffffffffffffffffffffffffffffffffffffffffffff82610243565b6102888683610243565b95508019841693508086168417925050509392505050565b5f819050919050565b5f819050919050565b5f6102cc6102c76102c2846102a0565b6102a9565b6102a0565b9050919050565b5f819050919050565b6102e5836102b2565b6102f96102f1826102d3565b84845461024f565b825550505050565b5f90565b61030d610301565b6103188184846102dc565b505050565b5b8181101561033b576103305f82610305565b60018101905061031e565b5050565b601f8211156103805761035181610222565b61035a84610234565b81016020851015610369578190505b61037d61037585610234565b83018261031d565b50505b505050565b5f82821c905092915050565b5f6103a05f1984600802610385565b1980831691505092915050565b5f6103b88383610391565b9150826002028217905092915050565b6103d18261018e565b67ffffffffffffffff8111156103ea576103e9610198565b5b6103f482546101f2565b6103ff82828561033f565b5f60209050601f831160018114610430575f841561041e578287015190505b61042885826103ad565b86555061048f565b601f19841661043e86610222565b5f5b8281101561046557848901518255600182019150602085019450602081019050610440565b86831015610482578489015161047e601f891682610391565b8355505b6001600288020188555050505b505050505050565b611221806104a45f395ff3fe608060405234801561000f575f80fd5b50600436106100b2575f3560e01c806370a082311161006f57806370a082311461018e57806395d89b41146101be578063a9059cbb146101dc578063dd62ed3e1461020c578063de0e9a3e1461023c578063ea598cb014610258576100b2565b806306fdde03146100b657806307eb1899146100d4578063095ea7b3146100f257806318160ddd1461012257806323b872dd14610140578063313ce56714610170575b5f80fd5b6100be610274565b6040516100cb9190610d4a565b60405180910390f35b6100dc610304565b6040516100e99190610de4565b60405180910390f35b61010c60048036038101906101079190610e6f565b610329565b6040516101199190610ec7565b60405180910390f35b61012a61034b565b6040516101379190610eef565b60405180910390f35b61015a60048036038101906101559190610f08565b610354565b6040516101679190610ec7565b60405180910390f35b610178610382565b6040516101859190610f73565b60405180910390f35b6101a860048036038101906101a39190610f8c565b61038a565b6040516101b59190610eef565b60405180910390f35b6101c66103cf565b6040516101d39190610d4a565b60405180910390f35b6101f660048036038101906101f19190610e6f565b61045f565b6040516102039190610ec7565b60405180910390f35b61022660048036038101906102219190610fb7565b610481565b6040516102339190610eef565b60405180910390f35b61025660048036038101906102519190610ff5565b610503565b005b610272600480360381019061026d9190610ff5565b6105ad565b005b6060600380546102839061104d565b80601f01602080910402602001604051908101604052809291908181526020018280546102af9061104d565b80156102fa5780601f106102d1576101008083540402835291602001916102fa565b820191905f5260205f20905b8154815290600101906020018083116102dd57829003601f168201915b5050505050905090565b60055f9054906101000a900473ffffffffffffffffffffffffffffffffffffffff1681565b5f80610333610659565b9050610340818585610660565b600191505092915050565b5f600254905090565b5f8061035e610659565b905061036b858285610672565b610376858585610704565b60019150509392505050565b5f6012905090565b5f805f8373ffffffffffffffffffffffffffffffffffffffff1673ffffffffffffffffffffffffffffffffffffffff1681526020019081526020015f20549050919050565b6060600480546103de9061104d565b80601f016020809104026020016040519081016040528092919081815260200182805461040a9061104d565b80156104555780601f1061042c57610100808354040283529160200191610455565b820191905f5260205f20905b81548152906001019060200180831161043857829003601f168201915b5050505050905090565b5f80610469610659565b9050610476818585610704565b600191505092915050565b5f60015f8473ffffffffffffffffffffffffffffffffffffffff1673ffffffffffffffffffffffffffffffffffffffff1681526020019081526020015f205f8373ffffffffffffffffffffffffffffffffffffffff1673ffffffffffffffffffffffffffffffffffffffff1681526020019081526020015f2054905092915050565b61050d33826107f4565b60055f9054906101000a900473ffffffffffffffffffffffffffffffffffffffff1673ffffffffffffffffffffffffffffffffffffffff1663a9059cbb33836040518363ffffffff1660e01b815260040161056992919061108c565b6020604051808303815f875af1158015610585573d5f803e3d5ffd5b505050506040513d601f19601f820116820180604052508101906105a991906110dd565b5050565b60055f9054906101000a900473ffffffffffffffffffffffffffffffffffffffff1673ffffffffffffffffffffffffffffffffffffffff166323b872dd3330846040518463ffffffff1660e01b815260040161060b93929190611108565b6020604051808303815f875af1158015610627573d5f803e3d5ffd5b505050506040513d601f19601f8201168201806040525081019061064b91906110dd565b506106563382610873565b50565b5f33905090565b61066d83838360016108f2565b505050565b5f61067d8484610481565b90507fffffffffffffffffffffffffffffffffffffffffffffffffffffffffffffffff81146106fe57818110156106ef578281836040517ffb8f41b20000000000000000000000000000000000000000000000000000000081526004016106e69392919061113d565b60405180910390fd5b6106fd84848484035f6108f2565b5b50505050565b5f73ffffffffffffffffffffffffffffffffffffffff168373ffffffffffffffffffffffffffffffffffffffff1603610774575f6040517f96c6fd1e00000000000000000000000000000000000000000000000000000000815260040161076b9190611172565b60405180910390fd5b5f73ffffffffffffffffffffffffffffffffffffffff168273ffffffffffffffffffffffffffffffffffffffff16036107e4575f6040517fec442f050000000000000000000000000000000000000000000000000000000081526004016107db9190611172565b60405180910390fd5b6107ef838383610ac1565b505050565b5f73ffffffffffffffffffffffffffffffffffffffff168273ffffffffffffffffffffffffffffffffffffffff1603610864575f6040517f96c6fd1e00000000000000000000000000000000000000000000000000000000815260040161085b9190611172565b60405180910390fd5b61086f825f83610ac1565b5050565b5f73ffffffffffffffffffffffffffffffffffffffff168273ffffffffffffffffffffffffffffffffffffffff16036108e3575f6040517fec442f050000000000000000000000000000000000000000000000000000000081526004016108da9190611172565b60405180910390fd5b6108ee5f8383610ac1565b5050565b5f73ffffffffffffffffffffffffffffffffffffffff168473ffffffffffffffffffffffffffffffffffffffff1603610962575f6040517fe602df050000000000000000000000000000000000000000000000000000000081526004016109599190611172565b60405180910390fd5b5f73ffffffffffffffffffffffffffffffffffffffff168373ffffffffffffffffffffffffffffffffffffffff16036109d2575f6040517f94280d620000000000000000000000000000000000000000000000000000000081526004016109c99190611172565b60405180910390fd5b8160015f8673ffffffffffffffffffffffffffffffffffffffff1673ffffffffffffffffffffffffffffffffffffffff1681526020019081526020015f205f8573ffffffffffffffffffffffffffffffffffffffff1673ffffffffffffffffffffffffffffffffffffffff1681526020019081526020015f20819055508015610abb578273ffffffffffffffffffffffffffffffffffffffff168473ffffffffffffffffffffffffffffffffffffffff167f8c5be1e5ebec7d5bd14f71427d1e84f3dd0314c0f7b2291e5b200ac8c7c3b92584604051610ab29190610eef565b60405180910390a35b50505050565b5f73ffffffffffffffffffffffffffffffffffffffff168373ffffffffffffffffffffffffffffffffffffffff1603610b11578060025f828254610b0591906111b8565b92505081905550610bdf565b5f805f8573ffffffffffffffffffffffffffffffffffffffff1673ffffffffffffffffffffffffffffffffffffffff1681526020019081526020015f2054905081811015610b9a578381836040517fe450d38c000000000000000000000000000000000000000000000000000000008152600401610b919392919061113d565b60405180910390fd5b8181035f808673ffffffffffffffffffffffffffffffffffffffff1673ffffffffffffffffffffffffffffffffffffffff1681526020019081526020015f2081905550505b5f73ffffffffffffffffffffffffffffffffffffffff168273ffffffffffffffffffffffffffffffffffffffff1603610c26578060025f8282540392505081905550610c70565b805f808473ffffffffffffffffffffffffffffffffffffffff1673ffffffffffffffffffffffffffffffffffffffff1681526020019081526020015f205f82825401925050819055505b8173ffffffffffffffffffffffffffffffffffffffff168373ffffffffffffffffffffffffffffffffffffffff167fddf252ad1be2c89b69c2b068fc378daa952ba7f163c4a11628f55a4df523b3ef83604051610ccd9190610eef565b60405180910390a3505050565b5f81519050919050565b5f82825260208201905092915050565b8281835e5f83830152505050565b5f601f19601f8301169050919050565b5f610d1c82610cda565b610d268185610ce4565b9350610d36818560208601610cf4565b610d3f81610d02565b840191505092915050565b5f6020820190508181035f830152610d628184610d12565b905092915050565b5f73ffffffffffffffffffffffffffffffffffffffff82169050919050565b5f819050919050565b5f610dac610da7610da284610d6a565b610d89565b610d6a565b9050919050565b5f610dbd82610d92565b9050919050565b5f610dce82610db3565b9050919050565b610dde81610dc4565b82525050565b5f602082019050610df75f830184610dd5565b92915050565b5f80fd5b5f610e0b82610d6a565b9050919050565b610e1b81610e01565b8114610e25575f80fd5b50565b5f81359050610e3681610e12565b92915050565b5f819050919050565b610e4e81610e3c565b8114610e58575f80fd5b50565b5f81359050610e6981610e45565b92915050565b5f8060408385031215610e8557610e84610dfd565b5b5f610e9285828601610e28565b9250506020610ea385828601610e5b565b9150509250929050565b5f8115159050919050565b610ec181610ead565b82525050565b5f602082019050610eda5f830184610eb8565b92915050565b610ee981610e3c565b82525050565b5f602082019050610f025f830184610ee0565b92915050565b5f805f60608486031215610f1f57610f1e610dfd565b5b5f610f2c86828701610e28565b9350506020610f3d86828701610e28565b9250506040610f4e86828701610e5b565b9150509250925092565b5f60ff82169050919050565b610f6d81610f58565b82525050565b5f602082019050610f865f830184610f64565b92915050565b5f60208284031215610fa157610fa0610dfd565b5b5f610fae84828501610e28565b91505092915050565b5f8060408385031215610fcd57610fcc610dfd565b5b5f610fda85828601610e28565b9250506020610feb85828601610e28565b9150509250929050565b5f6020828403121561100a57611009610dfd565b5b5f61101784828501610e5b565b91505092915050565b7f4e487b71000000000000000000000000000000000000000000000000000000005f52602260045260245ffd5b5f600282049050600182168061106457607f821691505b60208210810361107757611076611020565b5b50919050565b61108681610e01565b82525050565b5f60408201905061109f5f83018561107d565b6110ac6020830184610ee0565b9392505050565b6110bc81610ead565b81146110c6575f80fd5b50565b5f815190506110d7816110b3565b92915050565b5f602082840312156110f2576110f1610dfd565b5b5f6110ff848285016110c9565b91505092915050565b5f60608201905061111b5f83018661107d565b611128602083018561107d565b6111356040830184610ee0565b949350505050565b5f6060820190506111505f83018661107d565b61115d6020830185610ee0565b61116a6040830184610ee0565b949350505050565b5f6020820190506111855f83018461107d565b92915050565b7f4e487b71000000000000000000000000000000000000000000000000000000005f52601160045260245ffd5b5f6111c282610e3c565b91506111cd83610e3c565b92508282019050808211156111e5576111e461118b565b5b9291505056fea26469706673582212202592c7a19a6dbdfae2aa5c396b084acc7bd436176b8778850a8912a5532c338564736f6c634300081a0033",
					"opcodes": "PUSH1 0x80 PUSH1 0x40 MSTORE CALLVALUE DUP1 ISZERO PUSH2 0xF JUMPI PUSH0 DUP1 REVERT JUMPDEST POP PUSH1 0x40 MLOAD PUSH2 0x16C5 CODESIZE SUB DUP1 PUSH2 0x16C5 DUP4 CODECOPY DUP2 DUP2 ADD PUSH1 0x40 MSTORE DUP2 ADD SWAP1 PUSH2 0x31 SWAP2 SWAP1 PUSH2 0x163 JUMP JUMPDEST PUSH1 0x40 MLOAD DUP1 PUSH1 0x40 ADD PUSH1 0x40 MSTORE DUP1 PUSH1 0xB DUP2 MSTORE PUSH1 0x20 ADD PUSH32 0x5772617070656420454D50000000000000000000000000000000000000000000 DUP2 MSTORE POP PUSH1 0x40 MLOAD DUP1 PUSH1 0x40 ADD PUSH1 0x40 MSTORE DUP1 PUSH1 0x4 DUP2 MSTORE PUSH1 0x20 ADD PUSH32 0x57454D5000000000000000000000000000000000000000000000000000000000 DUP2 MSTORE POP DUP2 PUSH1 0x3 SWAP1 DUP2 PUSH2 0xAC SWAP2 SWAP1 PUSH2 0x3C8 JUMP JUMPDEST POP DUP1 PUSH1 0x4 SWAP1 DUP2 PUSH2 0xBC SWAP2 SWAP1 PUSH2 0x3C8 JUMP JUMPDEST POP POP POP DUP1 PUSH1 0x5 PUSH0 PUSH2 0x100 EXP DUP2 SLOAD DUP2 PUSH20 0xFFFFFFFFFFFFFFFFFFFFFFFFFFFFFFFFFFFFFFFF MUL NOT AND SWAP1 DUP4 PUSH20 0xFFFFFFFFFFFFFFFFFFFFFFFFFFFFFFFFFFFFFFFF AND MUL OR SWAP1 SSTORE POP POP PUSH2 0x497 JUMP JUMPDEST PUSH0 DUP1 REVERT JUMPDEST PUSH0 PUSH20 0xFFFFFFFFFFFFFFFFFFFFFFFFFFFFFFFFFFFFFFFF DUP3 AND SWAP1 POP SWAP2 SWAP1 POP JUMP JUMPDEST PUSH0 PUSH2 0x132 DUP3 PUSH2 0x109 JUMP JUMPDEST SWAP1 POP SWAP2 SWAP1 POP JUMP JUMPDEST PUSH2 0x142 DUP2 PUSH2 0x128 JUMP JUMPDEST DUP2 EQ PUSH2 0x14C JUMPI PUSH0 DUP1 REVERT JUMPDEST POP JUMP JUMPDEST PUSH0 DUP2 MLOAD SWAP1 POP PUSH2 0x15D DUP2 PUSH2 0x139 JUMP JUMPDEST SWAP3 SWAP2 POP POP JUMP JUMPDEST PUSH0 PUSH1 0x20 DUP3 DUP5 SUB SLT ISZERO PUSH2 0x178 JUMPI PUSH2 0x177 PUSH2 0x105 JUMP JUMPDEST JUMPDEST PUSH0 PUSH2 0x185 DUP5 DUP3 DUP6 ADD PUSH2 0x14F JUMP JUMPDEST SWAP2 POP POP SWAP3 SWAP2 POP POP JUMP JUMPDEST PUSH0 DUP2 MLOAD SWAP1 POP SWAP2 SWAP1 POP JUMP JUMPDEST PUSH32 0x4E487B7100000000000000000000000000000000000000000000000000000000 PUSH0 MSTORE PUSH1 0x41 PUSH1 0x4 MSTORE PUSH1 0x24 PUSH0 REVERT JUMPDEST PUSH32 0x4E487B7100000000000000000000000000000000000000000000000000000000 PUSH0 MSTORE PUSH1 0x22 PUSH1 0x4 MSTORE PUSH1 0x24 PUSH0 REVERT JUMPDEST PUSH0 PUSH1 0x2 DUP3 DIV SWAP1 POP PUSH1 0x1 DUP3 AND DUP1 PUSH2 0x209 JUMPI PUSH1 0x7F DUP3 AND SWAP2 POP JUMPDEST PUSH1 0x20 DUP3 LT DUP2 SUB PUSH2 0x21C JUMPI PUSH2 0x21B PUSH2 0x1C5 JUMP JUMPDEST JUMPDEST POP SWAP2 SWAP1 POP JUMP JUMPDEST PUSH0 DUP2 SWAP1 POP DUP2 PUSH0 MSTORE PUSH1 0x20 PUSH0 KECCAK256 SWAP1 POP SWAP2 SWAP1 POP JUMP JUMPDEST PUSH0 PUSH1 0x20 PUSH1 0x1F DUP4 ADD DIV SWAP1 POP SWAP2 SWAP1 POP JUMP JUMPDEST PUSH0 DUP3 DUP3 SHL SWAP1 POP SWAP3 SWAP2 POP POP JUMP JUMPDEST PUSH0 PUSH1 0x8 DUP4 MUL PUSH2 0x27E PUSH32 0xFFFFFFFFFFFFFFFFFFFFFFFFFFFFFFFFFFFFFFFFFFFFFFFFFFFFFFFFFFFFFFFF DUP3 PUSH2 0x243 JUMP JUMPDEST PUSH2 0x288 DUP7 DUP4 PUSH2 0x243 JUMP JUMPDEST SWAP6 POP DUP1 NOT DUP5 AND SWAP4 POP DUP1 DUP7 AND DUP5 OR SWAP3 POP POP POP SWAP4 SWAP3 POP POP POP JUMP JUMPDEST PUSH0 DUP2 SWAP1 POP SWAP2 SWAP1 POP JUMP JUMPDEST PUSH0 DUP2 SWAP1 POP SWAP2 SWAP1 POP JUMP JUMPDEST PUSH0 PUSH2 0x2CC PUSH2 0x2C7 PUSH2 0x2C2 DUP5 PUSH2 0x2A0 JUMP JUMPDEST PUSH2 0x2A9 JUMP JUMPDEST PUSH2 0x2A0 JUMP JUMPDEST SWAP1 POP SWAP2 SWAP1 POP JUMP JUMPDEST PUSH0 DUP2 SWAP1 POP SWAP2 SWAP1 POP JUMP JUMPDEST PUSH2 0x2E5 DUP4 PUSH2 0x2B2 JUMP JUMPDEST PUSH2 0x2F9 PUSH2 0x2F1 DUP3 PUSH2 0x2D3 JUMP JUMPDEST DUP5 DUP5 SLOAD PUSH2 0x24F JUMP JUMPDEST DUP3 SSTORE POP POP POP POP JUMP JUMPDEST PUSH0 SWAP1 JUMP JUMPDEST PUSH2 0x30D PUSH2 0x301 JUMP JUMPDEST PUSH2 0x318 DUP2 DUP5 DUP5 PUSH2 0x2DC JUMP JUMPDEST POP POP POP JUMP JUMPDEST JUMPDEST DUP2 DUP2 LT ISZERO PUSH2 0x33B JUMPI PUSH2 0x330 PUSH0 DUP3 PUSH2 0x305 JUMP JUMPDEST PUSH1 0x1 DUP2 ADD SWAP1 POP PUSH2 0x31E JUMP JUMPDEST POP POP JUMP JUMPDEST PUSH1 0x1F DUP3 GT ISZERO PUSH2 0x380 JUMPI PUSH2 0x351 DUP2 PUSH2 0x222 JUMP JUMPDEST PUSH2 0x35A DUP5 PUSH2 0x234 JUMP JUMPDEST DUP2 ADD PUSH1 0x20 DUP6 LT ISZERO PUSH2 0x369 JUMPI DUP2 SWAP1 POP JUMPDEST PUSH2 0x37D PUSH2 0x375 DUP6 PUSH2 0x234 JUMP JUMPDEST DUP4 ADD DUP3 PUSH2 0x31D JUMP JUMPDEST POP POP JUMPDEST POP POP POP JUMP JUMPDEST PUSH0 DUP3 DUP3 SHR SWAP1 POP SWAP3 SWAP2 POP POP JUMP JUMPDEST PUSH0 PUSH2 0x3A0 PUSH0 NOT DUP5 PUSH1 0x8 MUL PUSH2 0x385 JUMP JUMPDEST NOT DUP1 DUP4 AND SWAP2 POP POP SWAP3 SWAP2 POP POP JUMP JUMPDEST PUSH0 PUSH2 0x3B8 DUP4 DUP4 PUSH2 0x391 JUMP JUMPDEST SWAP2 POP DUP3 PUSH1 0x2 MUL DUP3 OR SWAP1 POP SWAP3 SWAP2 POP POP JUMP JUMPDEST PUSH2 0x3D1 DUP3 PUSH2 0x18E JUMP JUMPDEST PUSH8 0xFFFFFFFFFFFFFFFF DUP2 GT ISZERO PUSH2 0x3EA JUMPI PUSH2 0x3E9 PUSH2 0x198 JUMP JUMPDEST JUMPDEST PUSH2 0x3F4 DUP3 SLOAD PUSH2 0x1F2 JUMP JUMPDEST PUSH2 0x3FF DUP3 DUP3 DUP6 PUSH2 0x33F JUMP JUMPDEST PUSH0 PUSH1 0x20 SWAP1 POP PUSH1 0x1F DUP4 GT PUSH1 0x1 DUP2 EQ PUSH2 0x430 JUMPI PUSH0 DUP5 ISZERO PUSH2 0x41E JUMPI DUP3 DUP8 ADD MLOAD SWAP1 POP JUMPDEST PUSH2 0x428 DUP6 DUP3 PUSH2 0x3AD JUMP JUMPDEST DUP7 SSTORE POP PUSH2 0x48F JUMP JUMPDEST PUSH1 0x1F NOT DUP5 AND PUSH2 0x43E DUP7 PUSH2 0x222 JUMP JUMPDEST PUSH0 JUMPDEST DUP3 DUP2 LT ISZERO PUSH2 0x465 JUMPI DUP5 DUP10 ADD MLOAD DUP3 SSTORE PUSH1 0x1 DUP3 ADD SWAP2 POP PUSH1 0x20 DUP6 ADD SWAP5 POP PUSH1 0x20 DUP2 ADD SWAP1 POP PUSH2 0x440 JUMP JUMPDEST DUP7 DUP4 LT ISZERO PUSH2 0x482 JUMPI DUP5 DUP10 ADD MLOAD PUSH2 0x47E PUSH1 0x1F DUP10 AND DUP3 PUSH2 0x391 JUMP JUMPDEST DUP4 SSTORE POP JUMPDEST PUSH1 0x1 PUSH1 0x2 DUP9 MUL ADD DUP9 SSTORE POP POP POP JUMPDEST POP POP POP POP POP POP JUMP JUMPDEST PUSH2 0x1221 DUP1 PUSH2 0x4A4 PUSH0 CODECOPY PUSH0 RETURN INVALID PUSH1 0x80 PUSH1 0x40 MSTORE CALLVALUE DUP1 ISZERO PUSH2 0xF JUMPI PUSH0 DUP1 REVERT JUMPDEST POP PUSH1 0x4 CALLDATASIZE LT PUSH2 0xB2 JUMPI PUSH0 CALLDATALOAD PUSH1 0xE0 SHR DUP1 PUSH4 0x70A08231 GT PUSH2 0x6F JUMPI DUP1 PUSH4 0x70A08231 EQ PUSH2 0x18E JUMPI DUP1 PUSH4 0x95D89B41 EQ PUSH2 0x1BE JUMPI DUP1 PUSH4 0xA9059CBB EQ PUSH2 0x1DC JUMPI DUP1 PUSH4 0xDD62ED3E EQ PUSH2 0x20C JUMPI DUP1 PUSH4 0xDE0E9A3E EQ PUSH2 0x23C JUMPI DUP1 PUSH4 0xEA598CB0 EQ PUSH2 0x258 JUMPI PUSH2 0xB2 JUMP JUMPDEST DUP1 PUSH4 0x6FDDE03 EQ PUSH2 0xB6 JUMPI DUP1 PUSH4 0x7EB1899 EQ PUSH2 0xD4 JUMPI DUP1 PUSH4 0x95EA7B3 EQ PUSH2 0xF2 JUMPI DUP1 PUSH4 0x18160DDD EQ PUSH2 0x122 JUMPI DUP1 PUSH4 0x23B872DD EQ PUSH2 0x140 JUMPI DUP1 PUSH4 0x313CE567 EQ PUSH2 0x170 JUMPI JUMPDEST PUSH0 DUP1 REVERT JUMPDEST PUSH2 0xBE PUSH2 0x274 JUMP JUMPDEST PUSH1 0x40 MLOAD PUSH2 0xCB SWAP2 SWAP1 PUSH2 0xD4A JUMP JUMPDEST PUSH1 0x40 MLOAD DUP1 SWAP2 SUB SWAP1 RETURN JUMPDEST PUSH2 0xDC PUSH2 0x304 JUMP JUMPDEST PUSH1 0x40 MLOAD PUSH2 0xE9 SWAP2 SWAP1 PUSH2 0xDE4 JUMP JUMPDEST PUSH1 0x40 MLOAD DUP1 SWAP2 SUB SWAP1 RETURN JUMPDEST PUSH2 0x10C PUSH1 0x4 DUP1 CALLDATASIZE SUB DUP2 ADD SWAP1 PUSH2 0x107 SWAP2 SWAP1 PUSH2 0xE6F JUMP JUMPDEST PUSH2 0x329 JUMP JUMPDEST PUSH1 0x40 MLOAD PUSH2 0x119 SWAP2 SWAP1 PUSH2 0xEC7 JUMP JUMPDEST PUSH1 0x40 MLOAD DUP1 SWAP2 SUB SWAP1 RETURN JUMPDEST PUSH2 0x12A PUSH2 0x34B JUMP JUMPDEST PUSH1 0x40 MLOAD PUSH2 0x137 SWAP2 SWAP1 PUSH2 0xEEF JUMP JUMPDEST PUSH1 0x40 MLOAD DUP1 SWAP2 SUB SWAP1 RETURN JUMPDEST PUSH2 0x15A PUSH1 0x4 DUP1 CALLDATASIZE SUB DUP2 ADD SWAP1 PUSH2 0x155 SWAP2 SWAP1 PUSH2 0xF08 JUMP JUMPDEST PUSH2 0x354 JUMP JUMPDEST PUSH1 0x40 MLOAD PUSH2 0x167 SWAP2 SWAP1 PUSH2 0xEC7 JUMP JUMPDEST PUSH1 0x40 MLOAD DUP1 SWAP2 SUB SWAP1 RETURN JUMPDEST PUSH2 0x178 PUSH2 0x382 JUMP JUMPDEST PUSH1 0x40 MLOAD PUSH2 0x185 SWAP2 SWAP1 PUSH2 0xF73 JUMP JUMPDEST PUSH1 0x40 MLOAD DUP1 SWAP2 SUB SWAP1 RETURN JUMPDEST PUSH2 0x1A8 PUSH1 0x4 DUP1 CALLDATASIZE SUB DUP2 ADD SWAP1 PUSH2 0x1A3 SWAP2 SWAP1 PUSH2 0xF8C JUMP JUMPDEST PUSH2 0x38A JUMP JUMPDEST PUSH1 0x40 MLOAD PUSH2 0x1B5 SWAP2 SWAP1 PUSH2 0xEEF JUMP JUMPDEST PUSH1 0x40 MLOAD DUP1 SWAP2 SUB SWAP1 RETURN JUMPDEST PUSH2 0x1C6 PUSH2 0x3CF JUMP JUMPDEST PUSH1 0x40 MLOAD PUSH2 0x1D3 SWAP2 SWAP1 PUSH2 0xD4A JUMP JUMPDEST PUSH1 0x40 MLOAD DUP1 SWAP2 SUB SWAP1 RETURN JUMPDEST PUSH2 0x1F6 PUSH1 0x4 DUP1 CALLDATASIZE SUB DUP2 ADD SWAP1 PUSH2 0x1F1 SWAP2 SWAP1 PUSH2 0xE6F JUMP JUMPDEST PUSH2 0x45F JUMP JUMPDEST PUSH1 0x40 MLOAD PUSH2 0x203 SWAP2 SWAP1 PUSH2 0xEC7 JUMP JUMPDEST PUSH1 0x40 MLOAD DUP1 SWAP2 SUB SWAP1 RETURN JUMPDEST PUSH2 0x226 PUSH1 0x4 DUP1 CALLDATASIZE SUB DUP2 ADD SWAP1 PUSH2 0x221 SWAP2 SWAP1 PUSH2 0xFB7 JUMP JUMPDEST PUSH2 0x481 JUMP JUMPDEST PUSH1 0x40 MLOAD PUSH2 0x233 SWAP2 SWAP1 PUSH2 0xEEF JUMP JUMPDEST PUSH1 0x40 MLOAD DUP1 SWAP2 SUB SWAP1 RETURN JUMPDEST PUSH2 0x256 PUSH1 0x4 DUP1 CALLDATASIZE SUB DUP2 ADD SWAP1 PUSH2 0x251 SWAP2 SWAP1 PUSH2 0xFF5 JUMP JUMPDEST PUSH2 0x503 JUMP JUMPDEST STOP JUMPDEST PUSH2 0x272 PUSH1 0x4 DUP1 CALLDATASIZE SUB DUP2 ADD SWAP1 PUSH2 0x26D SWAP2 SWAP1 PUSH2 0xFF5 JUMP JUMPDEST PUSH2 0x5AD JUMP JUMPDEST STOP JUMPDEST PUSH1 0x60 PUSH1 0x3 DUP1 SLOAD PUSH2 0x283 SWAP1 PUSH2 0x104D JUMP JUMPDEST DUP1 PUSH1 0x1F ADD PUSH1 0x20 DUP1 SWAP2 DIV MUL PUSH1 0x20 ADD PUSH1 0x40 MLOAD SWAP1 DUP2 ADD PUSH1 0x40 MSTORE DUP1 SWAP3 SWAP2 SWAP1 DUP2 DUP2 MSTORE PUSH1 0x20 ADD DUP3 DUP1 SLOAD PUSH2 0x2AF SWAP1 PUSH2 0x104D JUMP JUMPDEST DUP1 ISZERO PUSH2 0x2FA JUMPI DUP1 PUSH1 0x1F LT PUSH2 0x2D1 JUMPI PUSH2 0x100 DUP1 DUP4 SLOAD DIV MUL DUP4 MSTORE SWAP2 PUSH1 0x20 ADD SWAP2 PUSH2 0x2FA JUMP JUMPDEST DUP3 ADD SWAP2 SWAP1 PUSH0 MSTORE PUSH1 0x20 PUSH0 KECCAK256 SWAP1 JUMPDEST DUP2 SLOAD DUP2 MSTORE SWAP1 PUSH1 0x1 ADD SWAP1 PUSH1 0x20 ADD DUP1 DUP4 GT PUSH2 0x2DD JUMPI DUP3 SWAP1 SUB PUSH1 0x1F AND DUP3 ADD SWAP2 JUMPDEST POP POP POP POP POP SWAP1 POP SWAP1 JUMP JUMPDEST PUSH1 0x5 PUSH0 SWAP1 SLOAD SWAP1 PUSH2 0x100 EXP SWAP1 DIV PUSH20 0xFFFFFFFFFFFFFFFFFFFFFFFFFFFFFFFFFFFFFFFF AND DUP2 JUMP JUMPDEST PUSH0 DUP1 PUSH2 0x333 PUSH2 0x659 JUMP JUMPDEST SWAP1 POP PUSH2 0x340 DUP2 DUP6 DUP6 PUSH2 0x660 JUMP JUMPDEST PUSH1 0x1 SWAP2 POP POP SWAP3 SWAP2 POP POP JUMP JUMPDEST PUSH0 PUSH1 0x2 SLOAD SWAP1 POP SWAP1 JUMP JUMPDEST PUSH0 DUP1 PUSH2 0x35E PUSH2 0x659 JUMP JUMPDEST SWAP1 POP PUSH2 0x36B DUP6 DUP3 DUP6 PUSH2 0x672 JUMP JUMPDEST PUSH2 0x376 DUP6 DUP6 DUP6 PUSH2 0x704 JUMP JUMPDEST PUSH1 0x1 SWAP2 POP POP SWAP4 SWAP3 POP POP POP JUMP JUMPDEST PUSH0 PUSH1 0x12 SWAP1 POP SWAP1 JUMP JUMPDEST PUSH0 DUP1 PUSH0 DUP4 PUSH20 0xFFFFFFFFFFFFFFFFFFFFFFFFFFFFFFFFFFFFFFFF AND PUSH20 0xFFFFFFFFFFFFFFFFFFFFFFFFFFFFFFFFFFFFFFFF AND DUP2 MSTORE PUSH1 0x20 ADD SWAP1 DUP2 MSTORE PUSH1 0x20 ADD PUSH0 KECCAK256 SLOAD SWAP1 POP SWAP2 SWAP1 POP JUMP JUMPDEST PUSH1 0x60 PUSH1 0x4 DUP1 SLOAD PUSH2 0x3DE SWAP1 PUSH2 0x104D JUMP JUMPDEST DUP1 PUSH1 0x1F ADD PUSH1 0x20 DUP1 SWAP2 DIV MUL PUSH1 0x20 ADD PUSH1 0x40 MLOAD SWAP1 DUP2 ADD PUSH1 0x40 MSTORE DUP1 SWAP3 SWAP2 SWAP1 DUP2 DUP2 MSTORE PUSH1 0x20 ADD DUP3 DUP1 SLOAD PUSH2 0x40A SWAP1 PUSH2 0x104D JUMP JUMPDEST DUP1 ISZERO PUSH2 0x455 JUMPI DUP1 PUSH1 0x1F LT PUSH2 0x42C JUMPI PUSH2 0x100 DUP1 DUP4 SLOAD DIV MUL DUP4 MSTORE SWAP2 PUSH1 0x20 ADD SWAP2 PUSH2 0x455 JUMP JUMPDEST DUP3 ADD SWAP2 SWAP1 PUSH0 MSTORE PUSH1 0x20 PUSH0 KECCAK256 SWAP1 JUMPDEST DUP2 SLOAD DUP2 MSTORE SWAP1 PUSH1 0x1 ADD SWAP1 PUSH1 0x20 ADD DUP1 DUP4 GT PUSH2 0x438 JUMPI DUP3 SWAP1 SUB PUSH1 0x1F AND DUP3 ADD SWAP2 JUMPDEST POP POP POP POP POP SWAP1 POP SWAP1 JUMP JUMPDEST PUSH0 DUP1 PUSH2 0x469 PUSH2 0x659 JUMP JUMPDEST SWAP1 POP PUSH2 0x476 DUP2 DUP6 DUP6 PUSH2 0x704 JUMP JUMPDEST PUSH1 0x1 SWAP2 POP POP SWAP3 SWAP2 POP POP JUMP JUMPDEST PUSH0 PUSH1 0x1 PUSH0 DUP5 PUSH20 0xFFFFFFFFFFFFFFFFFFFFFFFFFFFFFFFFFFFFFFFF AND PUSH20 0xFFFFFFFFFFFFFFFFFFFFFFFFFFFFFFFFFFFFFFFF AND DUP2 MSTORE PUSH1 0x20 ADD SWAP1 DUP2 MSTORE PUSH1 0x20 ADD PUSH0 KECCAK256 PUSH0 DUP4 PUSH20 0xFFFFFFFFFFFFFFFFFFFFFFFFFFFFFFFFFFFFFFFF AND PUSH20 0xFFFFFFFFFFFFFFFFFFFFFFFFFFFFFFFFFFFFFFFF AND DUP2 MSTORE PUSH1 0x20 ADD SWAP1 DUP2 MSTORE PUSH1 0x20 ADD PUSH0 KECCAK256 SLOAD SWAP1 POP SWAP3 SWAP2 POP POP JUMP JUMPDEST PUSH2 0x50D CALLER DUP3 PUSH2 0x7F4 JUMP JUMPDEST PUSH1 0x5 PUSH0 SWAP1 SLOAD SWAP1 PUSH2 0x100 EXP SWAP1 DIV PUSH20 0xFFFFFFFFFFFFFFFFFFFFFFFFFFFFFFFFFFFFFFFF AND PUSH20 0xFFFFFFFFFFFFFFFFFFFFFFFFFFFFFFFFFFFFFFFF AND PUSH4 0xA9059CBB CALLER DUP4 PUSH1 0x40 MLOAD DUP4 PUSH4 0xFFFFFFFF AND PUSH1 0xE0 SHL DUP2 MSTORE PUSH1 0x4 ADD PUSH2 0x569 SWAP3 SWAP2 SWAP1 PUSH2 0x108C JUMP JUMPDEST PUSH1 0x20 PUSH1 0x40 MLOAD DUP1 DUP4 SUB DUP2 PUSH0 DUP8 GAS CALL ISZERO DUP1 ISZERO PUSH2 0x585 JUMPI RETURNDATASIZE PUSH0 DUP1 RETURNDATACOPY RETURNDATASIZE PUSH0 REVERT JUMPDEST POP POP POP POP PUSH1 0x40 MLOAD RETURNDATASIZE PUSH1 0x1F NOT PUSH1 0x1F DUP3 ADD AND DUP3 ADD DUP1 PUSH1 0x40 MSTORE POP DUP2 ADD SWAP1 PUSH2 0x5A9 SWAP2 SWAP1 PUSH2 0x10DD JUMP JUMPDEST POP POP JUMP JUMPDEST PUSH1 0x5 PUSH0 SWAP1 SLOAD SWAP1 PUSH2 0x100 EXP SWAP1 DIV PUSH20 0xFFFFFFFFFFFFFFFFFFFFFFFFFFFFFFFFFFFFFFFF AND PUSH20 0xFFFFFFFFFFFFFFFFFFFFFFFFFFFFFFFFFFFFFFFF AND PUSH4 0x23B872DD CALLER ADDRESS DUP5 PUSH1 0x40 MLOAD DUP5 PUSH4 0xFFFFFFFF AND PUSH1 0xE0 SHL DUP2 MSTORE PUSH1 0x4 ADD PUSH2 0x60B SWAP4 SWAP3 SWAP2 SWAP1 PUSH2 0x1108 JUMP JUMPDEST PUSH1 0x20 PUSH1 0x40 MLOAD DUP1 DUP4 SUB DUP2 PUSH0 DUP8 GAS CALL ISZERO DUP1 ISZERO PUSH2 0x627 JUMPI RETURNDATASIZE PUSH0 DUP1 RETURNDATACOPY RETURNDATASIZE PUSH0 REVERT JUMPDEST POP POP POP POP PUSH1 0x40 MLOAD RETURNDATASIZE PUSH1 0x1F NOT PUSH1 0x1F DUP3 ADD AND DUP3 ADD DUP1 PUSH1 0x40 MSTORE POP DUP2 ADD SWAP1 PUSH2 0x64B SWAP2 SWAP1 PUSH2 0x10DD JUMP JUMPDEST POP PUSH2 0x656 CALLER DUP3 PUSH2 0x873 JUMP JUMPDEST POP JUMP JUMPDEST PUSH0 CALLER SWAP1 POP SWAP1 JUMP JUMPDEST PUSH2 0x66D DUP4 DUP4 DUP4 PUSH1 0x1 PUSH2 0x8F2 JUMP JUMPDEST POP POP POP JUMP JUMPDEST PUSH0 PUSH2 0x67D DUP5 DUP5 PUSH2 0x481 JUMP JUMPDEST SWAP1 POP PUSH32 0xFFFFFFFFFFFFFFFFFFFFFFFFFFFFFFFFFFFFFFFFFFFFFFFFFFFFFFFFFFFFFFFF DUP2 EQ PUSH2 0x6FE JUMPI DUP2 DUP2 LT ISZERO PUSH2 0x6EF JUMPI DUP3 DUP2 DUP4 PUSH1 0x40 MLOAD PUSH32 0xFB8F41B200000000000000000000000000000000000000000000000000000000 DUP2 MSTORE PUSH1 0x4 ADD PUSH2 0x6E6 SWAP4 SWAP3 SWAP2 SWAP1 PUSH2 0x113D JUMP JUMPDEST PUSH1 0x40 MLOAD DUP1 SWAP2 SUB SWAP1 REVERT JUMPDEST PUSH2 0x6FD DUP5 DUP5 DUP5 DUP5 SUB PUSH0 PUSH2 0x8F2 JUMP JUMPDEST JUMPDEST POP POP POP POP JUMP JUMPDEST PUSH0 PUSH20 0xFFFFFFFFFFFFFFFFFFFFFFFFFFFFFFFFFFFFFFFF AND DUP4 PUSH20 0xFFFFFFFFFFFFFFFFFFFFFFFFFFFFFFFFFFFFFFFF AND SUB PUSH2 0x774 JUMPI PUSH0 PUSH1 0x40 MLOAD PUSH32 0x96C6FD1E00000000000000000000000000000000000000000000000000000000 DUP2 MSTORE PUSH1 0x4 ADD PUSH2 0x76B SWAP2 SWAP1 PUSH2 0x1172 JUMP JUMPDEST PUSH1 0x40 MLOAD DUP1 SWAP2 SUB SWAP1 REVERT JUMPDEST PUSH0 PUSH20 0xFFFFFFFFFFFFFFFFFFFFFFFFFFFFFFFFFFFFFFFF AND DUP3 PUSH20 0xFFFFFFFFFFFFFFFFFFFFFFFFFFFFFFFFFFFFFFFF AND SUB PUSH2 0x7E4 JUMPI PUSH0 PUSH1 0x40 MLOAD PUSH32 0xEC442F0500000000000000000000000000000000000000000000000000000000 DUP2 MSTORE PUSH1 0x4 ADD PUSH2 0x7DB SWAP2 SWAP1 PUSH2 0x1172 JUMP JUMPDEST PUSH1 0x40 MLOAD DUP1 SWAP2 SUB SWAP1 REVERT JUMPDEST PUSH2 0x7EF DUP4 DUP4 DUP4 PUSH2 0xAC1 JUMP JUMPDEST POP POP POP JUMP JUMPDEST PUSH0 PUSH20 0xFFFFFFFFFFFFFFFFFFFFFFFFFFFFFFFFFFFFFFFF AND DUP3 PUSH20 0xFFFFFFFFFFFFFFFFFFFFFFFFFFFFFFFFFFFFFFFF AND SUB PUSH2 0x864 JUMPI PUSH0 PUSH1 0x40 MLOAD PUSH32 0x96C6FD1E00000000000000000000000000000000000000000000000000000000 DUP2 MSTORE PUSH1 0x4 ADD PUSH2 0x85B SWAP2 SWAP1 PUSH2 0x1172 JUMP JUMPDEST PUSH1 0x40 MLOAD DUP1 SWAP2 SUB SWAP1 REVERT JUMPDEST PUSH2 0x86F DUP3 PUSH0 DUP4 PUSH2 0xAC1 JUMP JUMPDEST POP POP JUMP JUMPDEST PUSH0 PUSH20 0xFFFFFFFFFFFFFFFFFFFFFFFFFFFFFFFFFFFFFFFF AND DUP3 PUSH20 0xFFFFFFFFFFFFFFFFFFFFFFFFFFFFFFFFFFFFFFFF AND SUB PUSH2 0x8E3 JUMPI PUSH0 PUSH1 0x40 MLOAD PUSH32 0xEC442F0500000000000000000000000000000000000000000000000000000000 DUP2 MSTORE PUSH1 0x4 ADD PUSH2 0x8DA SWAP2 SWAP1 PUSH2 0x1172 JUMP JUMPDEST PUSH1 0x40 MLOAD DUP1 SWAP2 SUB SWAP1 REVERT JUMPDEST PUSH2 0x8EE PUSH0 DUP4 DUP4 PUSH2 0xAC1 JUMP JUMPDEST POP POP JUMP JUMPDEST PUSH0 PUSH20 0xFFFFFFFFFFFFFFFFFFFFFFFFFFFFFFFFFFFFFFFF AND DUP5 PUSH20 0xFFFFFFFFFFFFFFFFFFFFFFFFFFFFFFFFFFFFFFFF AND SUB PUSH2 0x962 JUMPI PUSH0 PUSH1 0x40 MLOAD PUSH32 0xE602DF0500000000000000000000000000000000000000000000000000000000 DUP2 MSTORE PUSH1 0x4 ADD PUSH2 0x959 SWAP2 SWAP1 PUSH2 0x1172 JUMP JUMPDEST PUSH1 0x40 MLOAD DUP1 SWAP2 SUB SWAP1 REVERT JUMPDEST PUSH0 PUSH20 0xFFFFFFFFFFFFFFFFFFFFFFFFFFFFFFFFFFFFFFFF AND DUP4 PUSH20 0xFFFFFFFFFFFFFFFFFFFFFFFFFFFFFFFFFFFFFFFF AND SUB PUSH2 0x9D2 JUMPI PUSH0 PUSH1 0x40 MLOAD PUSH32 0x94280D6200000000000000000000000000000000000000000000000000000000 DUP2 MSTORE PUSH1 0x4 ADD PUSH2 0x9C9 SWAP2 SWAP1 PUSH2 0x1172 JUMP JUMPDEST PUSH1 0x40 MLOAD DUP1 SWAP2 SUB SWAP1 REVERT JUMPDEST DUP2 PUSH1 0x1 PUSH0 DUP7 PUSH20 0xFFFFFFFFFFFFFFFFFFFFFFFFFFFFFFFFFFFFFFFF AND PUSH20 0xFFFFFFFFFFFFFFFFFFFFFFFFFFFFFFFFFFFFFFFF AND DUP2 MSTORE PUSH1 0x20 ADD SWAP1 DUP2 MSTORE PUSH1 0x20 ADD PUSH0 KECCAK256 PUSH0 DUP6 PUSH20 0xFFFFFFFFFFFFFFFFFFFFFFFFFFFFFFFFFFFFFFFF AND PUSH20 0xFFFFFFFFFFFFFFFFFFFFFFFFFFFFFFFFFFFFFFFF AND DUP2 MSTORE PUSH1 0x20 ADD SWAP1 DUP2 MSTORE PUSH1 0x20 ADD PUSH0 KECCAK256 DUP2 SWAP1 SSTORE POP DUP1 ISZERO PUSH2 0xABB JUMPI DUP3 PUSH20 0xFFFFFFFFFFFFFFFFFFFFFFFFFFFFFFFFFFFFFFFF AND DUP5 PUSH20 0xFFFFFFFFFFFFFFFFFFFFFFFFFFFFFFFFFFFFFFFF AND PUSH32 0x8C5BE1E5EBEC7D5BD14F71427D1E84F3DD0314C0F7B2291E5B200AC8C7C3B925 DUP5 PUSH1 0x40 MLOAD PUSH2 0xAB2 SWAP2 SWAP1 PUSH2 0xEEF JUMP JUMPDEST PUSH1 0x40 MLOAD DUP1 SWAP2 SUB SWAP1 LOG3 JUMPDEST POP POP POP POP JUMP JUMPDEST PUSH0 PUSH20 0xFFFFFFFFFFFFFFFFFFFFFFFFFFFFFFFFFFFFFFFF AND DUP4 PUSH20 0xFFFFFFFFFFFFFFFFFFFFFFFFFFFFFFFFFFFFFFFF AND SUB PUSH2 0xB11 JUMPI DUP1 PUSH1 0x2 PUSH0 DUP3 DUP3 SLOAD PUSH2 0xB05 SWAP2 SWAP1 PUSH2 0x11B8 JUMP JUMPDEST SWAP3 POP POP DUP2 SWAP1 SSTORE POP PUSH2 0xBDF JUMP JUMPDEST PUSH0 DUP1 PUSH0 DUP6 PUSH20 0xFFFFFFFFFFFFFFFFFFFFFFFFFFFFFFFFFFFFFFFF AND PUSH20 0xFFFFFFFFFFFFFFFFFFFFFFFFFFFFFFFFFFFFFFFF AND DUP2 MSTORE PUSH1 0x20 ADD SWAP1 DUP2 MSTORE PUSH1 0x20 ADD PUSH0 KECCAK256 SLOAD SWAP1 POP DUP2 DUP2 LT ISZERO PUSH2 0xB9A JUMPI DUP4 DUP2 DUP4 PUSH1 0x40 MLOAD PUSH32 0xE450D38C00000000000000000000000000000000000000000000000000000000 DUP2 MSTORE PUSH1 0x4 ADD PUSH2 0xB91 SWAP4 SWAP3 SWAP2 SWAP1 PUSH2 0x113D JUMP JUMPDEST PUSH1 0x40 MLOAD DUP1 SWAP2 SUB SWAP1 REVERT JUMPDEST DUP2 DUP2 SUB PUSH0 DUP1 DUP7 PUSH20 0xFFFFFFFFFFFFFFFFFFFFFFFFFFFFFFFFFFFFFFFF AND PUSH20 0xFFFFFFFFFFFFFFFFFFFFFFFFFFFFFFFFFFFFFFFF AND DUP2 MSTORE PUSH1 0x20 ADD SWAP1 DUP2 MSTORE PUSH1 0x20 ADD PUSH0 KECCAK256 DUP2 SWAP1 SSTORE POP POP JUMPDEST PUSH0 PUSH20 0xFFFFFFFFFFFFFFFFFFFFFFFFFFFFFFFFFFFFFFFF AND DUP3 PUSH20 0xFFFFFFFFFFFFFFFFFFFFFFFFFFFFFFFFFFFFFFFF AND SUB PUSH2 0xC26 JUMPI DUP1 PUSH1 0x2 PUSH0 DUP3 DUP3 SLOAD SUB SWAP3 POP POP DUP2 SWAP1 SSTORE POP PUSH2 0xC70 JUMP JUMPDEST DUP1 PUSH0 DUP1 DUP5 PUSH20 0xFFFFFFFFFFFFFFFFFFFFFFFFFFFFFFFFFFFFFFFF AND PUSH20 0xFFFFFFFFFFFFFFFFFFFFFFFFFFFFFFFFFFFFFFFF AND DUP2 MSTORE PUSH1 0x20 ADD SWAP1 DUP2 MSTORE PUSH1 0x20 ADD PUSH0 KECCAK256 PUSH0 DUP3 DUP3 SLOAD ADD SWAP3 POP POP DUP2 SWAP1 SSTORE POP JUMPDEST DUP2 PUSH20 0xFFFFFFFFFFFFFFFFFFFFFFFFFFFFFFFFFFFFFFFF AND DUP4 PUSH20 0xFFFFFFFFFFFFFFFFFFFFFFFFFFFFFFFFFFFFFFFF AND PUSH32 0xDDF252AD1BE2C89B69C2B068FC378DAA952BA7F163C4A11628F55A4DF523B3EF DUP4 PUSH1 0x40 MLOAD PUSH2 0xCCD SWAP2 SWAP1 PUSH2 0xEEF JUMP JUMPDEST PUSH1 0x40 MLOAD DUP1 SWAP2 SUB SWAP1 LOG3 POP POP POP JUMP JUMPDEST PUSH0 DUP2 MLOAD SWAP1 POP SWAP2 SWAP1 POP JUMP JUMPDEST PUSH0 DUP3 DUP3 MSTORE PUSH1 0x20 DUP3 ADD SWAP1 POP SWAP3 SWAP2 POP POP JUMP JUMPDEST DUP3 DUP2 DUP4 MCOPY PUSH0 DUP4 DUP4 ADD MSTORE POP POP POP JUMP JUMPDEST PUSH0 PUSH1 0x1F NOT PUSH1 0x1F DUP4 ADD AND SWAP1 POP SWAP2 SWAP1 POP JUMP JUMPDEST PUSH0 PUSH2 0xD1C DUP3 PUSH2 0xCDA JUMP JUMPDEST PUSH2 0xD26 DUP2 DUP6 PUSH2 0xCE4 JUMP JUMPDEST SWAP4 POP PUSH2 0xD36 DUP2 DUP6 PUSH1 0x20 DUP7 ADD PUSH2 0xCF4 JUMP JUMPDEST PUSH2 0xD3F DUP2 PUSH2 0xD02 JUMP JUMPDEST DUP5 ADD SWAP2 POP POP SWAP3 SWAP2 POP POP JUMP JUMPDEST PUSH0 PUSH1 0x20 DUP3 ADD SWAP1 POP DUP2 DUP2 SUB PUSH0 DUP4 ADD MSTORE PUSH2 0xD62 DUP2 DUP5 PUSH2 0xD12 JUMP JUMPDEST SWAP1 POP SWAP3 SWAP2 POP POP JUMP JUMPDEST PUSH0 PUSH20 0xFFFFFFFFFFFFFFFFFFFFFFFFFFFFFFFFFFFFFFFF DUP3 AND SWAP1 POP SWAP2 SWAP1 POP JUMP JUMPDEST PUSH0 DUP2 SWAP1 POP SWAP2 SWAP1 POP JUMP JUMPDEST PUSH0 PUSH2 0xDAC PUSH2 0xDA7 PUSH2 0xDA2 DUP5 PUSH2 0xD6A JUMP JUMPDEST PUSH2 0xD89 JUMP JUMPDEST PUSH2 0xD6A JUMP JUMPDEST SWAP1 POP SWAP2 SWAP1 POP JUMP JUMPDEST PUSH0 PUSH2 0xDBD DUP3 PUSH2 0xD92 JUMP JUMPDEST SWAP1 POP SWAP2 SWAP1 POP JUMP JUMPDEST PUSH0 PUSH2 0xDCE DUP3 PUSH2 0xDB3 JUMP JUMPDEST SWAP1 POP SWAP2 SWAP1 POP JUMP JUMPDEST PUSH2 0xDDE DUP2 PUSH2 0xDC4 JUMP JUMPDEST DUP3 MSTORE POP POP JUMP JUMPDEST PUSH0 PUSH1 0x20 DUP3 ADD SWAP1 POP PUSH2 0xDF7 PUSH0 DUP4 ADD DUP5 PUSH2 0xDD5 JUMP JUMPDEST SWAP3 SWAP2 POP POP JUMP JUMPDEST PUSH0 DUP1 REVERT JUMPDEST PUSH0 PUSH2 0xE0B DUP3 PUSH2 0xD6A JUMP JUMPDEST SWAP1 POP SWAP2 SWAP1 POP JUMP JUMPDEST PUSH2 0xE1B DUP2 PUSH2 0xE01 JUMP JUMPDEST DUP2 EQ PUSH2 0xE25 JUMPI PUSH0 DUP1 REVERT JUMPDEST POP JUMP JUMPDEST PUSH0 DUP2 CALLDATALOAD SWAP1 POP PUSH2 0xE36 DUP2 PUSH2 0xE12 JUMP JUMPDEST SWAP3 SWAP2 POP POP JUMP JUMPDEST PUSH0 DUP2 SWAP1 POP SWAP2 SWAP1 POP JUMP JUMPDEST PUSH2 0xE4E DUP2 PUSH2 0xE3C JUMP JUMPDEST DUP2 EQ PUSH2 0xE58 JUMPI PUSH0 DUP1 REVERT JUMPDEST POP JUMP JUMPDEST PUSH0 DUP2 CALLDATALOAD SWAP1 POP PUSH2 0xE69 DUP2 PUSH2 0xE45 JUMP JUMPDEST SWAP3 SWAP2 POP POP JUMP JUMPDEST PUSH0 DUP1 PUSH1 0x40 DUP4 DUP6 SUB SLT ISZERO PUSH2 0xE85 JUMPI PUSH2 0xE84 PUSH2 0xDFD JUMP JUMPDEST JUMPDEST PUSH0 PUSH2 0xE92 DUP6 DUP3 DUP7 ADD PUSH2 0xE28 JUMP JUMPDEST SWAP3 POP POP PUSH1 0x20 PUSH2 0xEA3 DUP6 DUP3 DUP7 ADD PUSH2 0xE5B JUMP JUMPDEST SWAP2 POP POP SWAP3 POP SWAP3 SWAP1 POP JUMP JUMPDEST PUSH0 DUP2 ISZERO ISZERO SWAP1 POP SWAP2 SWAP1 POP JUMP JUMPDEST PUSH2 0xEC1 DUP2 PUSH2 0xEAD JUMP JUMPDEST DUP3 MSTORE POP POP JUMP JUMPDEST PUSH0 PUSH1 0x20 DUP3 ADD SWAP1 POP PUSH2 0xEDA PUSH0 DUP4 ADD DUP5 PUSH2 0xEB8 JUMP JUMPDEST SWAP3 SWAP2 POP POP JUMP JUMPDEST PUSH2 0xEE9 DUP2 PUSH2 0xE3C JUMP JUMPDEST DUP3 MSTORE POP POP JUMP JUMPDEST PUSH0 PUSH1 0x20 DUP3 ADD SWAP1 POP PUSH2 0xF02 PUSH0 DUP4 ADD DUP5 PUSH2 0xEE0 JUMP JUMPDEST SWAP3 SWAP2 POP POP JUMP JUMPDEST PUSH0 DUP1 PUSH0 PUSH1 0x60 DUP5 DUP7 SUB SLT ISZERO PUSH2 0xF1F JUMPI PUSH2 0xF1E PUSH2 0xDFD JUMP JUMPDEST JUMPDEST PUSH0 PUSH2 0xF2C DUP7 DUP3 DUP8 ADD PUSH2 0xE28 JUMP JUMPDEST SWAP4 POP POP PUSH1 0x20 PUSH2 0xF3D DUP7 DUP3 DUP8 ADD PUSH2 0xE28 JUMP JUMPDEST SWAP3 POP POP PUSH1 0x40 PUSH2 0xF4E DUP7 DUP3 DUP8 ADD PUSH2 0xE5B JUMP JUMPDEST SWAP2 POP POP SWAP3 POP SWAP3 POP SWAP3 JUMP JUMPDEST PUSH0 PUSH1 0xFF DUP3 AND SWAP1 POP SWAP2 SWAP1 POP JUMP JUMPDEST PUSH2 0xF6D DUP2 PUSH2 0xF58 JUMP JUMPDEST DUP3 MSTORE POP POP JUMP JUMPDEST PUSH0 PUSH1 0x20 DUP3 ADD SWAP1 POP PUSH2 0xF86 PUSH0 DUP4 ADD DUP5 PUSH2 0xF64 JUMP JUMPDEST SWAP3 SWAP2 POP POP JUMP JUMPDEST PUSH0 PUSH1 0x20 DUP3 DUP5 SUB SLT ISZERO PUSH2 0xFA1 JUMPI PUSH2 0xFA0 PUSH2 0xDFD JUMP JUMPDEST JUMPDEST PUSH0 PUSH2 0xFAE DUP5 DUP3 DUP6 ADD PUSH2 0xE28 JUMP JUMPDEST SWAP2 POP POP SWAP3 SWAP2 POP POP JUMP JUMPDEST PUSH0 DUP1 PUSH1 0x40 DUP4 DUP6 SUB SLT ISZERO PUSH2 0xFCD JUMPI PUSH2 0xFCC PUSH2 0xDFD JUMP JUMPDEST JUMPDEST PUSH0 PUSH2 0xFDA DUP6 DUP3 DUP7 ADD PUSH2 0xE28 JUMP JUMPDEST SWAP3 POP POP PUSH1 0x20 PUSH2 0xFEB DUP6 DUP3 DUP7 ADD PUSH2 0xE28 JUMP JUMPDEST SWAP2 POP POP SWAP3 POP SWAP3 SWAP1 POP JUMP JUMPDEST PUSH0 PUSH1 0x20 DUP3 DUP5 SUB SLT ISZERO PUSH2 0x100A JUMPI PUSH2 0x1009 PUSH2 0xDFD JUMP JUMPDEST JUMPDEST PUSH0 PUSH2 0x1017 DUP5 DUP3 DUP6 ADD PUSH2 0xE5B JUMP JUMPDEST SWAP2 POP POP SWAP3 SWAP2 POP POP JUMP JUMPDEST PUSH32 0x4E487B7100000000000000000000000000000000000000000000000000000000 PUSH0 MSTORE PUSH1 0x22 PUSH1 0x4 MSTORE PUSH1 0x24 PUSH0 REVERT JUMPDEST PUSH0 PUSH1 0x2 DUP3 DIV SWAP1 POP PUSH1 0x1 DUP3 AND DUP1 PUSH2 0x1064 JUMPI PUSH1 0x7F DUP3 AND SWAP2 POP JUMPDEST PUSH1 0x20 DUP3 LT DUP2 SUB PUSH2 0x1077 JUMPI PUSH2 0x1076 PUSH2 0x1020 JUMP JUMPDEST JUMPDEST POP SWAP2 SWAP1 POP JUMP JUMPDEST PUSH2 0x1086 DUP2 PUSH2 0xE01 JUMP JUMPDEST DUP3 MSTORE POP POP JUMP JUMPDEST PUSH0 PUSH1 0x40 DUP3 ADD SWAP1 POP PUSH2 0x109F PUSH0 DUP4 ADD DUP6 PUSH2 0x107D JUMP JUMPDEST PUSH2 0x10AC PUSH1 0x20 DUP4 ADD DUP5 PUSH2 0xEE0 JUMP JUMPDEST SWAP4 SWAP3 POP POP POP JUMP JUMPDEST PUSH2 0x10BC DUP2 PUSH2 0xEAD JUMP JUMPDEST DUP2 EQ PUSH2 0x10C6 JUMPI PUSH0 DUP1 REVERT JUMPDEST POP JUMP JUMPDEST PUSH0 DUP2 MLOAD SWAP1 POP PUSH2 0x10D7 DUP2 PUSH2 0x10B3 JUMP JUMPDEST SWAP3 SWAP2 POP POP JUMP JUMPDEST PUSH0 PUSH1 0x20 DUP3 DUP5 SUB SLT ISZERO PUSH2 0x10F2 JUMPI PUSH2 0x10F1 PUSH2 0xDFD JUMP JUMPDEST JUMPDEST PUSH0 PUSH2 0x10FF DUP5 DUP3 DUP6 ADD PUSH2 0x10C9 JUMP JUMPDEST SWAP2 POP POP SWAP3 SWAP2 POP POP JUMP JUMPDEST PUSH0 PUSH1 0x60 DUP3 ADD SWAP1 POP PUSH2 0x111B PUSH0 DUP4 ADD DUP7 PUSH2 0x107D JUMP JUMPDEST PUSH2 0x1128 PUSH1 0x20 DUP4 ADD DUP6 PUSH2 0x107D JUMP JUMPDEST PUSH2 0x1135 PUSH1 0x40 DUP4 ADD DUP5 PUSH2 0xEE0 JUMP JUMPDEST SWAP5 SWAP4 POP POP POP POP JUMP JUMPDEST PUSH0 PUSH1 0x60 DUP3 ADD SWAP1 POP PUSH2 0x1150 PUSH0 DUP4 ADD DUP7 PUSH2 0x107D JUMP JUMPDEST PUSH2 0x115D PUSH1 0x20 DUP4 ADD DUP6 PUSH2 0xEE0 JUMP JUMPDEST PUSH2 0x116A PUSH1 0x40 DUP4 ADD DUP5 PUSH2 0xEE0 JUMP JUMPDEST SWAP5 SWAP4 POP POP POP POP JUMP JUMPDEST PUSH0 PUSH1 0x20 DUP3 ADD SWAP1 POP PUSH2 0x1185 PUSH0 DUP4 ADD DUP5 PUSH2 0x107D JUMP JUMPDEST SWAP3 SWAP2 POP POP JUMP JUMPDEST PUSH32 0x4E487B7100000000000000000000000000000000000000000000000000000000 PUSH0 MSTORE PUSH1 0x11 PUSH1 0x4 MSTORE PUSH1 0x24 PUSH0 REVERT JUMPDEST PUSH0 PUSH2 0x11C2 DUP3 PUSH2 0xE3C JUMP JUMPDEST SWAP2 POP PUSH2 0x11CD DUP4 PUSH2 0xE3C JUMP JUMPDEST SWAP3 POP DUP3 DUP3 ADD SWAP1 POP DUP1 DUP3 GT ISZERO PUSH2 0x11E5 JUMPI PUSH2 0x11E4 PUSH2 0x118B JUMP JUMPDEST JUMPDEST SWAP3 SWAP2 POP POP JUMP INVALID LOG2 PUSH5 0x6970667358 0x22 SLT KECCAK256 0x25 SWAP3 0xC7 LOG1 SWAP11 PUSH14 0xBDFAE2AA5C396B084ACC7BD43617 PUSH12 0x8778850A8912A5532C338564 PUSH20 0x6F6C634300081A00330000000000000000000000 "
				},
				"gasEstimates": {
					"creation": {
						"codeDepositCost": "928200",
						"executionCost": "infinite",
						"totalCost": "infinite"
					},
					"external": {
						"allowance(address,address)": "infinite",
						"approve(address,uint256)": "infinite",
						"balanceOf(address)": "2829",
						"decimals()": "449",
						"empToken()": "infinite",
						"name()": "infinite",
						"symbol()": "infinite",
						"totalSupply()": "2499",
						"transfer(address,uint256)": "infinite",
						"transferFrom(address,address,uint256)": "infinite",
						"unwrap(uint256)": "infinite",
						"wrap(uint256)": "infinite"
					}
				},
				"methodIdentifiers": {
					"allowance(address,address)": "dd62ed3e",
					"approve(address,uint256)": "095ea7b3",
					"balanceOf(address)": "70a08231",
					"decimals()": "313ce567",
					"empToken()": "07eb1899",
					"name()": "06fdde03",
					"symbol()": "95d89b41",
					"totalSupply()": "18160ddd",
					"transfer(address,uint256)": "a9059cbb",
					"transferFrom(address,address,uint256)": "23b872dd",
					"unwrap(uint256)": "de0e9a3e",
					"wrap(uint256)": "ea598cb0"
				}
			},
			"storageLayout": {
				"storage": [
					{
						"astId": 159,
						"contract": "Task3/wrap and unwrap token.sol:WrappedEMP",
						"label": "_balances",
						"offset": 0,
						"slot": "0",
						"type": "t_mapping(t_address,t_uint256)"
					},
					{
						"astId": 165,
						"contract": "Task3/wrap and unwrap token.sol:WrappedEMP",
						"label": "_allowances",
						"offset": 0,
						"slot": "1",
						"type": "t_mapping(t_address,t_mapping(t_address,t_uint256))"
					},
					{
						"astId": 167,
						"contract": "Task3/wrap and unwrap token.sol:WrappedEMP",
						"label": "_totalSupply",
						"offset": 0,
						"slot": "2",
						"type": "t_uint256"
					},
					{
						"astId": 169,
						"contract": "Task3/wrap and unwrap token.sol:WrappedEMP",
						"label": "_name",
						"offset": 0,
						"slot": "3",
						"type": "t_string_storage"
					},
					{
						"astId": 171,
						"contract": "Task3/wrap and unwrap token.sol:WrappedEMP",
						"label": "_symbol",
						"offset": 0,
						"slot": "4",
						"type": "t_string_storage"
					},
					{
						"astId": 793,
						"contract": "Task3/wrap and unwrap token.sol:WrappedEMP",
						"label": "empToken",
						"offset": 0,
						"slot": "5",
						"type": "t_contract(ERC20)651"
					}
				],
				"types": {
					"t_address": {
						"encoding": "inplace",
						"label": "address",
						"numberOfBytes": "20"
					},
					"t_contract(ERC20)651": {
						"encoding": "inplace",
						"label": "contract ERC20",
						"numberOfBytes": "20"
					},
					"t_mapping(t_address,t_mapping(t_address,t_uint256))": {
						"encoding": "mapping",
						"key": "t_address",
						"label": "mapping(address => mapping(address => uint256))",
						"numberOfBytes": "32",
						"value": "t_mapping(t_address,t_uint256)"
					},
					"t_mapping(t_address,t_uint256)": {
						"encoding": "mapping",
						"key": "t_address",
						"label": "mapping(address => uint256)",
						"numberOfBytes": "32",
						"value": "t_uint256"
					},
					"t_string_storage": {
						"encoding": "bytes",
						"label": "string",
						"numberOfBytes": "32"
					},
					"t_uint256": {
						"encoding": "inplace",
						"label": "uint256",
						"numberOfBytes": "32"
					}
				}
			},
			"userdoc": {
				"kind": "user",
				"methods": {},
				"version": 1
			}
		}
	}
}